{
	"contracts/Demo4.sol": {
		"Demo4": {
			"abi": [
				{
					"inputs": [
						{
							"internalType": "address",
							"name": "",
							"type": "address"
						}
					],
					"name": "balances",
					"outputs": [
						{
							"internalType": "uint256",
							"name": "totalPayments",
							"type": "uint256"
						}
					],
					"stateMutability": "view",
					"type": "function"
				},
				{
					"inputs": [],
					"name": "currentStatus",
					"outputs": [
						{
							"internalType": "enum Demo4.Status",
							"name": "",
							"type": "uint8"
						}
					],
					"stateMutability": "view",
					"type": "function"
				},
				{
					"inputs": [],
					"name": "delivered",
					"outputs": [],
					"stateMutability": "nonpayable",
					"type": "function"
				},
				{
					"inputs": [],
					"name": "dynArr",
					"outputs": [],
					"stateMutability": "nonpayable",
					"type": "function"
				},
				{
					"inputs": [],
					"name": "firstByte",
					"outputs": [
						{
							"internalType": "bytes1",
							"name": "",
							"type": "bytes1"
						}
					],
					"stateMutability": "view",
					"type": "function"
				},
				{
					"inputs": [],
					"name": "fixedSize",
					"outputs": [],
					"stateMutability": "nonpayable",
					"type": "function"
				},
				{
					"inputs": [
						{
							"internalType": "address",
							"name": "_addr",
							"type": "address"
						},
						{
							"internalType": "uint256",
							"name": "_index",
							"type": "uint256"
						}
					],
					"name": "getPayment",
					"outputs": [
						{
							"components": [
								{
									"internalType": "uint256",
									"name": "amount",
									"type": "uint256"
								},
								{
									"internalType": "uint256",
									"name": "timestamp",
									"type": "uint256"
								},
								{
									"internalType": "address",
									"name": "from",
									"type": "address"
								},
								{
									"internalType": "string",
									"name": "message",
									"type": "string"
								}
							],
							"internalType": "struct Demo4.Payment",
							"name": "",
							"type": "tuple"
						}
					],
					"stateMutability": "view",
					"type": "function"
				},
				{
					"inputs": [
						{
							"internalType": "uint256",
							"name": "",
							"type": "uint256"
						},
						{
							"internalType": "uint256",
							"name": "",
							"type": "uint256"
						}
					],
					"name": "items",
					"outputs": [
						{
							"internalType": "uint256",
							"name": "",
							"type": "uint256"
						}
					],
					"stateMutability": "view",
					"type": "function"
				},
				{
					"inputs": [
						{
							"internalType": "uint256",
							"name": "",
							"type": "uint256"
						}
					],
					"name": "items2",
					"outputs": [
						{
							"internalType": "uint256",
							"name": "",
							"type": "uint256"
						}
					],
					"stateMutability": "view",
					"type": "function"
				},
				{
					"inputs": [],
					"name": "len",
					"outputs": [
						{
							"internalType": "uint256",
							"name": "",
							"type": "uint256"
						}
					],
					"stateMutability": "view",
					"type": "function"
				},
				{
					"inputs": [],
					"name": "myDynVar",
					"outputs": [
						{
							"internalType": "bytes",
							"name": "",
							"type": "bytes"
						}
					],
					"stateMutability": "view",
					"type": "function"
				},
				{
					"inputs": [],
					"name": "myVar",
					"outputs": [
						{
							"internalType": "bytes32",
							"name": "",
							"type": "bytes32"
						}
					],
					"stateMutability": "view",
					"type": "function"
				},
				{
					"inputs": [],
					"name": "paid",
					"outputs": [],
					"stateMutability": "nonpayable",
					"type": "function"
				},
				{
					"inputs": [
						{
							"internalType": "string",
							"name": "message",
							"type": "string"
						}
					],
					"name": "pay",
					"outputs": [],
					"stateMutability": "payable",
					"type": "function"
				},
				{
					"inputs": [],
					"name": "sampleMemory",
					"outputs": [
						{
							"internalType": "uint256[]",
							"name": "",
							"type": "uint256[]"
						}
					],
					"stateMutability": "view",
					"type": "function"
				},
				{
					"inputs": [
						{
							"internalType": "uint256",
							"name": "",
							"type": "uint256"
						}
					],
					"name": "test",
					"outputs": [
						{
							"internalType": "uint256",
							"name": "",
							"type": "uint256"
						}
					],
					"stateMutability": "view",
					"type": "function"
				}
			],
			"devdoc": {
				"kind": "dev",
				"methods": {},
				"version": 1
			},
			"evm": {
				"assembly": "    /* \"contracts/Demo4.sol\":62:2744  contract Demo4 {... */\n  mstore(0x40, 0x80)\n    /* \"contracts/Demo4.sol\":1542:1576  bytes32 public myVar = \"test here\" */\n  sstore(0x13, 0x7465737420686572650000000000000000000000000000000000000000000000)\n    /* \"contracts/Demo4.sol\":1592:1627  bytes public myDynVar = \"test here\" */\n  mload(0x40)\n  dup1\n  0x40\n  add\n  0x40\n  mstore\n  dup1\n  0x09\n  dup2\n  mstore\n  0x20\n  add\n  0x7465737420686572650000000000000000000000000000000000000000000000\n  dup2\n  mstore\n  pop\n  0x14\n  swap1\n  dup2\n  tag_1\n  swap2\n  swap1\n  tag_2\n  jump\t// in\ntag_1:\n  pop\n    /* \"contracts/Demo4.sol\":62:2744  contract Demo4 {... */\n  callvalue\n  dup1\n  iszero\n  tag_3\n  jumpi\n  0x00\n  dup1\n  revert\ntag_3:\n  pop\n  jump(tag_4)\n    /* \"#utility.yul\":7:106   */\ntag_5:\n    /* \"#utility.yul\":59:65   */\n  0x00\n    /* \"#utility.yul\":93:98   */\n  dup2\n    /* \"#utility.yul\":87:99   */\n  mload\n    /* \"#utility.yul\":77:99   */\n  swap1\n  pop\n    /* \"#utility.yul\":7:106   */\n  swap2\n  swap1\n  pop\n  jump\t// out\n    /* \"#utility.yul\":112:292   */\ntag_6:\n    /* \"#utility.yul\":160:237   */\n  0x4e487b7100000000000000000000000000000000000000000000000000000000\n    /* \"#utility.yul\":157:158   */\n  0x00\n    /* \"#utility.yul\":150:238   */\n  mstore\n    /* \"#utility.yul\":257:261   */\n  0x41\n    /* \"#utility.yul\":254:255   */\n  0x04\n    /* \"#utility.yul\":247:262   */\n  mstore\n    /* \"#utility.yul\":281:285   */\n  0x24\n    /* \"#utility.yul\":278:279   */\n  0x00\n    /* \"#utility.yul\":271:286   */\n  revert\n    /* \"#utility.yul\":298:478   */\ntag_7:\n    /* \"#utility.yul\":346:423   */\n  0x4e487b7100000000000000000000000000000000000000000000000000000000\n    /* \"#utility.yul\":343:344   */\n  0x00\n    /* \"#utility.yul\":336:424   */\n  mstore\n    /* \"#utility.yul\":443:447   */\n  0x22\n    /* \"#utility.yul\":440:441   */\n  0x04\n    /* \"#utility.yul\":433:448   */\n  mstore\n    /* \"#utility.yul\":467:471   */\n  0x24\n    /* \"#utility.yul\":464:465   */\n  0x00\n    /* \"#utility.yul\":457:472   */\n  revert\n    /* \"#utility.yul\":484:804   */\ntag_8:\n    /* \"#utility.yul\":528:534   */\n  0x00\n    /* \"#utility.yul\":565:566   */\n  0x02\n    /* \"#utility.yul\":559:563   */\n  dup3\n    /* \"#utility.yul\":555:567   */\n  div\n    /* \"#utility.yul\":545:567   */\n  swap1\n  pop\n    /* \"#utility.yul\":612:613   */\n  0x01\n    /* \"#utility.yul\":606:610   */\n  dup3\n    /* \"#utility.yul\":602:614   */\n  and\n    /* \"#utility.yul\":633:651   */\n  dup1\n    /* \"#utility.yul\":623:704   */\n  tag_30\n  jumpi\n    /* \"#utility.yul\":689:693   */\n  0x7f\n    /* \"#utility.yul\":681:687   */\n  dup3\n    /* \"#utility.yul\":677:694   */\n  and\n    /* \"#utility.yul\":667:694   */\n  swap2\n  pop\n    /* \"#utility.yul\":623:704   */\ntag_30:\n    /* \"#utility.yul\":751:753   */\n  0x20\n    /* \"#utility.yul\":743:749   */\n  dup3\n    /* \"#utility.yul\":740:754   */\n  lt\n    /* \"#utility.yul\":720:738   */\n  dup2\n    /* \"#utility.yul\":717:755   */\n  sub\n    /* \"#utility.yul\":714:798   */\n  tag_31\n  jumpi\n    /* \"#utility.yul\":770:788   */\n  tag_32\n  tag_7\n  jump\t// in\ntag_32:\n    /* \"#utility.yul\":714:798   */\ntag_31:\n    /* \"#utility.yul\":535:804   */\n  pop\n    /* \"#utility.yul\":484:804   */\n  swap2\n  swap1\n  pop\n  jump\t// out\n    /* \"#utility.yul\":810:950   */\ntag_9:\n    /* \"#utility.yul\":858:862   */\n  0x00\n    /* \"#utility.yul\":881:884   */\n  dup2\n    /* \"#utility.yul\":873:884   */\n  swap1\n  pop\n    /* \"#utility.yul\":904:907   */\n  dup2\n    /* \"#utility.yul\":901:902   */\n  0x00\n    /* \"#utility.yul\":894:908   */\n  mstore\n    /* \"#utility.yul\":938:942   */\n  0x20\n    /* \"#utility.yul\":935:936   */\n  0x00\n    /* \"#utility.yul\":925:943   */\n  keccak256\n    /* \"#utility.yul\":917:943   */\n  swap1\n  pop\n    /* \"#utility.yul\":810:950   */\n  swap2\n  swap1\n  pop\n  jump\t// out\n    /* \"#utility.yul\":956:1049   */\ntag_10:\n    /* \"#utility.yul\":993:999   */\n  0x00\n    /* \"#utility.yul\":1040:1042   */\n  0x20\n    /* \"#utility.yul\":1035:1037   */\n  0x1f\n    /* \"#utility.yul\":1028:1033   */\n  dup4\n    /* \"#utility.yul\":1024:1038   */\n  add\n    /* \"#utility.yul\":1020:1043   */\n  div\n    /* \"#utility.yul\":1010:1043   */\n  swap1\n  pop\n    /* \"#utility.yul\":956:1049   */\n  swap2\n  swap1\n  pop\n  jump\t// out\n    /* \"#utility.yul\":1055:1162   */\ntag_11:\n    /* \"#utility.yul\":1099:1107   */\n  0x00\n    /* \"#utility.yul\":1149:1154   */\n  dup3\n    /* \"#utility.yul\":1143:1147   */\n  dup3\n    /* \"#utility.yul\":1139:1155   */\n  shl\n    /* \"#utility.yul\":1118:1155   */\n  swap1\n  pop\n    /* \"#utility.yul\":1055:1162   */\n  swap3\n  swap2\n  pop\n  pop\n  jump\t// out\n    /* \"#utility.yul\":1168:1561   */\ntag_12:\n    /* \"#utility.yul\":1237:1243   */\n  0x00\n    /* \"#utility.yul\":1287:1288   */\n  0x08\n    /* \"#utility.yul\":1275:1285   */\n  dup4\n    /* \"#utility.yul\":1271:1289   */\n  mul\n    /* \"#utility.yul\":1310:1407   */\n  tag_37\n    /* \"#utility.yul\":1340:1406   */\n  0xffffffffffffffffffffffffffffffffffffffffffffffffffffffffffffffff\n    /* \"#utility.yul\":1329:1338   */\n  dup3\n    /* \"#utility.yul\":1310:1407   */\n  tag_11\n  jump\t// in\ntag_37:\n    /* \"#utility.yul\":1428:1467   */\n  tag_38\n    /* \"#utility.yul\":1458:1466   */\n  dup7\n    /* \"#utility.yul\":1447:1456   */\n  dup4\n    /* \"#utility.yul\":1428:1467   */\n  tag_11\n  jump\t// in\ntag_38:\n    /* \"#utility.yul\":1416:1467   */\n  swap6\n  pop\n    /* \"#utility.yul\":1500:1504   */\n  dup1\n    /* \"#utility.yul\":1496:1505   */\n  not\n    /* \"#utility.yul\":1489:1494   */\n  dup5\n    /* \"#utility.yul\":1485:1506   */\n  and\n    /* \"#utility.yul\":1476:1506   */\n  swap4\n  pop\n    /* \"#utility.yul\":1549:1553   */\n  dup1\n    /* \"#utility.yul\":1539:1547   */\n  dup7\n    /* \"#utility.yul\":1535:1554   */\n  and\n    /* \"#utility.yul\":1528:1533   */\n  dup5\n    /* \"#utility.yul\":1525:1555   */\n  or\n    /* \"#utility.yul\":1515:1555   */\n  swap3\n  pop\n    /* \"#utility.yul\":1244:1561   */\n  pop\n  pop\n    /* \"#utility.yul\":1168:1561   */\n  swap4\n  swap3\n  pop\n  pop\n  pop\n  jump\t// out\n    /* \"#utility.yul\":1567:1644   */\ntag_13:\n    /* \"#utility.yul\":1604:1611   */\n  0x00\n    /* \"#utility.yul\":1633:1638   */\n  dup2\n    /* \"#utility.yul\":1622:1638   */\n  swap1\n  pop\n    /* \"#utility.yul\":1567:1644   */\n  swap2\n  swap1\n  pop\n  jump\t// out\n    /* \"#utility.yul\":1650:1710   */\ntag_14:\n    /* \"#utility.yul\":1678:1681   */\n  0x00\n    /* \"#utility.yul\":1699:1704   */\n  dup2\n    /* \"#utility.yul\":1692:1704   */\n  swap1\n  pop\n    /* \"#utility.yul\":1650:1710   */\n  swap2\n  swap1\n  pop\n  jump\t// out\n    /* \"#utility.yul\":1716:1858   */\ntag_15:\n    /* \"#utility.yul\":1766:1775   */\n  0x00\n    /* \"#utility.yul\":1799:1852   */\n  tag_42\n    /* \"#utility.yul\":1817:1851   */\n  tag_43\n    /* \"#utility.yul\":1826:1850   */\n  tag_44\n    /* \"#utility.yul\":1844:1849   */\n  dup5\n    /* \"#utility.yul\":1826:1850   */\n  tag_13\n  jump\t// in\ntag_44:\n    /* \"#utility.yul\":1817:1851   */\n  tag_14\n  jump\t// in\ntag_43:\n    /* \"#utility.yul\":1799:1852   */\n  tag_13\n  jump\t// in\ntag_42:\n    /* \"#utility.yul\":1786:1852   */\n  swap1\n  pop\n    /* \"#utility.yul\":1716:1858   */\n  swap2\n  swap1\n  pop\n  jump\t// out\n    /* \"#utility.yul\":1864:1939   */\ntag_16:\n    /* \"#utility.yul\":1907:1910   */\n  0x00\n    /* \"#utility.yul\":1928:1933   */\n  dup2\n    /* \"#utility.yul\":1921:1933   */\n  swap1\n  pop\n    /* \"#utility.yul\":1864:1939   */\n  swap2\n  swap1\n  pop\n  jump\t// out\n    /* \"#utility.yul\":1945:2214   */\ntag_17:\n    /* \"#utility.yul\":2055:2094   */\n  tag_47\n    /* \"#utility.yul\":2086:2093   */\n  dup4\n    /* \"#utility.yul\":2055:2094   */\n  tag_15\n  jump\t// in\ntag_47:\n    /* \"#utility.yul\":2116:2207   */\n  tag_48\n    /* \"#utility.yul\":2165:2206   */\n  tag_49\n    /* \"#utility.yul\":2189:2205   */\n  dup3\n    /* \"#utility.yul\":2165:2206   */\n  tag_16\n  jump\t// in\ntag_49:\n    /* \"#utility.yul\":2157:2163   */\n  dup5\n    /* \"#utility.yul\":2150:2154   */\n  dup5\n    /* \"#utility.yul\":2144:2155   */\n  sload\n    /* \"#utility.yul\":2116:2207   */\n  tag_12\n  jump\t// in\ntag_48:\n    /* \"#utility.yul\":2110:2114   */\n  dup3\n    /* \"#utility.yul\":2103:2208   */\n  sstore\n    /* \"#utility.yul\":2021:2214   */\n  pop\n    /* \"#utility.yul\":1945:2214   */\n  pop\n  pop\n  pop\n  jump\t// out\n    /* \"#utility.yul\":2220:2293   */\ntag_18:\n    /* \"#utility.yul\":2265:2268   */\n  0x00\n    /* \"#utility.yul\":2220:2293   */\n  swap1\n  jump\t// out\n    /* \"#utility.yul\":2299:2488   */\ntag_19:\n    /* \"#utility.yul\":2376:2408   */\n  tag_52\n  tag_18\n  jump\t// in\ntag_52:\n    /* \"#utility.yul\":2417:2482   */\n  tag_53\n    /* \"#utility.yul\":2475:2481   */\n  dup2\n    /* \"#utility.yul\":2467:2473   */\n  dup5\n    /* \"#utility.yul\":2461:2465   */\n  dup5\n    /* \"#utility.yul\":2417:2482   */\n  tag_17\n  jump\t// in\ntag_53:\n    /* \"#utility.yul\":2352:2488   */\n  pop\n    /* \"#utility.yul\":2299:2488   */\n  pop\n  pop\n  jump\t// out\n    /* \"#utility.yul\":2494:2680   */\ntag_20:\n    /* \"#utility.yul\":2554:2674   */\ntag_55:\n    /* \"#utility.yul\":2571:2574   */\n  dup2\n    /* \"#utility.yul\":2564:2569   */\n  dup2\n    /* \"#utility.yul\":2561:2575   */\n  lt\n    /* \"#utility.yul\":2554:2674   */\n  iszero\n  tag_57\n  jumpi\n    /* \"#utility.yul\":2625:2664   */\n  tag_58\n    /* \"#utility.yul\":2662:2663   */\n  0x00\n    /* \"#utility.yul\":2655:2660   */\n  dup3\n    /* \"#utility.yul\":2625:2664   */\n  tag_19\n  jump\t// in\ntag_58:\n    /* \"#utility.yul\":2598:2599   */\n  0x01\n    /* \"#utility.yul\":2591:2596   */\n  dup2\n    /* \"#utility.yul\":2587:2600   */\n  add\n    /* \"#utility.yul\":2578:2600   */\n  swap1\n  pop\n    /* \"#utility.yul\":2554:2674   */\n  jump(tag_55)\ntag_57:\n    /* \"#utility.yul\":2494:2680   */\n  pop\n  pop\n  jump\t// out\n    /* \"#utility.yul\":2686:3227   */\ntag_21:\n    /* \"#utility.yul\":2786:2788   */\n  0x1f\n    /* \"#utility.yul\":2781:2784   */\n  dup3\n    /* \"#utility.yul\":2778:2789   */\n  gt\n    /* \"#utility.yul\":2775:3220   */\n  iszero\n  tag_60\n  jumpi\n    /* \"#utility.yul\":2820:2857   */\n  tag_61\n    /* \"#utility.yul\":2851:2856   */\n  dup2\n    /* \"#utility.yul\":2820:2857   */\n  tag_9\n  jump\t// in\ntag_61:\n    /* \"#utility.yul\":2903:2932   */\n  tag_62\n    /* \"#utility.yul\":2921:2931   */\n  dup5\n    /* \"#utility.yul\":2903:2932   */\n  tag_10\n  jump\t// in\ntag_62:\n    /* \"#utility.yul\":2893:2901   */\n  dup2\n    /* \"#utility.yul\":2889:2933   */\n  add\n    /* \"#utility.yul\":3086:3088   */\n  0x20\n    /* \"#utility.yul\":3074:3084   */\n  dup6\n    /* \"#utility.yul\":3071:3089   */\n  lt\n    /* \"#utility.yul\":3068:3117   */\n  iszero\n  tag_63\n  jumpi\n    /* \"#utility.yul\":3107:3115   */\n  dup2\n    /* \"#utility.yul\":3092:3115   */\n  swap1\n  pop\n    /* \"#utility.yul\":3068:3117   */\ntag_63:\n    /* \"#utility.yul\":3130:3210   */\n  tag_64\n    /* \"#utility.yul\":3186:3208   */\n  tag_65\n    /* \"#utility.yul\":3204:3207   */\n  dup6\n    /* \"#utility.yul\":3186:3208   */\n  tag_10\n  jump\t// in\ntag_65:\n    /* \"#utility.yul\":3176:3184   */\n  dup4\n    /* \"#utility.yul\":3172:3209   */\n  add\n    /* \"#utility.yul\":3159:3170   */\n  dup3\n    /* \"#utility.yul\":3130:3210   */\n  tag_20\n  jump\t// in\ntag_64:\n    /* \"#utility.yul\":2790:3220   */\n  pop\n  pop\n    /* \"#utility.yul\":2775:3220   */\ntag_60:\n    /* \"#utility.yul\":2686:3227   */\n  pop\n  pop\n  pop\n  jump\t// out\n    /* \"#utility.yul\":3233:3350   */\ntag_22:\n    /* \"#utility.yul\":3287:3295   */\n  0x00\n    /* \"#utility.yul\":3337:3342   */\n  dup3\n    /* \"#utility.yul\":3331:3335   */\n  dup3\n    /* \"#utility.yul\":3327:3343   */\n  shr\n    /* \"#utility.yul\":3306:3343   */\n  swap1\n  pop\n    /* \"#utility.yul\":3233:3350   */\n  swap3\n  swap2\n  pop\n  pop\n  jump\t// out\n    /* \"#utility.yul\":3356:3525   */\ntag_23:\n    /* \"#utility.yul\":3400:3406   */\n  0x00\n    /* \"#utility.yul\":3433:3484   */\n  tag_68\n    /* \"#utility.yul\":3481:3482   */\n  0x00\n    /* \"#utility.yul\":3477:3483   */\n  not\n    /* \"#utility.yul\":3469:3474   */\n  dup5\n    /* \"#utility.yul\":3466:3467   */\n  0x08\n    /* \"#utility.yul\":3462:3475   */\n  mul\n    /* \"#utility.yul\":3433:3484   */\n  tag_22\n  jump\t// in\ntag_68:\n    /* \"#utility.yul\":3429:3485   */\n  not\n    /* \"#utility.yul\":3514:3518   */\n  dup1\n    /* \"#utility.yul\":3508:3512   */\n  dup4\n    /* \"#utility.yul\":3504:3519   */\n  and\n    /* \"#utility.yul\":3494:3519   */\n  swap2\n  pop\n    /* \"#utility.yul\":3407:3525   */\n  pop\n    /* \"#utility.yul\":3356:3525   */\n  swap3\n  swap2\n  pop\n  pop\n  jump\t// out\n    /* \"#utility.yul\":3530:3825   */\ntag_24:\n    /* \"#utility.yul\":3606:3610   */\n  0x00\n    /* \"#utility.yul\":3752:3781   */\n  tag_70\n    /* \"#utility.yul\":3777:3780   */\n  dup4\n    /* \"#utility.yul\":3771:3775   */\n  dup4\n    /* \"#utility.yul\":3752:3781   */\n  tag_23\n  jump\t// in\ntag_70:\n    /* \"#utility.yul\":3744:3781   */\n  swap2\n  pop\n    /* \"#utility.yul\":3814:3817   */\n  dup3\n    /* \"#utility.yul\":3811:3812   */\n  0x02\n    /* \"#utility.yul\":3807:3818   */\n  mul\n    /* \"#utility.yul\":3801:3805   */\n  dup3\n    /* \"#utility.yul\":3798:3819   */\n  or\n    /* \"#utility.yul\":3790:3819   */\n  swap1\n  pop\n    /* \"#utility.yul\":3530:3825   */\n  swap3\n  swap2\n  pop\n  pop\n  jump\t// out\n    /* \"#utility.yul\":3830:5222   */\ntag_2:\n    /* \"#utility.yul\":3946:3983   */\n  tag_72\n    /* \"#utility.yul\":3979:3982   */\n  dup3\n    /* \"#utility.yul\":3946:3983   */\n  tag_5\n  jump\t// in\ntag_72:\n    /* \"#utility.yul\":4048:4066   */\n  0xffffffffffffffff\n    /* \"#utility.yul\":4040:4046   */\n  dup2\n    /* \"#utility.yul\":4037:4067   */\n  gt\n    /* \"#utility.yul\":4034:4090   */\n  iszero\n  tag_73\n  jumpi\n    /* \"#utility.yul\":4070:4088   */\n  tag_74\n  tag_6\n  jump\t// in\ntag_74:\n    /* \"#utility.yul\":4034:4090   */\ntag_73:\n    /* \"#utility.yul\":4114:4152   */\n  tag_75\n    /* \"#utility.yul\":4146:4150   */\n  dup3\n    /* \"#utility.yul\":4140:4151   */\n  sload\n    /* \"#utility.yul\":4114:4152   */\n  tag_8\n  jump\t// in\ntag_75:\n    /* \"#utility.yul\":4199:4265   */\n  tag_76\n    /* \"#utility.yul\":4258:4264   */\n  dup3\n    /* \"#utility.yul\":4250:4256   */\n  dup3\n    /* \"#utility.yul\":4244:4248   */\n  dup6\n    /* \"#utility.yul\":4199:4265   */\n  tag_21\n  jump\t// in\ntag_76:\n    /* \"#utility.yul\":4292:4293   */\n  0x00\n    /* \"#utility.yul\":4316:4320   */\n  0x20\n    /* \"#utility.yul\":4303:4320   */\n  swap1\n  pop\n    /* \"#utility.yul\":4348:4350   */\n  0x1f\n    /* \"#utility.yul\":4340:4346   */\n  dup4\n    /* \"#utility.yul\":4337:4351   */\n  gt\n    /* \"#utility.yul\":4365:4366   */\n  0x01\n    /* \"#utility.yul\":4360:4977   */\n  dup2\n  eq\n  tag_78\n  jumpi\n    /* \"#utility.yul\":5021:5022   */\n  0x00\n    /* \"#utility.yul\":5038:5044   */\n  dup5\n    /* \"#utility.yul\":5035:5112   */\n  iszero\n  tag_79\n  jumpi\n    /* \"#utility.yul\":5087:5096   */\n  dup3\n    /* \"#utility.yul\":5082:5085   */\n  dup8\n    /* \"#utility.yul\":5078:5097   */\n  add\n    /* \"#utility.yul\":5072:5098   */\n  mload\n    /* \"#utility.yul\":5063:5098   */\n  swap1\n  pop\n    /* \"#utility.yul\":5035:5112   */\ntag_79:\n    /* \"#utility.yul\":5138:5205   */\n  tag_80\n    /* \"#utility.yul\":5198:5204   */\n  dup6\n    /* \"#utility.yul\":5191:5196   */\n  dup3\n    /* \"#utility.yul\":5138:5205   */\n  tag_24\n  jump\t// in\ntag_80:\n    /* \"#utility.yul\":5132:5136   */\n  dup7\n    /* \"#utility.yul\":5125:5206   */\n  sstore\n    /* \"#utility.yul\":4994:5216   */\n  pop\n    /* \"#utility.yul\":4330:5216   */\n  jump(tag_77)\n    /* \"#utility.yul\":4360:4977   */\ntag_78:\n    /* \"#utility.yul\":4412:4416   */\n  0x1f\n    /* \"#utility.yul\":4408:4417   */\n  not\n    /* \"#utility.yul\":4400:4406   */\n  dup5\n    /* \"#utility.yul\":4396:4418   */\n  and\n    /* \"#utility.yul\":4446:4482   */\n  tag_81\n    /* \"#utility.yul\":4477:4481   */\n  dup7\n    /* \"#utility.yul\":4446:4482   */\n  tag_9\n  jump\t// in\ntag_81:\n    /* \"#utility.yul\":4504:4505   */\n  0x00\n    /* \"#utility.yul\":4518:4726   */\ntag_82:\n    /* \"#utility.yul\":4532:4539   */\n  dup3\n    /* \"#utility.yul\":4529:4530   */\n  dup2\n    /* \"#utility.yul\":4526:4540   */\n  lt\n    /* \"#utility.yul\":4518:4726   */\n  iszero\n  tag_84\n  jumpi\n    /* \"#utility.yul\":4611:4620   */\n  dup5\n    /* \"#utility.yul\":4606:4609   */\n  dup10\n    /* \"#utility.yul\":4602:4621   */\n  add\n    /* \"#utility.yul\":4596:4622   */\n  mload\n    /* \"#utility.yul\":4588:4594   */\n  dup3\n    /* \"#utility.yul\":4581:4623   */\n  sstore\n    /* \"#utility.yul\":4662:4663   */\n  0x01\n    /* \"#utility.yul\":4654:4660   */\n  dup3\n    /* \"#utility.yul\":4650:4664   */\n  add\n    /* \"#utility.yul\":4640:4664   */\n  swap2\n  pop\n    /* \"#utility.yul\":4709:4711   */\n  0x20\n    /* \"#utility.yul\":4698:4707   */\n  dup6\n    /* \"#utility.yul\":4694:4712   */\n  add\n    /* \"#utility.yul\":4681:4712   */\n  swap5\n  pop\n    /* \"#utility.yul\":4555:4559   */\n  0x20\n    /* \"#utility.yul\":4552:4553   */\n  dup2\n    /* \"#utility.yul\":4548:4560   */\n  add\n    /* \"#utility.yul\":4543:4560   */\n  swap1\n  pop\n    /* \"#utility.yul\":4518:4726   */\n  jump(tag_82)\ntag_84:\n    /* \"#utility.yul\":4754:4760   */\n  dup7\n    /* \"#utility.yul\":4745:4752   */\n  dup4\n    /* \"#utility.yul\":4742:4761   */\n  lt\n    /* \"#utility.yul\":4739:4918   */\n  iszero\n  tag_85\n  jumpi\n    /* \"#utility.yul\":4812:4821   */\n  dup5\n    /* \"#utility.yul\":4807:4810   */\n  dup10\n    /* \"#utility.yul\":4803:4822   */\n  add\n    /* \"#utility.yul\":4797:4823   */\n  mload\n    /* \"#utility.yul\":4855:4903   */\n  tag_86\n    /* \"#utility.yul\":4897:4901   */\n  0x1f\n    /* \"#utility.yul\":4889:4895   */\n  dup10\n    /* \"#utility.yul\":4885:4902   */\n  and\n    /* \"#utility.yul\":4874:4883   */\n  dup3\n    /* \"#utility.yul\":4855:4903   */\n  tag_23\n  jump\t// in\ntag_86:\n    /* \"#utility.yul\":4847:4853   */\n  dup4\n    /* \"#utility.yul\":4840:4904   */\n  sstore\n    /* \"#utility.yul\":4762:4918   */\n  pop\n    /* \"#utility.yul\":4739:4918   */\ntag_85:\n    /* \"#utility.yul\":4964:4965   */\n  0x01\n    /* \"#utility.yul\":4960:4961   */\n  0x02\n    /* \"#utility.yul\":4952:4958   */\n  dup9\n    /* \"#utility.yul\":4948:4962   */\n  mul\n    /* \"#utility.yul\":4944:4966   */\n  add\n    /* \"#utility.yul\":4938:4942   */\n  dup9\n    /* \"#utility.yul\":4931:4967   */\n  sstore\n    /* \"#utility.yul\":4367:4977   */\n  pop\n  pop\n  pop\n    /* \"#utility.yul\":4330:5216   */\ntag_77:\n  pop\n    /* \"#utility.yul\":3921:5222   */\n  pop\n  pop\n  pop\n    /* \"#utility.yul\":3830:5222   */\n  pop\n  pop\n  jump\t// out\n    /* \"contracts/Demo4.sol\":62:2744  contract Demo4 {... */\ntag_4:\n  dataSize(sub_0)\n  dup1\n  dataOffset(sub_0)\n  0x00\n  codecopy\n  0x00\n  return\nstop\n\nsub_0: assembly {\n        /* \"contracts/Demo4.sol\":62:2744  contract Demo4 {... */\n      mstore(0x40, 0x80)\n      jumpi(tag_1, lt(calldatasize, 0x04))\n      shr(0xe0, calldataload(0x00))\n      dup1\n      0x736172d3\n      gt\n      tag_18\n      jumpi\n      dup1\n      0xbbdfbfba\n      gt\n      tag_19\n      jumpi\n      dup1\n      0xbbdfbfba\n      eq\n      tag_14\n      jumpi\n      dup1\n      0xc6b91540\n      eq\n      tag_15\n      jumpi\n      dup1\n      0xef8a9235\n      eq\n      tag_16\n      jumpi\n      dup1\n      0xffb1e210\n      eq\n      tag_17\n      jumpi\n      jump(tag_1)\n    tag_19:\n      dup1\n      0x736172d3\n      eq\n      tag_10\n      jumpi\n      dup1\n      0x977a767c\n      eq\n      tag_11\n      jumpi\n      dup1\n      0xa34343c9\n      eq\n      tag_12\n      jumpi\n      dup1\n      0xb6c5594c\n      eq\n      tag_13\n      jumpi\n      jump(tag_1)\n    tag_18:\n      dup1\n      0x31e838dd\n      gt\n      tag_20\n      jumpi\n      dup1\n      0x31e838dd\n      eq\n      tag_6\n      jumpi\n      dup1\n      0x503f8cab\n      eq\n      tag_7\n      jumpi\n      dup1\n      0x56d88e27\n      eq\n      tag_8\n      jumpi\n      dup1\n      0x654c914f\n      eq\n      tag_9\n      jumpi\n      jump(tag_1)\n    tag_20:\n      dup1\n      0x27e235e3\n      eq\n      tag_2\n      jumpi\n      dup1\n      0x295b4e17\n      eq\n      tag_3\n      jumpi\n      dup1\n      0x29e99f07\n      eq\n      tag_4\n      jumpi\n      dup1\n      0x2b66d72e\n      eq\n      tag_5\n      jumpi\n    tag_1:\n      0x00\n      dup1\n      revert\n        /* \"contracts/Demo4.sol\":2131:2174  mapping(address => Balance) public balances */\n    tag_2:\n      callvalue\n      dup1\n      iszero\n      tag_21\n      jumpi\n      0x00\n      dup1\n      revert\n    tag_21:\n      pop\n      tag_22\n      0x04\n      dup1\n      calldatasize\n      sub\n      dup2\n      add\n      swap1\n      tag_23\n      swap2\n      swap1\n      tag_24\n      jump\t// in\n    tag_23:\n      tag_25\n      jump\t// in\n    tag_22:\n      mload(0x40)\n      tag_26\n      swap2\n      swap1\n      tag_27\n      jump\t// in\n    tag_26:\n      mload(0x40)\n      dup1\n      swap2\n      sub\n      swap1\n      return\n        /* \"contracts/Demo4.sol\":184:257  function paid() public {... */\n    tag_3:\n      callvalue\n      dup1\n      iszero\n      tag_28\n      jumpi\n      0x00\n      dup1\n      revert\n    tag_28:\n      pop\n      tag_29\n      tag_30\n      jump\t// in\n    tag_29:\n      stop\n        /* \"contracts/Demo4.sol\":484:504  uint[10] public test */\n    tag_4:\n      callvalue\n      dup1\n      iszero\n      tag_31\n      jumpi\n      0x00\n      dup1\n      revert\n    tag_31:\n      pop\n      tag_32\n      0x04\n      dup1\n      calldatasize\n      sub\n      dup2\n      add\n      swap1\n      tag_33\n      swap2\n      swap1\n      tag_34\n      jump\t// in\n    tag_33:\n      tag_35\n      jump\t// in\n    tag_32:\n      mload(0x40)\n      tag_36\n      swap2\n      swap1\n      tag_27\n      jump\t// in\n    tag_36:\n      mload(0x40)\n      dup1\n      swap2\n      sub\n      swap1\n      return\n        /* \"contracts/Demo4.sol\":2183:2589  function pay(string memory message) public payable {... */\n    tag_5:\n      tag_37\n      0x04\n      dup1\n      calldatasize\n      sub\n      dup2\n      add\n      swap1\n      tag_38\n      swap2\n      swap1\n      tag_39\n      jump\t// in\n    tag_38:\n      tag_40\n      jump\t// in\n    tag_37:\n      stop\n        /* \"contracts/Demo4.sol\":591:614  uint[3][2] public items */\n    tag_6:\n      callvalue\n      dup1\n      iszero\n      tag_41\n      jumpi\n      0x00\n      dup1\n      revert\n    tag_41:\n      pop\n      tag_42\n      0x04\n      dup1\n      calldatasize\n      sub\n      dup2\n      add\n      swap1\n      tag_43\n      swap2\n      swap1\n      tag_44\n      jump\t// in\n    tag_43:\n      tag_45\n      jump\t// in\n    tag_42:\n      mload(0x40)\n      tag_46\n      swap2\n      swap1\n      tag_27\n      jump\t// in\n    tag_46:\n      mload(0x40)\n      dup1\n      swap2\n      sub\n      swap1\n      return\n        /* \"contracts/Demo4.sol\":861:881  uint[] public items2 */\n    tag_7:\n      callvalue\n      dup1\n      iszero\n      tag_47\n      jumpi\n      0x00\n      dup1\n      revert\n    tag_47:\n      pop\n      tag_48\n      0x04\n      dup1\n      calldatasize\n      sub\n      dup2\n      add\n      swap1\n      tag_49\n      swap2\n      swap1\n      tag_34\n      jump\t// in\n    tag_49:\n      tag_50\n      jump\t// in\n    tag_48:\n      mload(0x40)\n      tag_51\n      swap2\n      swap1\n      tag_27\n      jump\t// in\n    tag_51:\n      mload(0x40)\n      dup1\n      swap2\n      sub\n      swap1\n      return\n        /* \"contracts/Demo4.sol\":888:903  uint public len */\n    tag_8:\n      callvalue\n      dup1\n      iszero\n      tag_52\n      jumpi\n      0x00\n      dup1\n      revert\n    tag_52:\n      pop\n      tag_53\n      tag_54\n      jump\t// in\n    tag_53:\n      mload(0x40)\n      tag_55\n      swap2\n      swap1\n      tag_27\n      jump\t// in\n    tag_55:\n      mload(0x40)\n      dup1\n      swap2\n      sub\n      swap1\n      return\n        /* \"contracts/Demo4.sol\":1701:1787  function firstByte() public view returns(bytes1) {... */\n    tag_9:\n      callvalue\n      dup1\n      iszero\n      tag_56\n      jumpi\n      0x00\n      dup1\n      revert\n    tag_56:\n      pop\n      tag_57\n      tag_58\n      jump\t// in\n    tag_57:\n      mload(0x40)\n      tag_59\n      swap2\n      swap1\n      tag_60\n      jump\t// in\n    tag_59:\n      mload(0x40)\n      dup1\n      swap2\n      sub\n      swap1\n      return\n        /* \"contracts/Demo4.sol\":621:832  function fixedSize() public {... */\n    tag_10:\n      callvalue\n      dup1\n      iszero\n      tag_61\n      jumpi\n      0x00\n      dup1\n      revert\n    tag_61:\n      pop\n      tag_62\n      tag_63\n      jump\t// in\n    tag_62:\n      stop\n        /* \"contracts/Demo4.sol\":2597:2739  function getPayment(address _addr, uint _index) public view returns(Payment memory) {... */\n    tag_11:\n      callvalue\n      dup1\n      iszero\n      tag_64\n      jumpi\n      0x00\n      dup1\n      revert\n    tag_64:\n      pop\n      tag_65\n      0x04\n      dup1\n      calldatasize\n      sub\n      dup2\n      add\n      swap1\n      tag_66\n      swap2\n      swap1\n      tag_67\n      jump\t// in\n    tag_66:\n      tag_68\n      jump\t// in\n    tag_65:\n      mload(0x40)\n      tag_69\n      swap2\n      swap1\n      tag_70\n      jump\t// in\n    tag_69:\n      mload(0x40)\n      dup1\n      swap2\n      sub\n      swap1\n      return\n        /* \"contracts/Demo4.sol\":1145:1515  function sampleMemory() public view returns(uint[] memory) {... */\n    tag_12:\n      callvalue\n      dup1\n      iszero\n      tag_71\n      jumpi\n      0x00\n      dup1\n      revert\n    tag_71:\n      pop\n      tag_72\n      tag_73\n      jump\t// in\n    tag_72:\n      mload(0x40)\n      tag_74\n      swap2\n      swap1\n      tag_75\n      jump\t// in\n    tag_74:\n      mload(0x40)\n      dup1\n      swap2\n      sub\n      swap1\n      return\n        /* \"contracts/Demo4.sol\":910:1137  function dynArr() public {... */\n    tag_13:\n      callvalue\n      dup1\n      iszero\n      tag_76\n      jumpi\n      0x00\n      dup1\n      revert\n    tag_76:\n      pop\n      tag_77\n      tag_78\n      jump\t// in\n    tag_77:\n      stop\n        /* \"contracts/Demo4.sol\":265:348  function delivered() public {... */\n    tag_14:\n      callvalue\n      dup1\n      iszero\n      tag_79\n      jumpi\n      0x00\n      dup1\n      revert\n    tag_79:\n      pop\n      tag_80\n      tag_81\n      jump\t// in\n    tag_80:\n      stop\n        /* \"contracts/Demo4.sol\":1542:1576  bytes32 public myVar = \"test here\" */\n    tag_15:\n      callvalue\n      dup1\n      iszero\n      tag_82\n      jumpi\n      0x00\n      dup1\n      revert\n    tag_82:\n      pop\n      tag_83\n      tag_84\n      jump\t// in\n    tag_83:\n      mload(0x40)\n      tag_85\n      swap2\n      swap1\n      tag_86\n      jump\t// in\n    tag_85:\n      mload(0x40)\n      dup1\n      swap2\n      sub\n      swap1\n      return\n        /* \"contracts/Demo4.sol\":148:175  Status public currentStatus */\n    tag_16:\n      callvalue\n      dup1\n      iszero\n      tag_87\n      jumpi\n      0x00\n      dup1\n      revert\n    tag_87:\n      pop\n      tag_88\n      tag_89\n      jump\t// in\n    tag_88:\n      mload(0x40)\n      tag_90\n      swap2\n      swap1\n      tag_91\n      jump\t// in\n    tag_90:\n      mload(0x40)\n      dup1\n      swap2\n      sub\n      swap1\n      return\n        /* \"contracts/Demo4.sol\":1592:1627  bytes public myDynVar = \"test here\" */\n    tag_17:\n      callvalue\n      dup1\n      iszero\n      tag_92\n      jumpi\n      0x00\n      dup1\n      revert\n    tag_92:\n      pop\n      tag_93\n      tag_94\n      jump\t// in\n    tag_93:\n      mload(0x40)\n      tag_95\n      swap2\n      swap1\n      tag_96\n      jump\t// in\n    tag_95:\n      mload(0x40)\n      dup1\n      swap2\n      sub\n      swap1\n      return\n        /* \"contracts/Demo4.sol\":2131:2174  mapping(address => Balance) public balances */\n    tag_25:\n      mstore(0x20, 0x15)\n      dup1\n      0x00\n      mstore\n      keccak256(0x00, 0x40)\n      0x00\n      swap2\n      pop\n      swap1\n      pop\n      dup1\n      0x00\n      add\n      sload\n      swap1\n      pop\n      dup2\n      jump\t// out\n        /* \"contracts/Demo4.sol\":184:257  function paid() public {... */\n    tag_30:\n        /* \"contracts/Demo4.sol\":234:245  Status.Paid */\n      0x00\n        /* \"contracts/Demo4.sol\":218:231  currentStatus */\n      dup1\n      0x00\n        /* \"contracts/Demo4.sol\":218:245  currentStatus = Status.Paid */\n      0x0100\n      exp\n      dup2\n      sload\n      dup2\n      0xff\n      mul\n      not\n      and\n      swap1\n      dup4\n      0x02\n      dup2\n      gt\n      iszero\n      tag_98\n      jumpi\n      tag_99\n      tag_100\n      jump\t// in\n    tag_99:\n    tag_98:\n      mul\n      or\n      swap1\n      sstore\n      pop\n        /* \"contracts/Demo4.sol\":184:257  function paid() public {... */\n      jump\t// out\n        /* \"contracts/Demo4.sol\":484:504  uint[10] public test */\n    tag_35:\n      0x01\n      dup2\n      0x0a\n      dup2\n      lt\n      tag_101\n      jumpi\n      0x00\n      dup1\n      revert\n    tag_101:\n      add\n      0x00\n      swap2\n      pop\n      swap1\n      pop\n      sload\n      dup2\n      jump\t// out\n        /* \"contracts/Demo4.sol\":2183:2589  function pay(string memory message) public payable {... */\n    tag_40:\n        /* \"contracts/Demo4.sol\":2245:2253  balances */\n      0x15\n        /* \"contracts/Demo4.sol\":2245:2265  balances[msg.sender] */\n      0x00\n        /* \"contracts/Demo4.sol\":2254:2264  msg.sender */\n      caller\n        /* \"contracts/Demo4.sol\":2245:2265  balances[msg.sender] */\n      0xffffffffffffffffffffffffffffffffffffffff\n      and\n      0xffffffffffffffffffffffffffffffffffffffff\n      and\n      dup2\n      mstore\n      0x20\n      add\n      swap1\n      dup2\n      mstore\n      0x20\n      add\n      0x00\n      keccak256\n        /* \"contracts/Demo4.sol\":2245:2279  balances[msg.sender].totalPayments */\n      0x00\n      add\n      0x00\n        /* \"contracts/Demo4.sol\":2245:2281  balances[msg.sender].totalPayments++ */\n      dup2\n      sload\n      dup1\n      swap3\n      swap2\n      swap1\n      tag_104\n      swap1\n      tag_105\n      jump\t// in\n    tag_104:\n      swap2\n      swap1\n      pop\n      sstore\n      pop\n        /* \"contracts/Demo4.sol\":2294:2309  uint paymentNum */\n      0x00\n        /* \"contracts/Demo4.sol\":2312:2320  balances */\n      0x15\n        /* \"contracts/Demo4.sol\":2312:2332  balances[msg.sender] */\n      0x00\n        /* \"contracts/Demo4.sol\":2321:2331  msg.sender */\n      caller\n        /* \"contracts/Demo4.sol\":2312:2332  balances[msg.sender] */\n      0xffffffffffffffffffffffffffffffffffffffff\n      and\n      0xffffffffffffffffffffffffffffffffffffffff\n      and\n      dup2\n      mstore\n      0x20\n      add\n      swap1\n      dup2\n      mstore\n      0x20\n      add\n      0x00\n      keccak256\n        /* \"contracts/Demo4.sol\":2312:2346  balances[msg.sender].totalPayments */\n      0x00\n      add\n      sload\n        /* \"contracts/Demo4.sol\":2294:2346  uint paymentNum = balances[msg.sender].totalPayments */\n      swap1\n      pop\n        /* \"contracts/Demo4.sol\":2367:2392  Payment memory newPayment */\n      0x00\n        /* \"contracts/Demo4.sol\":2395:2514  Payment(... */\n      mload(0x40)\n      dup1\n      0x80\n      add\n      0x40\n      mstore\n      dup1\n        /* \"contracts/Demo4.sol\":2417:2426  msg.value */\n      callvalue\n        /* \"contracts/Demo4.sol\":2395:2514  Payment(... */\n      dup2\n      mstore\n      0x20\n      add\n        /* \"contracts/Demo4.sol\":2441:2456  block.timestamp */\n      timestamp\n        /* \"contracts/Demo4.sol\":2395:2514  Payment(... */\n      dup2\n      mstore\n      0x20\n      add\n        /* \"contracts/Demo4.sol\":2471:2481  msg.sender */\n      caller\n        /* \"contracts/Demo4.sol\":2395:2514  Payment(... */\n      0xffffffffffffffffffffffffffffffffffffffff\n      and\n      dup2\n      mstore\n      0x20\n      add\n        /* \"contracts/Demo4.sol\":2496:2503  message */\n      dup5\n        /* \"contracts/Demo4.sol\":2395:2514  Payment(... */\n      dup2\n      mstore\n      pop\n        /* \"contracts/Demo4.sol\":2367:2514  Payment memory newPayment = Payment(... */\n      swap1\n      pop\n        /* \"contracts/Demo4.sol\":2571:2581  newPayment */\n      dup1\n        /* \"contracts/Demo4.sol\":2527:2535  balances */\n      0x15\n        /* \"contracts/Demo4.sol\":2527:2547  balances[msg.sender] */\n      0x00\n        /* \"contracts/Demo4.sol\":2536:2546  msg.sender */\n      caller\n        /* \"contracts/Demo4.sol\":2527:2547  balances[msg.sender] */\n      0xffffffffffffffffffffffffffffffffffffffff\n      and\n      0xffffffffffffffffffffffffffffffffffffffff\n      and\n      dup2\n      mstore\n      0x20\n      add\n      swap1\n      dup2\n      mstore\n      0x20\n      add\n      0x00\n      keccak256\n        /* \"contracts/Demo4.sol\":2527:2556  balances[msg.sender].payments */\n      0x01\n      add\n        /* \"contracts/Demo4.sol\":2527:2568  balances[msg.sender].payments[paymentNum] */\n      0x00\n        /* \"contracts/Demo4.sol\":2557:2567  paymentNum */\n      dup5\n        /* \"contracts/Demo4.sol\":2527:2568  balances[msg.sender].payments[paymentNum] */\n      dup2\n      mstore\n      0x20\n      add\n      swap1\n      dup2\n      mstore\n      0x20\n      add\n      0x00\n      keccak256\n        /* \"contracts/Demo4.sol\":2527:2581  balances[msg.sender].payments[paymentNum] = newPayment */\n      0x00\n      dup3\n      add\n      mload\n      dup2\n      0x00\n      add\n      sstore\n      0x20\n      dup3\n      add\n      mload\n      dup2\n      0x01\n      add\n      sstore\n      0x40\n      dup3\n      add\n      mload\n      dup2\n      0x02\n      add\n      exp(0x0100, 0x00)\n      dup2\n      sload\n      dup2\n      0xffffffffffffffffffffffffffffffffffffffff\n      mul\n      not\n      and\n      swap1\n      dup4\n      0xffffffffffffffffffffffffffffffffffffffff\n      and\n      mul\n      or\n      swap1\n      sstore\n      pop\n      0x60\n      dup3\n      add\n      mload\n      dup2\n      0x03\n      add\n      swap1\n      dup2\n      tag_106\n      swap2\n      swap1\n      tag_107\n      jump\t// in\n    tag_106:\n      pop\n      swap1\n      pop\n      pop\n        /* \"contracts/Demo4.sol\":2234:2589  {... */\n      pop\n      pop\n        /* \"contracts/Demo4.sol\":2183:2589  function pay(string memory message) public payable {... */\n      pop\n      jump\t// out\n        /* \"contracts/Demo4.sol\":591:614  uint[3][2] public items */\n    tag_45:\n      0x0b\n      dup3\n      0x02\n      dup2\n      lt\n      tag_108\n      jumpi\n      0x00\n      dup1\n      revert\n    tag_108:\n      0x03\n      mul\n      add\n      dup2\n      0x03\n      dup2\n      lt\n      tag_110\n      jumpi\n      0x00\n      dup1\n      revert\n    tag_110:\n      add\n      0x00\n      swap2\n      pop\n      swap2\n      pop\n      pop\n      sload\n      dup2\n      jump\t// out\n        /* \"contracts/Demo4.sol\":861:881  uint[] public items2 */\n    tag_50:\n      0x11\n      dup2\n      dup2\n      sload\n      dup2\n      lt\n      tag_112\n      jumpi\n      0x00\n      dup1\n      revert\n    tag_112:\n      swap1\n      0x00\n      mstore\n      keccak256(0x00, 0x20)\n      add\n      0x00\n      swap2\n      pop\n      swap1\n      pop\n      sload\n      dup2\n      jump\t// out\n        /* \"contracts/Demo4.sol\":888:903  uint public len */\n    tag_54:\n      sload(0x12)\n      dup2\n      jump\t// out\n        /* \"contracts/Demo4.sol\":1701:1787  function firstByte() public view returns(bytes1) {... */\n    tag_58:\n        /* \"contracts/Demo4.sol\":1742:1748  bytes1 */\n      0x00\n        /* \"contracts/Demo4.sol\":1768:1776  myDynVar */\n      0x14\n        /* \"contracts/Demo4.sol\":1777:1778  0 */\n      0x00\n        /* \"contracts/Demo4.sol\":1768:1779  myDynVar[0] */\n      dup2\n      sload\n      tag_115\n      swap1\n      tag_116\n      jump\t// in\n    tag_115:\n      dup2\n      lt\n      tag_117\n      jumpi\n      tag_118\n      tag_119\n      jump\t// in\n    tag_118:\n    tag_117:\n      dup2\n      sload\n      0x01\n      and\n      iszero\n      tag_120\n      jumpi\n      swap1\n      0x00\n      mstore\n      keccak256(0x00, 0x20)\n      swap1\n      0x20\n      swap2\n      dup3\n      dup3\n      div\n      add\n      swap2\n      swap1\n      mod\n    tag_120:\n      swap1\n      sload\n      swap1\n      byte\n      0x0100000000000000000000000000000000000000000000000000000000000000\n      mul\n        /* \"contracts/Demo4.sol\":1761:1779  return myDynVar[0] */\n      swap1\n      pop\n        /* \"contracts/Demo4.sol\":1701:1787  function firstByte() public view returns(bytes1) {... */\n      swap1\n      jump\t// out\n        /* \"contracts/Demo4.sol\":621:832  function fixedSize() public {... */\n    tag_63:\n        /* \"contracts/Demo4.sol\":670:672  24 */\n      0x18\n        /* \"contracts/Demo4.sol\":660:664  test */\n      0x01\n        /* \"contracts/Demo4.sol\":665:666  2 */\n      0x02\n        /* \"contracts/Demo4.sol\":660:667  test[2] */\n      0x0a\n      dup2\n      lt\n      tag_122\n      jumpi\n      tag_123\n      tag_119\n      jump\t// in\n    tag_123:\n    tag_122:\n      add\n        /* \"contracts/Demo4.sol\":660:672  test[2] = 24 */\n      dup2\n      swap1\n      sstore\n      pop\n        /* \"contracts/Demo4.sol\":761:824  items = [... */\n      mload(0x40)\n      dup1\n      0x40\n      add\n      0x40\n      mstore\n      dup1\n      mload(0x40)\n      dup1\n      0x60\n      add\n      0x40\n      mstore\n      dup1\n        /* \"contracts/Demo4.sol\":785:786  3 */\n      0x03\n        /* \"contracts/Demo4.sol\":761:824  items = [... */\n      0xff\n      and\n      dup2\n      mstore\n      0x20\n      add\n        /* \"contracts/Demo4.sol\":787:788  4 */\n      0x04\n        /* \"contracts/Demo4.sol\":761:824  items = [... */\n      0xff\n      and\n      dup2\n      mstore\n      0x20\n      add\n        /* \"contracts/Demo4.sol\":789:790  5 */\n      0x05\n        /* \"contracts/Demo4.sol\":761:824  items = [... */\n      0xff\n      and\n      dup2\n      mstore\n      pop\n      dup2\n      mstore\n      0x20\n      add\n      mload(0x40)\n      dup1\n      0x60\n      add\n      0x40\n      mstore\n      dup1\n        /* \"contracts/Demo4.sol\":807:808  6 */\n      0x06\n        /* \"contracts/Demo4.sol\":761:824  items = [... */\n      0xff\n      and\n      dup2\n      mstore\n      0x20\n      add\n        /* \"contracts/Demo4.sol\":809:810  7 */\n      0x07\n        /* \"contracts/Demo4.sol\":761:824  items = [... */\n      0xff\n      and\n      dup2\n      mstore\n      0x20\n      add\n        /* \"contracts/Demo4.sol\":811:812  8 */\n      0x08\n        /* \"contracts/Demo4.sol\":761:824  items = [... */\n      0xff\n      and\n      dup2\n      mstore\n      pop\n      dup2\n      mstore\n      pop\n        /* \"contracts/Demo4.sol\":761:766  items */\n      0x0b\n        /* \"contracts/Demo4.sol\":761:824  items = [... */\n      swap1\n      0x02\n      tag_125\n      swap3\n      swap2\n      swap1\n      tag_126\n      jump\t// in\n    tag_125:\n      pop\n        /* \"contracts/Demo4.sol\":621:832  function fixedSize() public {... */\n      jump\t// out\n        /* \"contracts/Demo4.sol\":2597:2739  function getPayment(address _addr, uint _index) public view returns(Payment memory) {... */\n    tag_68:\n        /* \"contracts/Demo4.sol\":2665:2679  Payment memory */\n      tag_127\n      tag_128\n      jump\t// in\n    tag_127:\n        /* \"contracts/Demo4.sol\":2699:2707  balances */\n      0x15\n        /* \"contracts/Demo4.sol\":2699:2714  balances[_addr] */\n      0x00\n        /* \"contracts/Demo4.sol\":2708:2713  _addr */\n      dup5\n        /* \"contracts/Demo4.sol\":2699:2714  balances[_addr] */\n      0xffffffffffffffffffffffffffffffffffffffff\n      and\n      0xffffffffffffffffffffffffffffffffffffffff\n      and\n      dup2\n      mstore\n      0x20\n      add\n      swap1\n      dup2\n      mstore\n      0x20\n      add\n      0x00\n      keccak256\n        /* \"contracts/Demo4.sol\":2699:2723  balances[_addr].payments */\n      0x01\n      add\n        /* \"contracts/Demo4.sol\":2699:2731  balances[_addr].payments[_index] */\n      0x00\n        /* \"contracts/Demo4.sol\":2724:2730  _index */\n      dup4\n        /* \"contracts/Demo4.sol\":2699:2731  balances[_addr].payments[_index] */\n      dup2\n      mstore\n      0x20\n      add\n      swap1\n      dup2\n      mstore\n      0x20\n      add\n      0x00\n      keccak256\n        /* \"contracts/Demo4.sol\":2692:2731  return balances[_addr].payments[_index] */\n      mload(0x40)\n      dup1\n      0x80\n      add\n      0x40\n      mstore\n      swap1\n      dup2\n      0x00\n      dup3\n      add\n      sload\n      dup2\n      mstore\n      0x20\n      add\n      0x01\n      dup3\n      add\n      sload\n      dup2\n      mstore\n      0x20\n      add\n      0x02\n      dup3\n      add\n      0x00\n      swap1\n      sload\n      swap1\n      0x0100\n      exp\n      swap1\n      div\n      0xffffffffffffffffffffffffffffffffffffffff\n      and\n      0xffffffffffffffffffffffffffffffffffffffff\n      and\n      0xffffffffffffffffffffffffffffffffffffffff\n      and\n      dup2\n      mstore\n      0x20\n      add\n      0x03\n      dup3\n      add\n      dup1\n      sload\n      tag_130\n      swap1\n      tag_116\n      jump\t// in\n    tag_130:\n      dup1\n      0x1f\n      add\n      0x20\n      dup1\n      swap2\n      div\n      mul\n      0x20\n      add\n      mload(0x40)\n      swap1\n      dup2\n      add\n      0x40\n      mstore\n      dup1\n      swap3\n      swap2\n      swap1\n      dup2\n      dup2\n      mstore\n      0x20\n      add\n      dup3\n      dup1\n      sload\n      tag_131\n      swap1\n      tag_116\n      jump\t// in\n    tag_131:\n      dup1\n      iszero\n      tag_132\n      jumpi\n      dup1\n      0x1f\n      lt\n      tag_133\n      jumpi\n      0x0100\n      dup1\n      dup4\n      sload\n      div\n      mul\n      dup4\n      mstore\n      swap2\n      0x20\n      add\n      swap2\n      jump(tag_132)\n    tag_133:\n      dup3\n      add\n      swap2\n      swap1\n      0x00\n      mstore\n      keccak256(0x00, 0x20)\n      swap1\n    tag_134:\n      dup2\n      sload\n      dup2\n      mstore\n      swap1\n      0x01\n      add\n      swap1\n      0x20\n      add\n      dup1\n      dup4\n      gt\n      tag_134\n      jumpi\n      dup3\n      swap1\n      sub\n      0x1f\n      and\n      dup3\n      add\n      swap2\n    tag_132:\n      pop\n      pop\n      pop\n      pop\n      pop\n      dup2\n      mstore\n      pop\n      pop\n      swap1\n      pop\n        /* \"contracts/Demo4.sol\":2597:2739  function getPayment(address _addr, uint _index) public view returns(Payment memory) {... */\n      swap3\n      swap2\n      pop\n      pop\n      jump\t// out\n        /* \"contracts/Demo4.sol\":1145:1515  function sampleMemory() public view returns(uint[] memory) {... */\n    tag_73:\n        /* \"contracts/Demo4.sol\":1189:1202  uint[] memory */\n      0x60\n        /* \"contracts/Demo4.sol\":1413:1436  uint[] memory tempArray */\n      0x00\n        /* \"contracts/Demo4.sol\":1450:1452  10 */\n      0x0a\n        /* \"contracts/Demo4.sol\":1439:1453  new uint[](10) */\n      0xffffffffffffffff\n      dup2\n      gt\n      iszero\n      tag_136\n      jumpi\n      tag_137\n      tag_138\n      jump\t// in\n    tag_137:\n    tag_136:\n      mload(0x40)\n      swap1\n      dup1\n      dup3\n      mstore\n      dup1\n      0x20\n      mul\n      0x20\n      add\n      dup3\n      add\n      0x40\n      mstore\n      dup1\n      iszero\n      tag_139\n      jumpi\n      dup2\n      0x20\n      add\n      0x20\n      dup3\n      mul\n      dup1\n      calldatasize\n      dup4\n      calldatacopy\n      dup1\n      dup3\n      add\n      swap2\n      pop\n      pop\n      swap1\n      pop\n    tag_139:\n      pop\n        /* \"contracts/Demo4.sol\":1413:1453  uint[] memory tempArray = new uint[](10) */\n      swap1\n      pop\n        /* \"contracts/Demo4.sol\":1479:1480  1 */\n      0x01\n        /* \"contracts/Demo4.sol\":1464:1473  tempArray */\n      dup2\n        /* \"contracts/Demo4.sol\":1474:1475  0 */\n      0x00\n        /* \"contracts/Demo4.sol\":1464:1476  tempArray[0] */\n      dup2\n      mload\n      dup2\n      lt\n      tag_140\n      jumpi\n      tag_141\n      tag_119\n      jump\t// in\n    tag_141:\n    tag_140:\n      0x20\n      mul\n      0x20\n      add\n      add\n        /* \"contracts/Demo4.sol\":1464:1480  tempArray[0] = 1 */\n      dup2\n      dup2\n      mstore\n      pop\n      pop\n        /* \"contracts/Demo4.sol\":1498:1507  tempArray */\n      dup1\n        /* \"contracts/Demo4.sol\":1491:1507  return tempArray */\n      swap2\n      pop\n      pop\n        /* \"contracts/Demo4.sol\":1145:1515  function sampleMemory() public view returns(uint[] memory) {... */\n      swap1\n      jump\t// out\n        /* \"contracts/Demo4.sol\":910:1137  function dynArr() public {... */\n    tag_78:\n        /* \"contracts/Demo4.sol\":1061:1067  items2 */\n      0x11\n        /* \"contracts/Demo4.sol\":1073:1074  4 */\n      0x04\n        /* \"contracts/Demo4.sol\":1061:1075  items2.push(4) */\n      swap1\n      dup1\n      0x01\n      dup2\n      sload\n      add\n      dup1\n      dup3\n      sstore\n      dup1\n      swap2\n      pop\n      pop\n      0x01\n      swap1\n      sub\n      swap1\n      0x00\n      mstore\n      keccak256(0x00, 0x20)\n      add\n      0x00\n      swap1\n      swap2\n      swap1\n      swap2\n      swap1\n      swap2\n      pop\n      sstore\n        /* \"contracts/Demo4.sol\":1086:1092  items2 */\n      0x11\n        /* \"contracts/Demo4.sol\":1098:1099  5 */\n      0x05\n        /* \"contracts/Demo4.sol\":1086:1100  items2.push(5) */\n      swap1\n      dup1\n      0x01\n      dup2\n      sload\n      add\n      dup1\n      dup3\n      sstore\n      dup1\n      swap2\n      pop\n      pop\n      0x01\n      swap1\n      sub\n      swap1\n      0x00\n      mstore\n      keccak256(0x00, 0x20)\n      add\n      0x00\n      swap1\n      swap2\n      swap1\n      swap2\n      swap1\n      swap2\n      pop\n      sstore\n        /* \"contracts/Demo4.sol\":1117:1129  items.length */\n      0x02\n        /* \"contracts/Demo4.sol\":1111:1114  len */\n      0x12\n        /* \"contracts/Demo4.sol\":1111:1129  len = items.length */\n      dup2\n      swap1\n      sstore\n      pop\n        /* \"contracts/Demo4.sol\":910:1137  function dynArr() public {... */\n      jump\t// out\n        /* \"contracts/Demo4.sol\":265:348  function delivered() public {... */\n    tag_81:\n        /* \"contracts/Demo4.sol\":320:336  Status.Delivered */\n      0x01\n        /* \"contracts/Demo4.sol\":304:317  currentStatus */\n      0x00\n      dup1\n        /* \"contracts/Demo4.sol\":304:336  currentStatus = Status.Delivered */\n      0x0100\n      exp\n      dup2\n      sload\n      dup2\n      0xff\n      mul\n      not\n      and\n      swap1\n      dup4\n      0x02\n      dup2\n      gt\n      iszero\n      tag_146\n      jumpi\n      tag_147\n      tag_100\n      jump\t// in\n    tag_147:\n    tag_146:\n      mul\n      or\n      swap1\n      sstore\n      pop\n        /* \"contracts/Demo4.sol\":265:348  function delivered() public {... */\n      jump\t// out\n        /* \"contracts/Demo4.sol\":1542:1576  bytes32 public myVar = \"test here\" */\n    tag_84:\n      sload(0x13)\n      dup2\n      jump\t// out\n        /* \"contracts/Demo4.sol\":148:175  Status public currentStatus */\n    tag_89:\n      0x00\n      dup1\n      sload\n      swap1\n      0x0100\n      exp\n      swap1\n      div\n      0xff\n      and\n      dup2\n      jump\t// out\n        /* \"contracts/Demo4.sol\":1592:1627  bytes public myDynVar = \"test here\" */\n    tag_94:\n      0x14\n      dup1\n      sload\n      tag_148\n      swap1\n      tag_116\n      jump\t// in\n    tag_148:\n      dup1\n      0x1f\n      add\n      0x20\n      dup1\n      swap2\n      div\n      mul\n      0x20\n      add\n      mload(0x40)\n      swap1\n      dup2\n      add\n      0x40\n      mstore\n      dup1\n      swap3\n      swap2\n      swap1\n      dup2\n      dup2\n      mstore\n      0x20\n      add\n      dup3\n      dup1\n      sload\n      tag_149\n      swap1\n      tag_116\n      jump\t// in\n    tag_149:\n      dup1\n      iszero\n      tag_150\n      jumpi\n      dup1\n      0x1f\n      lt\n      tag_151\n      jumpi\n      0x0100\n      dup1\n      dup4\n      sload\n      div\n      mul\n      dup4\n      mstore\n      swap2\n      0x20\n      add\n      swap2\n      jump(tag_150)\n    tag_151:\n      dup3\n      add\n      swap2\n      swap1\n      0x00\n      mstore\n      keccak256(0x00, 0x20)\n      swap1\n    tag_152:\n      dup2\n      sload\n      dup2\n      mstore\n      swap1\n      0x01\n      add\n      swap1\n      0x20\n      add\n      dup1\n      dup4\n      gt\n      tag_152\n      jumpi\n      dup3\n      swap1\n      sub\n      0x1f\n      and\n      dup3\n      add\n      swap2\n    tag_150:\n      pop\n      pop\n      pop\n      pop\n      pop\n      dup2\n      jump\t// out\n    tag_126:\n      dup3\n      mul(0x03, 0x02)\n      dup2\n      add\n      swap3\n      dup3\n      iszero\n      tag_153\n      jumpi\n      swap2\n      0x20\n      mul\n      dup3\n      add\n    tag_154:\n      dup3\n      dup2\n      gt\n      iszero\n      tag_155\n      jumpi\n      dup3\n      mload\n      dup3\n      swap1\n      0x03\n      tag_156\n      swap3\n      swap2\n      swap1\n      tag_157\n      jump\t// in\n    tag_156:\n      pop\n      swap2\n      0x20\n      add\n      swap2\n      swap1\n      0x03\n      add\n      swap1\n      jump(tag_154)\n    tag_155:\n    tag_153:\n      pop\n      swap1\n      pop\n      tag_158\n      swap2\n      swap1\n      tag_159\n      jump\t// in\n    tag_158:\n      pop\n      swap1\n      jump\t// out\n    tag_128:\n      mload(0x40)\n      dup1\n      0x80\n      add\n      0x40\n      mstore\n      dup1\n      0x00\n      dup2\n      mstore\n      0x20\n      add\n      0x00\n      dup2\n      mstore\n      0x20\n      add\n      and(0xffffffffffffffffffffffffffffffffffffffff, 0x00)\n      dup2\n      mstore\n      0x20\n      add\n      0x60\n      dup2\n      mstore\n      pop\n      swap1\n      jump\t// out\n    tag_157:\n      dup3\n      0x03\n      dup2\n      add\n      swap3\n      dup3\n      iszero\n      tag_160\n      jumpi\n      swap2\n      0x20\n      mul\n      dup3\n      add\n    tag_161:\n      dup3\n      dup2\n      gt\n      iszero\n      tag_162\n      jumpi\n      dup3\n      mload\n      dup3\n      swap1\n      0xff\n      and\n      swap1\n      sstore\n      swap2\n      0x20\n      add\n      swap2\n      swap1\n      0x01\n      add\n      swap1\n      jump(tag_161)\n    tag_162:\n    tag_160:\n      pop\n      swap1\n      pop\n      tag_163\n      swap2\n      swap1\n      tag_164\n      jump\t// in\n    tag_163:\n      pop\n      swap1\n      jump\t// out\n    tag_159:\n    tag_165:\n      dup1\n      dup3\n      gt\n      iszero\n      tag_166\n      jumpi\n      0x00\n      dup2\n      dup2\n      tag_167\n      swap2\n      swap1\n      tag_168\n      jump\t// in\n    tag_167:\n      pop\n      0x03\n      add\n      jump(tag_165)\n    tag_166:\n      pop\n      swap1\n      jump\t// out\n    tag_164:\n    tag_169:\n      dup1\n      dup3\n      gt\n      iszero\n      tag_170\n      jumpi\n      0x00\n      dup2\n      0x00\n      swap1\n      sstore\n      pop\n      0x01\n      add\n      jump(tag_169)\n    tag_170:\n      pop\n      swap1\n      jump\t// out\n    tag_168:\n      pop\n      0x00\n      dup2\n      sstore\n      0x01\n      add\n      0x00\n      dup2\n      sstore\n      0x01\n      add\n      0x00\n      swap1\n      sstore\n      jump\t// out\n        /* \"#utility.yul\":7:82   */\n    tag_171:\n        /* \"#utility.yul\":40:46   */\n      0x00\n        /* \"#utility.yul\":73:75   */\n      0x40\n        /* \"#utility.yul\":67:76   */\n      mload\n        /* \"#utility.yul\":57:76   */\n      swap1\n      pop\n        /* \"#utility.yul\":7:82   */\n      swap1\n      jump\t// out\n        /* \"#utility.yul\":88:205   */\n    tag_172:\n        /* \"#utility.yul\":197:198   */\n      0x00\n        /* \"#utility.yul\":194:195   */\n      dup1\n        /* \"#utility.yul\":187:199   */\n      revert\n        /* \"#utility.yul\":211:328   */\n    tag_173:\n        /* \"#utility.yul\":320:321   */\n      0x00\n        /* \"#utility.yul\":317:318   */\n      dup1\n        /* \"#utility.yul\":310:322   */\n      revert\n        /* \"#utility.yul\":334:460   */\n    tag_174:\n        /* \"#utility.yul\":371:378   */\n      0x00\n        /* \"#utility.yul\":411:453   */\n      0xffffffffffffffffffffffffffffffffffffffff\n        /* \"#utility.yul\":404:409   */\n      dup3\n        /* \"#utility.yul\":400:454   */\n      and\n        /* \"#utility.yul\":389:454   */\n      swap1\n      pop\n        /* \"#utility.yul\":334:460   */\n      swap2\n      swap1\n      pop\n      jump\t// out\n        /* \"#utility.yul\":466:562   */\n    tag_175:\n        /* \"#utility.yul\":503:510   */\n      0x00\n        /* \"#utility.yul\":532:556   */\n      tag_238\n        /* \"#utility.yul\":550:555   */\n      dup3\n        /* \"#utility.yul\":532:556   */\n      tag_174\n      jump\t// in\n    tag_238:\n        /* \"#utility.yul\":521:556   */\n      swap1\n      pop\n        /* \"#utility.yul\":466:562   */\n      swap2\n      swap1\n      pop\n      jump\t// out\n        /* \"#utility.yul\":568:690   */\n    tag_176:\n        /* \"#utility.yul\":641:665   */\n      tag_240\n        /* \"#utility.yul\":659:664   */\n      dup2\n        /* \"#utility.yul\":641:665   */\n      tag_175\n      jump\t// in\n    tag_240:\n        /* \"#utility.yul\":634:639   */\n      dup2\n        /* \"#utility.yul\":631:666   */\n      eq\n        /* \"#utility.yul\":621:684   */\n      tag_241\n      jumpi\n        /* \"#utility.yul\":680:681   */\n      0x00\n        /* \"#utility.yul\":677:678   */\n      dup1\n        /* \"#utility.yul\":670:682   */\n      revert\n        /* \"#utility.yul\":621:684   */\n    tag_241:\n        /* \"#utility.yul\":568:690   */\n      pop\n      jump\t// out\n        /* \"#utility.yul\":696:835   */\n    tag_177:\n        /* \"#utility.yul\":742:747   */\n      0x00\n        /* \"#utility.yul\":780:786   */\n      dup2\n        /* \"#utility.yul\":767:787   */\n      calldataload\n        /* \"#utility.yul\":758:787   */\n      swap1\n      pop\n        /* \"#utility.yul\":796:829   */\n      tag_243\n        /* \"#utility.yul\":823:828   */\n      dup2\n        /* \"#utility.yul\":796:829   */\n      tag_176\n      jump\t// in\n    tag_243:\n        /* \"#utility.yul\":696:835   */\n      swap3\n      swap2\n      pop\n      pop\n      jump\t// out\n        /* \"#utility.yul\":841:1170   */\n    tag_24:\n        /* \"#utility.yul\":900:906   */\n      0x00\n        /* \"#utility.yul\":949:951   */\n      0x20\n        /* \"#utility.yul\":937:946   */\n      dup3\n        /* \"#utility.yul\":928:935   */\n      dup5\n        /* \"#utility.yul\":924:947   */\n      sub\n        /* \"#utility.yul\":920:952   */\n      slt\n        /* \"#utility.yul\":917:1036   */\n      iszero\n      tag_245\n      jumpi\n        /* \"#utility.yul\":955:1034   */\n      tag_246\n      tag_172\n      jump\t// in\n    tag_246:\n        /* \"#utility.yul\":917:1036   */\n    tag_245:\n        /* \"#utility.yul\":1075:1076   */\n      0x00\n        /* \"#utility.yul\":1100:1153   */\n      tag_247\n        /* \"#utility.yul\":1145:1152   */\n      dup5\n        /* \"#utility.yul\":1136:1142   */\n      dup3\n        /* \"#utility.yul\":1125:1134   */\n      dup6\n        /* \"#utility.yul\":1121:1143   */\n      add\n        /* \"#utility.yul\":1100:1153   */\n      tag_177\n      jump\t// in\n    tag_247:\n        /* \"#utility.yul\":1090:1153   */\n      swap2\n      pop\n        /* \"#utility.yul\":1046:1163   */\n      pop\n        /* \"#utility.yul\":841:1170   */\n      swap3\n      swap2\n      pop\n      pop\n      jump\t// out\n        /* \"#utility.yul\":1176:1253   */\n    tag_178:\n        /* \"#utility.yul\":1213:1220   */\n      0x00\n        /* \"#utility.yul\":1242:1247   */\n      dup2\n        /* \"#utility.yul\":1231:1247   */\n      swap1\n      pop\n        /* \"#utility.yul\":1176:1253   */\n      swap2\n      swap1\n      pop\n      jump\t// out\n        /* \"#utility.yul\":1259:1377   */\n    tag_179:\n        /* \"#utility.yul\":1346:1370   */\n      tag_250\n        /* \"#utility.yul\":1364:1369   */\n      dup2\n        /* \"#utility.yul\":1346:1370   */\n      tag_178\n      jump\t// in\n    tag_250:\n        /* \"#utility.yul\":1341:1344   */\n      dup3\n        /* \"#utility.yul\":1334:1371   */\n      mstore\n        /* \"#utility.yul\":1259:1377   */\n      pop\n      pop\n      jump\t// out\n        /* \"#utility.yul\":1383:1605   */\n    tag_27:\n        /* \"#utility.yul\":1476:1480   */\n      0x00\n        /* \"#utility.yul\":1514:1516   */\n      0x20\n        /* \"#utility.yul\":1503:1512   */\n      dup3\n        /* \"#utility.yul\":1499:1517   */\n      add\n        /* \"#utility.yul\":1491:1517   */\n      swap1\n      pop\n        /* \"#utility.yul\":1527:1598   */\n      tag_252\n        /* \"#utility.yul\":1595:1596   */\n      0x00\n        /* \"#utility.yul\":1584:1593   */\n      dup4\n        /* \"#utility.yul\":1580:1597   */\n      add\n        /* \"#utility.yul\":1571:1577   */\n      dup5\n        /* \"#utility.yul\":1527:1598   */\n      tag_179\n      jump\t// in\n    tag_252:\n        /* \"#utility.yul\":1383:1605   */\n      swap3\n      swap2\n      pop\n      pop\n      jump\t// out\n        /* \"#utility.yul\":1611:1733   */\n    tag_180:\n        /* \"#utility.yul\":1684:1708   */\n      tag_254\n        /* \"#utility.yul\":1702:1707   */\n      dup2\n        /* \"#utility.yul\":1684:1708   */\n      tag_178\n      jump\t// in\n    tag_254:\n        /* \"#utility.yul\":1677:1682   */\n      dup2\n        /* \"#utility.yul\":1674:1709   */\n      eq\n        /* \"#utility.yul\":1664:1727   */\n      tag_255\n      jumpi\n        /* \"#utility.yul\":1723:1724   */\n      0x00\n        /* \"#utility.yul\":1720:1721   */\n      dup1\n        /* \"#utility.yul\":1713:1725   */\n      revert\n        /* \"#utility.yul\":1664:1727   */\n    tag_255:\n        /* \"#utility.yul\":1611:1733   */\n      pop\n      jump\t// out\n        /* \"#utility.yul\":1739:1878   */\n    tag_181:\n        /* \"#utility.yul\":1785:1790   */\n      0x00\n        /* \"#utility.yul\":1823:1829   */\n      dup2\n        /* \"#utility.yul\":1810:1830   */\n      calldataload\n        /* \"#utility.yul\":1801:1830   */\n      swap1\n      pop\n        /* \"#utility.yul\":1839:1872   */\n      tag_257\n        /* \"#utility.yul\":1866:1871   */\n      dup2\n        /* \"#utility.yul\":1839:1872   */\n      tag_180\n      jump\t// in\n    tag_257:\n        /* \"#utility.yul\":1739:1878   */\n      swap3\n      swap2\n      pop\n      pop\n      jump\t// out\n        /* \"#utility.yul\":1884:2213   */\n    tag_34:\n        /* \"#utility.yul\":1943:1949   */\n      0x00\n        /* \"#utility.yul\":1992:1994   */\n      0x20\n        /* \"#utility.yul\":1980:1989   */\n      dup3\n        /* \"#utility.yul\":1971:1978   */\n      dup5\n        /* \"#utility.yul\":1967:1990   */\n      sub\n        /* \"#utility.yul\":1963:1995   */\n      slt\n        /* \"#utility.yul\":1960:2079   */\n      iszero\n      tag_259\n      jumpi\n        /* \"#utility.yul\":1998:2077   */\n      tag_260\n      tag_172\n      jump\t// in\n    tag_260:\n        /* \"#utility.yul\":1960:2079   */\n    tag_259:\n        /* \"#utility.yul\":2118:2119   */\n      0x00\n        /* \"#utility.yul\":2143:2196   */\n      tag_261\n        /* \"#utility.yul\":2188:2195   */\n      dup5\n        /* \"#utility.yul\":2179:2185   */\n      dup3\n        /* \"#utility.yul\":2168:2177   */\n      dup6\n        /* \"#utility.yul\":2164:2186   */\n      add\n        /* \"#utility.yul\":2143:2196   */\n      tag_181\n      jump\t// in\n    tag_261:\n        /* \"#utility.yul\":2133:2196   */\n      swap2\n      pop\n        /* \"#utility.yul\":2089:2206   */\n      pop\n        /* \"#utility.yul\":1884:2213   */\n      swap3\n      swap2\n      pop\n      pop\n      jump\t// out\n        /* \"#utility.yul\":2219:2336   */\n    tag_182:\n        /* \"#utility.yul\":2328:2329   */\n      0x00\n        /* \"#utility.yul\":2325:2326   */\n      dup1\n        /* \"#utility.yul\":2318:2330   */\n      revert\n        /* \"#utility.yul\":2342:2459   */\n    tag_183:\n        /* \"#utility.yul\":2451:2452   */\n      0x00\n        /* \"#utility.yul\":2448:2449   */\n      dup1\n        /* \"#utility.yul\":2441:2453   */\n      revert\n        /* \"#utility.yul\":2465:2567   */\n    tag_184:\n        /* \"#utility.yul\":2506:2512   */\n      0x00\n        /* \"#utility.yul\":2557:2559   */\n      0x1f\n        /* \"#utility.yul\":2553:2560   */\n      not\n        /* \"#utility.yul\":2548:2550   */\n      0x1f\n        /* \"#utility.yul\":2541:2546   */\n      dup4\n        /* \"#utility.yul\":2537:2551   */\n      add\n        /* \"#utility.yul\":2533:2561   */\n      and\n        /* \"#utility.yul\":2523:2561   */\n      swap1\n      pop\n        /* \"#utility.yul\":2465:2567   */\n      swap2\n      swap1\n      pop\n      jump\t// out\n        /* \"#utility.yul\":2573:2753   */\n    tag_138:\n        /* \"#utility.yul\":2621:2698   */\n      0x4e487b7100000000000000000000000000000000000000000000000000000000\n        /* \"#utility.yul\":2618:2619   */\n      0x00\n        /* \"#utility.yul\":2611:2699   */\n      mstore\n        /* \"#utility.yul\":2718:2722   */\n      0x41\n        /* \"#utility.yul\":2715:2716   */\n      0x04\n        /* \"#utility.yul\":2708:2723   */\n      mstore\n        /* \"#utility.yul\":2742:2746   */\n      0x24\n        /* \"#utility.yul\":2739:2740   */\n      0x00\n        /* \"#utility.yul\":2732:2747   */\n      revert\n        /* \"#utility.yul\":2759:3040   */\n    tag_185:\n        /* \"#utility.yul\":2842:2869   */\n      tag_267\n        /* \"#utility.yul\":2864:2868   */\n      dup3\n        /* \"#utility.yul\":2842:2869   */\n      tag_184\n      jump\t// in\n    tag_267:\n        /* \"#utility.yul\":2834:2840   */\n      dup2\n        /* \"#utility.yul\":2830:2870   */\n      add\n        /* \"#utility.yul\":2972:2978   */\n      dup2\n        /* \"#utility.yul\":2960:2970   */\n      dup2\n        /* \"#utility.yul\":2957:2979   */\n      lt\n        /* \"#utility.yul\":2936:2954   */\n      0xffffffffffffffff\n        /* \"#utility.yul\":2924:2934   */\n      dup3\n        /* \"#utility.yul\":2921:2955   */\n      gt\n        /* \"#utility.yul\":2918:2980   */\n      or\n        /* \"#utility.yul\":2915:3003   */\n      iszero\n      tag_268\n      jumpi\n        /* \"#utility.yul\":2983:3001   */\n      tag_269\n      tag_138\n      jump\t// in\n    tag_269:\n        /* \"#utility.yul\":2915:3003   */\n    tag_268:\n        /* \"#utility.yul\":3023:3033   */\n      dup1\n        /* \"#utility.yul\":3019:3021   */\n      0x40\n        /* \"#utility.yul\":3012:3034   */\n      mstore\n        /* \"#utility.yul\":2802:3040   */\n      pop\n        /* \"#utility.yul\":2759:3040   */\n      pop\n      pop\n      jump\t// out\n        /* \"#utility.yul\":3046:3175   */\n    tag_186:\n        /* \"#utility.yul\":3080:3086   */\n      0x00\n        /* \"#utility.yul\":3107:3127   */\n      tag_271\n      tag_171\n      jump\t// in\n    tag_271:\n        /* \"#utility.yul\":3097:3127   */\n      swap1\n      pop\n        /* \"#utility.yul\":3136:3169   */\n      tag_272\n        /* \"#utility.yul\":3164:3168   */\n      dup3\n        /* \"#utility.yul\":3156:3162   */\n      dup3\n        /* \"#utility.yul\":3136:3169   */\n      tag_185\n      jump\t// in\n    tag_272:\n        /* \"#utility.yul\":3046:3175   */\n      swap2\n      swap1\n      pop\n      jump\t// out\n        /* \"#utility.yul\":3181:3489   */\n    tag_187:\n        /* \"#utility.yul\":3243:3247   */\n      0x00\n        /* \"#utility.yul\":3333:3351   */\n      0xffffffffffffffff\n        /* \"#utility.yul\":3325:3331   */\n      dup3\n        /* \"#utility.yul\":3322:3352   */\n      gt\n        /* \"#utility.yul\":3319:3375   */\n      iszero\n      tag_274\n      jumpi\n        /* \"#utility.yul\":3355:3373   */\n      tag_275\n      tag_138\n      jump\t// in\n    tag_275:\n        /* \"#utility.yul\":3319:3375   */\n    tag_274:\n        /* \"#utility.yul\":3393:3422   */\n      tag_276\n        /* \"#utility.yul\":3415:3421   */\n      dup3\n        /* \"#utility.yul\":3393:3422   */\n      tag_184\n      jump\t// in\n    tag_276:\n        /* \"#utility.yul\":3385:3422   */\n      swap1\n      pop\n        /* \"#utility.yul\":3477:3481   */\n      0x20\n        /* \"#utility.yul\":3471:3475   */\n      dup2\n        /* \"#utility.yul\":3467:3482   */\n      add\n        /* \"#utility.yul\":3459:3482   */\n      swap1\n      pop\n        /* \"#utility.yul\":3181:3489   */\n      swap2\n      swap1\n      pop\n      jump\t// out\n        /* \"#utility.yul\":3495:3641   */\n    tag_188:\n        /* \"#utility.yul\":3592:3598   */\n      dup3\n        /* \"#utility.yul\":3587:3590   */\n      dup2\n        /* \"#utility.yul\":3582:3585   */\n      dup4\n        /* \"#utility.yul\":3569:3599   */\n      calldatacopy\n        /* \"#utility.yul\":3633:3634   */\n      0x00\n        /* \"#utility.yul\":3624:3630   */\n      dup4\n        /* \"#utility.yul\":3619:3622   */\n      dup4\n        /* \"#utility.yul\":3615:3631   */\n      add\n        /* \"#utility.yul\":3608:3635   */\n      mstore\n        /* \"#utility.yul\":3495:3641   */\n      pop\n      pop\n      pop\n      jump\t// out\n        /* \"#utility.yul\":3647:4072   */\n    tag_189:\n        /* \"#utility.yul\":3725:3730   */\n      0x00\n        /* \"#utility.yul\":3750:3816   */\n      tag_279\n        /* \"#utility.yul\":3766:3815   */\n      tag_280\n        /* \"#utility.yul\":3808:3814   */\n      dup5\n        /* \"#utility.yul\":3766:3815   */\n      tag_187\n      jump\t// in\n    tag_280:\n        /* \"#utility.yul\":3750:3816   */\n      tag_186\n      jump\t// in\n    tag_279:\n        /* \"#utility.yul\":3741:3816   */\n      swap1\n      pop\n        /* \"#utility.yul\":3839:3845   */\n      dup3\n        /* \"#utility.yul\":3832:3837   */\n      dup2\n        /* \"#utility.yul\":3825:3846   */\n      mstore\n        /* \"#utility.yul\":3877:3881   */\n      0x20\n        /* \"#utility.yul\":3870:3875   */\n      dup2\n        /* \"#utility.yul\":3866:3882   */\n      add\n        /* \"#utility.yul\":3915:3918   */\n      dup5\n        /* \"#utility.yul\":3906:3912   */\n      dup5\n        /* \"#utility.yul\":3901:3904   */\n      dup5\n        /* \"#utility.yul\":3897:3913   */\n      add\n        /* \"#utility.yul\":3894:3919   */\n      gt\n        /* \"#utility.yul\":3891:4003   */\n      iszero\n      tag_281\n      jumpi\n        /* \"#utility.yul\":3922:4001   */\n      tag_282\n      tag_183\n      jump\t// in\n    tag_282:\n        /* \"#utility.yul\":3891:4003   */\n    tag_281:\n        /* \"#utility.yul\":4012:4066   */\n      tag_283\n        /* \"#utility.yul\":4059:4065   */\n      dup5\n        /* \"#utility.yul\":4054:4057   */\n      dup3\n        /* \"#utility.yul\":4049:4052   */\n      dup6\n        /* \"#utility.yul\":4012:4066   */\n      tag_188\n      jump\t// in\n    tag_283:\n        /* \"#utility.yul\":3731:4072   */\n      pop\n        /* \"#utility.yul\":3647:4072   */\n      swap4\n      swap3\n      pop\n      pop\n      pop\n      jump\t// out\n        /* \"#utility.yul\":4092:4432   */\n    tag_190:\n        /* \"#utility.yul\":4148:4153   */\n      0x00\n        /* \"#utility.yul\":4197:4200   */\n      dup3\n        /* \"#utility.yul\":4190:4194   */\n      0x1f\n        /* \"#utility.yul\":4182:4188   */\n      dup4\n        /* \"#utility.yul\":4178:4195   */\n      add\n        /* \"#utility.yul\":4174:4201   */\n      slt\n        /* \"#utility.yul\":4164:4286   */\n      tag_285\n      jumpi\n        /* \"#utility.yul\":4205:4284   */\n      tag_286\n      tag_182\n      jump\t// in\n    tag_286:\n        /* \"#utility.yul\":4164:4286   */\n    tag_285:\n        /* \"#utility.yul\":4322:4328   */\n      dup2\n        /* \"#utility.yul\":4309:4329   */\n      calldataload\n        /* \"#utility.yul\":4347:4426   */\n      tag_287\n        /* \"#utility.yul\":4422:4425   */\n      dup5\n        /* \"#utility.yul\":4414:4420   */\n      dup3\n        /* \"#utility.yul\":4407:4411   */\n      0x20\n        /* \"#utility.yul\":4399:4405   */\n      dup7\n        /* \"#utility.yul\":4395:4412   */\n      add\n        /* \"#utility.yul\":4347:4426   */\n      tag_189\n      jump\t// in\n    tag_287:\n        /* \"#utility.yul\":4338:4426   */\n      swap2\n      pop\n        /* \"#utility.yul\":4154:4432   */\n      pop\n        /* \"#utility.yul\":4092:4432   */\n      swap3\n      swap2\n      pop\n      pop\n      jump\t// out\n        /* \"#utility.yul\":4438:4947   */\n    tag_39:\n        /* \"#utility.yul\":4507:4513   */\n      0x00\n        /* \"#utility.yul\":4556:4558   */\n      0x20\n        /* \"#utility.yul\":4544:4553   */\n      dup3\n        /* \"#utility.yul\":4535:4542   */\n      dup5\n        /* \"#utility.yul\":4531:4554   */\n      sub\n        /* \"#utility.yul\":4527:4559   */\n      slt\n        /* \"#utility.yul\":4524:4643   */\n      iszero\n      tag_289\n      jumpi\n        /* \"#utility.yul\":4562:4641   */\n      tag_290\n      tag_172\n      jump\t// in\n    tag_290:\n        /* \"#utility.yul\":4524:4643   */\n    tag_289:\n        /* \"#utility.yul\":4710:4711   */\n      0x00\n        /* \"#utility.yul\":4699:4708   */\n      dup3\n        /* \"#utility.yul\":4695:4712   */\n      add\n        /* \"#utility.yul\":4682:4713   */\n      calldataload\n        /* \"#utility.yul\":4740:4758   */\n      0xffffffffffffffff\n        /* \"#utility.yul\":4732:4738   */\n      dup2\n        /* \"#utility.yul\":4729:4759   */\n      gt\n        /* \"#utility.yul\":4726:4843   */\n      iszero\n      tag_291\n      jumpi\n        /* \"#utility.yul\":4762:4841   */\n      tag_292\n      tag_173\n      jump\t// in\n    tag_292:\n        /* \"#utility.yul\":4726:4843   */\n    tag_291:\n        /* \"#utility.yul\":4867:4930   */\n      tag_293\n        /* \"#utility.yul\":4922:4929   */\n      dup5\n        /* \"#utility.yul\":4913:4919   */\n      dup3\n        /* \"#utility.yul\":4902:4911   */\n      dup6\n        /* \"#utility.yul\":4898:4920   */\n      add\n        /* \"#utility.yul\":4867:4930   */\n      tag_190\n      jump\t// in\n    tag_293:\n        /* \"#utility.yul\":4857:4930   */\n      swap2\n      pop\n        /* \"#utility.yul\":4653:4940   */\n      pop\n        /* \"#utility.yul\":4438:4947   */\n      swap3\n      swap2\n      pop\n      pop\n      jump\t// out\n        /* \"#utility.yul\":4953:5427   */\n    tag_44:\n        /* \"#utility.yul\":5021:5027   */\n      0x00\n        /* \"#utility.yul\":5029:5035   */\n      dup1\n        /* \"#utility.yul\":5078:5080   */\n      0x40\n        /* \"#utility.yul\":5066:5075   */\n      dup4\n        /* \"#utility.yul\":5057:5064   */\n      dup6\n        /* \"#utility.yul\":5053:5076   */\n      sub\n        /* \"#utility.yul\":5049:5081   */\n      slt\n        /* \"#utility.yul\":5046:5165   */\n      iszero\n      tag_295\n      jumpi\n        /* \"#utility.yul\":5084:5163   */\n      tag_296\n      tag_172\n      jump\t// in\n    tag_296:\n        /* \"#utility.yul\":5046:5165   */\n    tag_295:\n        /* \"#utility.yul\":5204:5205   */\n      0x00\n        /* \"#utility.yul\":5229:5282   */\n      tag_297\n        /* \"#utility.yul\":5274:5281   */\n      dup6\n        /* \"#utility.yul\":5265:5271   */\n      dup3\n        /* \"#utility.yul\":5254:5263   */\n      dup7\n        /* \"#utility.yul\":5250:5272   */\n      add\n        /* \"#utility.yul\":5229:5282   */\n      tag_181\n      jump\t// in\n    tag_297:\n        /* \"#utility.yul\":5219:5282   */\n      swap3\n      pop\n        /* \"#utility.yul\":5175:5292   */\n      pop\n        /* \"#utility.yul\":5331:5333   */\n      0x20\n        /* \"#utility.yul\":5357:5410   */\n      tag_298\n        /* \"#utility.yul\":5402:5409   */\n      dup6\n        /* \"#utility.yul\":5393:5399   */\n      dup3\n        /* \"#utility.yul\":5382:5391   */\n      dup7\n        /* \"#utility.yul\":5378:5400   */\n      add\n        /* \"#utility.yul\":5357:5410   */\n      tag_181\n      jump\t// in\n    tag_298:\n        /* \"#utility.yul\":5347:5410   */\n      swap2\n      pop\n        /* \"#utility.yul\":5302:5420   */\n      pop\n        /* \"#utility.yul\":4953:5427   */\n      swap3\n      pop\n      swap3\n      swap1\n      pop\n      jump\t// out\n        /* \"#utility.yul\":5433:5582   */\n    tag_191:\n        /* \"#utility.yul\":5469:5476   */\n      0x00\n        /* \"#utility.yul\":5509:5575   */\n      0xff00000000000000000000000000000000000000000000000000000000000000\n        /* \"#utility.yul\":5502:5507   */\n      dup3\n        /* \"#utility.yul\":5498:5576   */\n      and\n        /* \"#utility.yul\":5487:5576   */\n      swap1\n      pop\n        /* \"#utility.yul\":5433:5582   */\n      swap2\n      swap1\n      pop\n      jump\t// out\n        /* \"#utility.yul\":5588:5703   */\n    tag_192:\n        /* \"#utility.yul\":5673:5696   */\n      tag_301\n        /* \"#utility.yul\":5690:5695   */\n      dup2\n        /* \"#utility.yul\":5673:5696   */\n      tag_191\n      jump\t// in\n    tag_301:\n        /* \"#utility.yul\":5668:5671   */\n      dup3\n        /* \"#utility.yul\":5661:5697   */\n      mstore\n        /* \"#utility.yul\":5588:5703   */\n      pop\n      pop\n      jump\t// out\n        /* \"#utility.yul\":5709:5927   */\n    tag_60:\n        /* \"#utility.yul\":5800:5804   */\n      0x00\n        /* \"#utility.yul\":5838:5840   */\n      0x20\n        /* \"#utility.yul\":5827:5836   */\n      dup3\n        /* \"#utility.yul\":5823:5841   */\n      add\n        /* \"#utility.yul\":5815:5841   */\n      swap1\n      pop\n        /* \"#utility.yul\":5851:5920   */\n      tag_303\n        /* \"#utility.yul\":5917:5918   */\n      0x00\n        /* \"#utility.yul\":5906:5915   */\n      dup4\n        /* \"#utility.yul\":5902:5919   */\n      add\n        /* \"#utility.yul\":5893:5899   */\n      dup5\n        /* \"#utility.yul\":5851:5920   */\n      tag_192\n      jump\t// in\n    tag_303:\n        /* \"#utility.yul\":5709:5927   */\n      swap3\n      swap2\n      pop\n      pop\n      jump\t// out\n        /* \"#utility.yul\":5933:6407   */\n    tag_67:\n        /* \"#utility.yul\":6001:6007   */\n      0x00\n        /* \"#utility.yul\":6009:6015   */\n      dup1\n        /* \"#utility.yul\":6058:6060   */\n      0x40\n        /* \"#utility.yul\":6046:6055   */\n      dup4\n        /* \"#utility.yul\":6037:6044   */\n      dup6\n        /* \"#utility.yul\":6033:6056   */\n      sub\n        /* \"#utility.yul\":6029:6061   */\n      slt\n        /* \"#utility.yul\":6026:6145   */\n      iszero\n      tag_305\n      jumpi\n        /* \"#utility.yul\":6064:6143   */\n      tag_306\n      tag_172\n      jump\t// in\n    tag_306:\n        /* \"#utility.yul\":6026:6145   */\n    tag_305:\n        /* \"#utility.yul\":6184:6185   */\n      0x00\n        /* \"#utility.yul\":6209:6262   */\n      tag_307\n        /* \"#utility.yul\":6254:6261   */\n      dup6\n        /* \"#utility.yul\":6245:6251   */\n      dup3\n        /* \"#utility.yul\":6234:6243   */\n      dup7\n        /* \"#utility.yul\":6230:6252   */\n      add\n        /* \"#utility.yul\":6209:6262   */\n      tag_177\n      jump\t// in\n    tag_307:\n        /* \"#utility.yul\":6199:6262   */\n      swap3\n      pop\n        /* \"#utility.yul\":6155:6272   */\n      pop\n        /* \"#utility.yul\":6311:6313   */\n      0x20\n        /* \"#utility.yul\":6337:6390   */\n      tag_308\n        /* \"#utility.yul\":6382:6389   */\n      dup6\n        /* \"#utility.yul\":6373:6379   */\n      dup3\n        /* \"#utility.yul\":6362:6371   */\n      dup7\n        /* \"#utility.yul\":6358:6380   */\n      add\n        /* \"#utility.yul\":6337:6390   */\n      tag_181\n      jump\t// in\n    tag_308:\n        /* \"#utility.yul\":6327:6390   */\n      swap2\n      pop\n        /* \"#utility.yul\":6282:6400   */\n      pop\n        /* \"#utility.yul\":5933:6407   */\n      swap3\n      pop\n      swap3\n      swap1\n      pop\n      jump\t// out\n        /* \"#utility.yul\":6413:6521   */\n    tag_193:\n        /* \"#utility.yul\":6490:6514   */\n      tag_310\n        /* \"#utility.yul\":6508:6513   */\n      dup2\n        /* \"#utility.yul\":6490:6514   */\n      tag_178\n      jump\t// in\n    tag_310:\n        /* \"#utility.yul\":6485:6488   */\n      dup3\n        /* \"#utility.yul\":6478:6515   */\n      mstore\n        /* \"#utility.yul\":6413:6521   */\n      pop\n      pop\n      jump\t// out\n        /* \"#utility.yul\":6527:6635   */\n    tag_194:\n        /* \"#utility.yul\":6604:6628   */\n      tag_312\n        /* \"#utility.yul\":6622:6627   */\n      dup2\n        /* \"#utility.yul\":6604:6628   */\n      tag_175\n      jump\t// in\n    tag_312:\n        /* \"#utility.yul\":6599:6602   */\n      dup3\n        /* \"#utility.yul\":6592:6629   */\n      mstore\n        /* \"#utility.yul\":6527:6635   */\n      pop\n      pop\n      jump\t// out\n        /* \"#utility.yul\":6641:6740   */\n    tag_195:\n        /* \"#utility.yul\":6693:6699   */\n      0x00\n        /* \"#utility.yul\":6727:6732   */\n      dup2\n        /* \"#utility.yul\":6721:6733   */\n      mload\n        /* \"#utility.yul\":6711:6733   */\n      swap1\n      pop\n        /* \"#utility.yul\":6641:6740   */\n      swap2\n      swap1\n      pop\n      jump\t// out\n        /* \"#utility.yul\":6746:6905   */\n    tag_196:\n        /* \"#utility.yul\":6820:6831   */\n      0x00\n        /* \"#utility.yul\":6854:6860   */\n      dup3\n        /* \"#utility.yul\":6849:6852   */\n      dup3\n        /* \"#utility.yul\":6842:6861   */\n      mstore\n        /* \"#utility.yul\":6894:6898   */\n      0x20\n        /* \"#utility.yul\":6889:6892   */\n      dup3\n        /* \"#utility.yul\":6885:6899   */\n      add\n        /* \"#utility.yul\":6870:6899   */\n      swap1\n      pop\n        /* \"#utility.yul\":6746:6905   */\n      swap3\n      swap2\n      pop\n      pop\n      jump\t// out\n        /* \"#utility.yul\":6911:7157   */\n    tag_197:\n        /* \"#utility.yul\":6992:6993   */\n      0x00\n        /* \"#utility.yul\":7002:7115   */\n    tag_316:\n        /* \"#utility.yul\":7016:7022   */\n      dup4\n        /* \"#utility.yul\":7013:7014   */\n      dup2\n        /* \"#utility.yul\":7010:7023   */\n      lt\n        /* \"#utility.yul\":7002:7115   */\n      iszero\n      tag_318\n      jumpi\n        /* \"#utility.yul\":7101:7102   */\n      dup1\n        /* \"#utility.yul\":7096:7099   */\n      dup3\n        /* \"#utility.yul\":7092:7103   */\n      add\n        /* \"#utility.yul\":7086:7104   */\n      mload\n        /* \"#utility.yul\":7082:7083   */\n      dup2\n        /* \"#utility.yul\":7077:7080   */\n      dup5\n        /* \"#utility.yul\":7073:7084   */\n      add\n        /* \"#utility.yul\":7066:7105   */\n      mstore\n        /* \"#utility.yul\":7038:7040   */\n      0x20\n        /* \"#utility.yul\":7035:7036   */\n      dup2\n        /* \"#utility.yul\":7031:7041   */\n      add\n        /* \"#utility.yul\":7026:7041   */\n      swap1\n      pop\n        /* \"#utility.yul\":7002:7115   */\n      jump(tag_316)\n    tag_318:\n        /* \"#utility.yul\":7149:7150   */\n      0x00\n        /* \"#utility.yul\":7140:7146   */\n      dup5\n        /* \"#utility.yul\":7135:7138   */\n      dup5\n        /* \"#utility.yul\":7131:7147   */\n      add\n        /* \"#utility.yul\":7124:7151   */\n      mstore\n        /* \"#utility.yul\":6973:7157   */\n      pop\n        /* \"#utility.yul\":6911:7157   */\n      pop\n      pop\n      pop\n      jump\t// out\n        /* \"#utility.yul\":7163:7520   */\n    tag_198:\n        /* \"#utility.yul\":7241:7244   */\n      0x00\n        /* \"#utility.yul\":7269:7308   */\n      tag_320\n        /* \"#utility.yul\":7302:7307   */\n      dup3\n        /* \"#utility.yul\":7269:7308   */\n      tag_195\n      jump\t// in\n    tag_320:\n        /* \"#utility.yul\":7324:7385   */\n      tag_321\n        /* \"#utility.yul\":7378:7384   */\n      dup2\n        /* \"#utility.yul\":7373:7376   */\n      dup6\n        /* \"#utility.yul\":7324:7385   */\n      tag_196\n      jump\t// in\n    tag_321:\n        /* \"#utility.yul\":7317:7385   */\n      swap4\n      pop\n        /* \"#utility.yul\":7394:7459   */\n      tag_322\n        /* \"#utility.yul\":7452:7458   */\n      dup2\n        /* \"#utility.yul\":7447:7450   */\n      dup6\n        /* \"#utility.yul\":7440:7444   */\n      0x20\n        /* \"#utility.yul\":7433:7438   */\n      dup7\n        /* \"#utility.yul\":7429:7445   */\n      add\n        /* \"#utility.yul\":7394:7459   */\n      tag_197\n      jump\t// in\n    tag_322:\n        /* \"#utility.yul\":7484:7513   */\n      tag_323\n        /* \"#utility.yul\":7506:7512   */\n      dup2\n        /* \"#utility.yul\":7484:7513   */\n      tag_184\n      jump\t// in\n    tag_323:\n        /* \"#utility.yul\":7479:7482   */\n      dup5\n        /* \"#utility.yul\":7475:7514   */\n      add\n        /* \"#utility.yul\":7468:7514   */\n      swap2\n      pop\n        /* \"#utility.yul\":7245:7520   */\n      pop\n        /* \"#utility.yul\":7163:7520   */\n      swap3\n      swap2\n      pop\n      pop\n      jump\t// out\n        /* \"#utility.yul\":7578:8540   */\n    tag_199:\n        /* \"#utility.yul\":7695:7698   */\n      0x00\n        /* \"#utility.yul\":7731:7735   */\n      0x80\n        /* \"#utility.yul\":7726:7729   */\n      dup4\n        /* \"#utility.yul\":7722:7736   */\n      add\n        /* \"#utility.yul\":7820:7824   */\n      0x00\n        /* \"#utility.yul\":7813:7818   */\n      dup4\n        /* \"#utility.yul\":7809:7825   */\n      add\n        /* \"#utility.yul\":7803:7826   */\n      mload\n        /* \"#utility.yul\":7839:7902   */\n      tag_325\n        /* \"#utility.yul\":7896:7900   */\n      0x00\n        /* \"#utility.yul\":7891:7894   */\n      dup7\n        /* \"#utility.yul\":7887:7901   */\n      add\n        /* \"#utility.yul\":7873:7885   */\n      dup3\n        /* \"#utility.yul\":7839:7902   */\n      tag_193\n      jump\t// in\n    tag_325:\n        /* \"#utility.yul\":7746:7912   */\n      pop\n        /* \"#utility.yul\":7999:8003   */\n      0x20\n        /* \"#utility.yul\":7992:7997   */\n      dup4\n        /* \"#utility.yul\":7988:8004   */\n      add\n        /* \"#utility.yul\":7982:8005   */\n      mload\n        /* \"#utility.yul\":8018:8081   */\n      tag_326\n        /* \"#utility.yul\":8075:8079   */\n      0x20\n        /* \"#utility.yul\":8070:8073   */\n      dup7\n        /* \"#utility.yul\":8066:8080   */\n      add\n        /* \"#utility.yul\":8052:8064   */\n      dup3\n        /* \"#utility.yul\":8018:8081   */\n      tag_193\n      jump\t// in\n    tag_326:\n        /* \"#utility.yul\":7922:8091   */\n      pop\n        /* \"#utility.yul\":8173:8177   */\n      0x40\n        /* \"#utility.yul\":8166:8171   */\n      dup4\n        /* \"#utility.yul\":8162:8178   */\n      add\n        /* \"#utility.yul\":8156:8179   */\n      mload\n        /* \"#utility.yul\":8192:8255   */\n      tag_327\n        /* \"#utility.yul\":8249:8253   */\n      0x40\n        /* \"#utility.yul\":8244:8247   */\n      dup7\n        /* \"#utility.yul\":8240:8254   */\n      add\n        /* \"#utility.yul\":8226:8238   */\n      dup3\n        /* \"#utility.yul\":8192:8255   */\n      tag_194\n      jump\t// in\n    tag_327:\n        /* \"#utility.yul\":8101:8265   */\n      pop\n        /* \"#utility.yul\":8350:8354   */\n      0x60\n        /* \"#utility.yul\":8343:8348   */\n      dup4\n        /* \"#utility.yul\":8339:8355   */\n      add\n        /* \"#utility.yul\":8333:8356   */\n      mload\n        /* \"#utility.yul\":8403:8406   */\n      dup5\n        /* \"#utility.yul\":8397:8401   */\n      dup3\n        /* \"#utility.yul\":8393:8407   */\n      sub\n        /* \"#utility.yul\":8386:8390   */\n      0x60\n        /* \"#utility.yul\":8381:8384   */\n      dup7\n        /* \"#utility.yul\":8377:8391   */\n      add\n        /* \"#utility.yul\":8370:8408   */\n      mstore\n        /* \"#utility.yul\":8429:8502   */\n      tag_328\n        /* \"#utility.yul\":8497:8501   */\n      dup3\n        /* \"#utility.yul\":8483:8495   */\n      dup3\n        /* \"#utility.yul\":8429:8502   */\n      tag_198\n      jump\t// in\n    tag_328:\n        /* \"#utility.yul\":8421:8502   */\n      swap2\n      pop\n        /* \"#utility.yul\":8275:8513   */\n      pop\n        /* \"#utility.yul\":8530:8534   */\n      dup1\n        /* \"#utility.yul\":8523:8534   */\n      swap2\n      pop\n        /* \"#utility.yul\":7700:8540   */\n      pop\n        /* \"#utility.yul\":7578:8540   */\n      swap3\n      swap2\n      pop\n      pop\n      jump\t// out\n        /* \"#utility.yul\":8546:8915   */\n    tag_70:\n        /* \"#utility.yul\":8687:8691   */\n      0x00\n        /* \"#utility.yul\":8725:8727   */\n      0x20\n        /* \"#utility.yul\":8714:8723   */\n      dup3\n        /* \"#utility.yul\":8710:8728   */\n      add\n        /* \"#utility.yul\":8702:8728   */\n      swap1\n      pop\n        /* \"#utility.yul\":8774:8783   */\n      dup2\n        /* \"#utility.yul\":8768:8772   */\n      dup2\n        /* \"#utility.yul\":8764:8784   */\n      sub\n        /* \"#utility.yul\":8760:8761   */\n      0x00\n        /* \"#utility.yul\":8749:8758   */\n      dup4\n        /* \"#utility.yul\":8745:8762   */\n      add\n        /* \"#utility.yul\":8738:8785   */\n      mstore\n        /* \"#utility.yul\":8802:8908   */\n      tag_330\n        /* \"#utility.yul\":8903:8907   */\n      dup2\n        /* \"#utility.yul\":8894:8900   */\n      dup5\n        /* \"#utility.yul\":8802:8908   */\n      tag_199\n      jump\t// in\n    tag_330:\n        /* \"#utility.yul\":8794:8908   */\n      swap1\n      pop\n        /* \"#utility.yul\":8546:8915   */\n      swap3\n      swap2\n      pop\n      pop\n      jump\t// out\n        /* \"#utility.yul\":8921:9035   */\n    tag_200:\n        /* \"#utility.yul\":8988:8994   */\n      0x00\n        /* \"#utility.yul\":9022:9027   */\n      dup2\n        /* \"#utility.yul\":9016:9028   */\n      mload\n        /* \"#utility.yul\":9006:9028   */\n      swap1\n      pop\n        /* \"#utility.yul\":8921:9035   */\n      swap2\n      swap1\n      pop\n      jump\t// out\n        /* \"#utility.yul\":9041:9225   */\n    tag_201:\n        /* \"#utility.yul\":9140:9151   */\n      0x00\n        /* \"#utility.yul\":9174:9180   */\n      dup3\n        /* \"#utility.yul\":9169:9172   */\n      dup3\n        /* \"#utility.yul\":9162:9181   */\n      mstore\n        /* \"#utility.yul\":9214:9218   */\n      0x20\n        /* \"#utility.yul\":9209:9212   */\n      dup3\n        /* \"#utility.yul\":9205:9219   */\n      add\n        /* \"#utility.yul\":9190:9219   */\n      swap1\n      pop\n        /* \"#utility.yul\":9041:9225   */\n      swap3\n      swap2\n      pop\n      pop\n      jump\t// out\n        /* \"#utility.yul\":9231:9363   */\n    tag_202:\n        /* \"#utility.yul\":9298:9302   */\n      0x00\n        /* \"#utility.yul\":9321:9324   */\n      dup2\n        /* \"#utility.yul\":9313:9324   */\n      swap1\n      pop\n        /* \"#utility.yul\":9351:9355   */\n      0x20\n        /* \"#utility.yul\":9346:9349   */\n      dup3\n        /* \"#utility.yul\":9342:9356   */\n      add\n        /* \"#utility.yul\":9334:9356   */\n      swap1\n      pop\n        /* \"#utility.yul\":9231:9363   */\n      swap2\n      swap1\n      pop\n      jump\t// out\n        /* \"#utility.yul\":9369:9548   */\n    tag_203:\n        /* \"#utility.yul\":9438:9448   */\n      0x00\n        /* \"#utility.yul\":9459:9505   */\n      tag_335\n        /* \"#utility.yul\":9501:9504   */\n      dup4\n        /* \"#utility.yul\":9493:9499   */\n      dup4\n        /* \"#utility.yul\":9459:9505   */\n      tag_193\n      jump\t// in\n    tag_335:\n        /* \"#utility.yul\":9537:9541   */\n      0x20\n        /* \"#utility.yul\":9532:9535   */\n      dup4\n        /* \"#utility.yul\":9528:9542   */\n      add\n        /* \"#utility.yul\":9514:9542   */\n      swap1\n      pop\n        /* \"#utility.yul\":9369:9548   */\n      swap3\n      swap2\n      pop\n      pop\n      jump\t// out\n        /* \"#utility.yul\":9554:9667   */\n    tag_204:\n        /* \"#utility.yul\":9624:9628   */\n      0x00\n        /* \"#utility.yul\":9656:9660   */\n      0x20\n        /* \"#utility.yul\":9651:9654   */\n      dup3\n        /* \"#utility.yul\":9647:9661   */\n      add\n        /* \"#utility.yul\":9639:9661   */\n      swap1\n      pop\n        /* \"#utility.yul\":9554:9667   */\n      swap2\n      swap1\n      pop\n      jump\t// out\n        /* \"#utility.yul\":9703:10435   */\n    tag_205:\n        /* \"#utility.yul\":9822:9825   */\n      0x00\n        /* \"#utility.yul\":9851:9905   */\n      tag_338\n        /* \"#utility.yul\":9899:9904   */\n      dup3\n        /* \"#utility.yul\":9851:9905   */\n      tag_200\n      jump\t// in\n    tag_338:\n        /* \"#utility.yul\":9921:10007   */\n      tag_339\n        /* \"#utility.yul\":10000:10006   */\n      dup2\n        /* \"#utility.yul\":9995:9998   */\n      dup6\n        /* \"#utility.yul\":9921:10007   */\n      tag_201\n      jump\t// in\n    tag_339:\n        /* \"#utility.yul\":9914:10007   */\n      swap4\n      pop\n        /* \"#utility.yul\":10031:10087   */\n      tag_340\n        /* \"#utility.yul\":10081:10086   */\n      dup4\n        /* \"#utility.yul\":10031:10087   */\n      tag_202\n      jump\t// in\n    tag_340:\n        /* \"#utility.yul\":10110:10117   */\n      dup1\n        /* \"#utility.yul\":10141:10142   */\n      0x00\n        /* \"#utility.yul\":10126:10410   */\n    tag_341:\n        /* \"#utility.yul\":10151:10157   */\n      dup4\n        /* \"#utility.yul\":10148:10149   */\n      dup2\n        /* \"#utility.yul\":10145:10158   */\n      lt\n        /* \"#utility.yul\":10126:10410   */\n      iszero\n      tag_343\n      jumpi\n        /* \"#utility.yul\":10227:10233   */\n      dup2\n        /* \"#utility.yul\":10221:10234   */\n      mload\n        /* \"#utility.yul\":10254:10317   */\n      tag_344\n        /* \"#utility.yul\":10313:10316   */\n      dup9\n        /* \"#utility.yul\":10298:10311   */\n      dup3\n        /* \"#utility.yul\":10254:10317   */\n      tag_203\n      jump\t// in\n    tag_344:\n        /* \"#utility.yul\":10247:10317   */\n      swap8\n      pop\n        /* \"#utility.yul\":10340:10400   */\n      tag_345\n        /* \"#utility.yul\":10393:10399   */\n      dup4\n        /* \"#utility.yul\":10340:10400   */\n      tag_204\n      jump\t// in\n    tag_345:\n        /* \"#utility.yul\":10330:10400   */\n      swap3\n      pop\n        /* \"#utility.yul\":10186:10410   */\n      pop\n        /* \"#utility.yul\":10173:10174   */\n      0x01\n        /* \"#utility.yul\":10170:10171   */\n      dup2\n        /* \"#utility.yul\":10166:10175   */\n      add\n        /* \"#utility.yul\":10161:10175   */\n      swap1\n      pop\n        /* \"#utility.yul\":10126:10410   */\n      jump(tag_341)\n    tag_343:\n        /* \"#utility.yul\":10130:10144   */\n      pop\n        /* \"#utility.yul\":10426:10429   */\n      dup6\n        /* \"#utility.yul\":10419:10429   */\n      swap4\n      pop\n        /* \"#utility.yul\":9827:10435   */\n      pop\n      pop\n      pop\n        /* \"#utility.yul\":9703:10435   */\n      swap3\n      swap2\n      pop\n      pop\n      jump\t// out\n        /* \"#utility.yul\":10441:10814   */\n    tag_75:\n        /* \"#utility.yul\":10584:10588   */\n      0x00\n        /* \"#utility.yul\":10622:10624   */\n      0x20\n        /* \"#utility.yul\":10611:10620   */\n      dup3\n        /* \"#utility.yul\":10607:10625   */\n      add\n        /* \"#utility.yul\":10599:10625   */\n      swap1\n      pop\n        /* \"#utility.yul\":10671:10680   */\n      dup2\n        /* \"#utility.yul\":10665:10669   */\n      dup2\n        /* \"#utility.yul\":10661:10681   */\n      sub\n        /* \"#utility.yul\":10657:10658   */\n      0x00\n        /* \"#utility.yul\":10646:10655   */\n      dup4\n        /* \"#utility.yul\":10642:10659   */\n      add\n        /* \"#utility.yul\":10635:10682   */\n      mstore\n        /* \"#utility.yul\":10699:10807   */\n      tag_347\n        /* \"#utility.yul\":10802:10806   */\n      dup2\n        /* \"#utility.yul\":10793:10799   */\n      dup5\n        /* \"#utility.yul\":10699:10807   */\n      tag_205\n      jump\t// in\n    tag_347:\n        /* \"#utility.yul\":10691:10807   */\n      swap1\n      pop\n        /* \"#utility.yul\":10441:10814   */\n      swap3\n      swap2\n      pop\n      pop\n      jump\t// out\n        /* \"#utility.yul\":10820:10897   */\n    tag_206:\n        /* \"#utility.yul\":10857:10864   */\n      0x00\n        /* \"#utility.yul\":10886:10891   */\n      dup2\n        /* \"#utility.yul\":10875:10891   */\n      swap1\n      pop\n        /* \"#utility.yul\":10820:10897   */\n      swap2\n      swap1\n      pop\n      jump\t// out\n        /* \"#utility.yul\":10903:11021   */\n    tag_207:\n        /* \"#utility.yul\":10990:11014   */\n      tag_350\n        /* \"#utility.yul\":11008:11013   */\n      dup2\n        /* \"#utility.yul\":10990:11014   */\n      tag_206\n      jump\t// in\n    tag_350:\n        /* \"#utility.yul\":10985:10988   */\n      dup3\n        /* \"#utility.yul\":10978:11015   */\n      mstore\n        /* \"#utility.yul\":10903:11021   */\n      pop\n      pop\n      jump\t// out\n        /* \"#utility.yul\":11027:11249   */\n    tag_86:\n        /* \"#utility.yul\":11120:11124   */\n      0x00\n        /* \"#utility.yul\":11158:11160   */\n      0x20\n        /* \"#utility.yul\":11147:11156   */\n      dup3\n        /* \"#utility.yul\":11143:11161   */\n      add\n        /* \"#utility.yul\":11135:11161   */\n      swap1\n      pop\n        /* \"#utility.yul\":11171:11242   */\n      tag_352\n        /* \"#utility.yul\":11239:11240   */\n      0x00\n        /* \"#utility.yul\":11228:11237   */\n      dup4\n        /* \"#utility.yul\":11224:11241   */\n      add\n        /* \"#utility.yul\":11215:11221   */\n      dup5\n        /* \"#utility.yul\":11171:11242   */\n      tag_207\n      jump\t// in\n    tag_352:\n        /* \"#utility.yul\":11027:11249   */\n      swap3\n      swap2\n      pop\n      pop\n      jump\t// out\n        /* \"#utility.yul\":11255:11435   */\n    tag_100:\n        /* \"#utility.yul\":11303:11380   */\n      0x4e487b7100000000000000000000000000000000000000000000000000000000\n        /* \"#utility.yul\":11300:11301   */\n      0x00\n        /* \"#utility.yul\":11293:11381   */\n      mstore\n        /* \"#utility.yul\":11400:11404   */\n      0x21\n        /* \"#utility.yul\":11397:11398   */\n      0x04\n        /* \"#utility.yul\":11390:11405   */\n      mstore\n        /* \"#utility.yul\":11424:11428   */\n      0x24\n        /* \"#utility.yul\":11421:11422   */\n      0x00\n        /* \"#utility.yul\":11414:11429   */\n      revert\n        /* \"#utility.yul\":11441:11554   */\n    tag_208:\n        /* \"#utility.yul\":11522:11523   */\n      0x03\n        /* \"#utility.yul\":11515:11520   */\n      dup2\n        /* \"#utility.yul\":11512:11524   */\n      lt\n        /* \"#utility.yul\":11502:11548   */\n      tag_355\n      jumpi\n        /* \"#utility.yul\":11528:11546   */\n      tag_356\n      tag_100\n      jump\t// in\n    tag_356:\n        /* \"#utility.yul\":11502:11548   */\n    tag_355:\n        /* \"#utility.yul\":11441:11554   */\n      pop\n      jump\t// out\n        /* \"#utility.yul\":11560:11687   */\n    tag_209:\n        /* \"#utility.yul\":11605:11612   */\n      0x00\n        /* \"#utility.yul\":11634:11639   */\n      dup2\n        /* \"#utility.yul\":11623:11639   */\n      swap1\n      pop\n        /* \"#utility.yul\":11640:11681   */\n      tag_358\n        /* \"#utility.yul\":11675:11680   */\n      dup3\n        /* \"#utility.yul\":11640:11681   */\n      tag_208\n      jump\t// in\n    tag_358:\n        /* \"#utility.yul\":11560:11687   */\n      swap2\n      swap1\n      pop\n      jump\t// out\n        /* \"#utility.yul\":11693:11820   */\n    tag_210:\n        /* \"#utility.yul\":11749:11758   */\n      0x00\n        /* \"#utility.yul\":11782:11814   */\n      tag_360\n        /* \"#utility.yul\":11808:11813   */\n      dup3\n        /* \"#utility.yul\":11782:11814   */\n      tag_209\n      jump\t// in\n    tag_360:\n        /* \"#utility.yul\":11769:11814   */\n      swap1\n      pop\n        /* \"#utility.yul\":11693:11820   */\n      swap2\n      swap1\n      pop\n      jump\t// out\n        /* \"#utility.yul\":11826:11969   */\n    tag_211:\n        /* \"#utility.yul\":11919:11962   */\n      tag_362\n        /* \"#utility.yul\":11956:11961   */\n      dup2\n        /* \"#utility.yul\":11919:11962   */\n      tag_210\n      jump\t// in\n    tag_362:\n        /* \"#utility.yul\":11914:11917   */\n      dup3\n        /* \"#utility.yul\":11907:11963   */\n      mstore\n        /* \"#utility.yul\":11826:11969   */\n      pop\n      pop\n      jump\t// out\n        /* \"#utility.yul\":11975:12209   */\n    tag_91:\n        /* \"#utility.yul\":12074:12078   */\n      0x00\n        /* \"#utility.yul\":12112:12114   */\n      0x20\n        /* \"#utility.yul\":12101:12110   */\n      dup3\n        /* \"#utility.yul\":12097:12115   */\n      add\n        /* \"#utility.yul\":12089:12115   */\n      swap1\n      pop\n        /* \"#utility.yul\":12125:12202   */\n      tag_364\n        /* \"#utility.yul\":12199:12200   */\n      0x00\n        /* \"#utility.yul\":12188:12197   */\n      dup4\n        /* \"#utility.yul\":12184:12201   */\n      add\n        /* \"#utility.yul\":12175:12181   */\n      dup5\n        /* \"#utility.yul\":12125:12202   */\n      tag_211\n      jump\t// in\n    tag_364:\n        /* \"#utility.yul\":11975:12209   */\n      swap3\n      swap2\n      pop\n      pop\n      jump\t// out\n        /* \"#utility.yul\":12215:12313   */\n    tag_212:\n        /* \"#utility.yul\":12266:12272   */\n      0x00\n        /* \"#utility.yul\":12300:12305   */\n      dup2\n        /* \"#utility.yul\":12294:12306   */\n      mload\n        /* \"#utility.yul\":12284:12306   */\n      swap1\n      pop\n        /* \"#utility.yul\":12215:12313   */\n      swap2\n      swap1\n      pop\n      jump\t// out\n        /* \"#utility.yul\":12319:12487   */\n    tag_213:\n        /* \"#utility.yul\":12402:12413   */\n      0x00\n        /* \"#utility.yul\":12436:12442   */\n      dup3\n        /* \"#utility.yul\":12431:12434   */\n      dup3\n        /* \"#utility.yul\":12424:12443   */\n      mstore\n        /* \"#utility.yul\":12476:12480   */\n      0x20\n        /* \"#utility.yul\":12471:12474   */\n      dup3\n        /* \"#utility.yul\":12467:12481   */\n      add\n        /* \"#utility.yul\":12452:12481   */\n      swap1\n      pop\n        /* \"#utility.yul\":12319:12487   */\n      swap3\n      swap2\n      pop\n      pop\n      jump\t// out\n        /* \"#utility.yul\":12493:12866   */\n    tag_214:\n        /* \"#utility.yul\":12579:12582   */\n      0x00\n        /* \"#utility.yul\":12607:12645   */\n      tag_368\n        /* \"#utility.yul\":12639:12644   */\n      dup3\n        /* \"#utility.yul\":12607:12645   */\n      tag_212\n      jump\t// in\n    tag_368:\n        /* \"#utility.yul\":12661:12731   */\n      tag_369\n        /* \"#utility.yul\":12724:12730   */\n      dup2\n        /* \"#utility.yul\":12719:12722   */\n      dup6\n        /* \"#utility.yul\":12661:12731   */\n      tag_213\n      jump\t// in\n    tag_369:\n        /* \"#utility.yul\":12654:12731   */\n      swap4\n      pop\n        /* \"#utility.yul\":12740:12805   */\n      tag_370\n        /* \"#utility.yul\":12798:12804   */\n      dup2\n        /* \"#utility.yul\":12793:12796   */\n      dup6\n        /* \"#utility.yul\":12786:12790   */\n      0x20\n        /* \"#utility.yul\":12779:12784   */\n      dup7\n        /* \"#utility.yul\":12775:12791   */\n      add\n        /* \"#utility.yul\":12740:12805   */\n      tag_197\n      jump\t// in\n    tag_370:\n        /* \"#utility.yul\":12830:12859   */\n      tag_371\n        /* \"#utility.yul\":12852:12858   */\n      dup2\n        /* \"#utility.yul\":12830:12859   */\n      tag_184\n      jump\t// in\n    tag_371:\n        /* \"#utility.yul\":12825:12828   */\n      dup5\n        /* \"#utility.yul\":12821:12860   */\n      add\n        /* \"#utility.yul\":12814:12860   */\n      swap2\n      pop\n        /* \"#utility.yul\":12583:12866   */\n      pop\n        /* \"#utility.yul\":12493:12866   */\n      swap3\n      swap2\n      pop\n      pop\n      jump\t// out\n        /* \"#utility.yul\":12872:13181   */\n    tag_96:\n        /* \"#utility.yul\":12983:12987   */\n      0x00\n        /* \"#utility.yul\":13021:13023   */\n      0x20\n        /* \"#utility.yul\":13010:13019   */\n      dup3\n        /* \"#utility.yul\":13006:13024   */\n      add\n        /* \"#utility.yul\":12998:13024   */\n      swap1\n      pop\n        /* \"#utility.yul\":13070:13079   */\n      dup2\n        /* \"#utility.yul\":13064:13068   */\n      dup2\n        /* \"#utility.yul\":13060:13080   */\n      sub\n        /* \"#utility.yul\":13056:13057   */\n      0x00\n        /* \"#utility.yul\":13045:13054   */\n      dup4\n        /* \"#utility.yul\":13041:13058   */\n      add\n        /* \"#utility.yul\":13034:13081   */\n      mstore\n        /* \"#utility.yul\":13098:13174   */\n      tag_373\n        /* \"#utility.yul\":13169:13173   */\n      dup2\n        /* \"#utility.yul\":13160:13166   */\n      dup5\n        /* \"#utility.yul\":13098:13174   */\n      tag_214\n      jump\t// in\n    tag_373:\n        /* \"#utility.yul\":13090:13174   */\n      swap1\n      pop\n        /* \"#utility.yul\":12872:13181   */\n      swap3\n      swap2\n      pop\n      pop\n      jump\t// out\n        /* \"#utility.yul\":13187:13367   */\n    tag_215:\n        /* \"#utility.yul\":13235:13312   */\n      0x4e487b7100000000000000000000000000000000000000000000000000000000\n        /* \"#utility.yul\":13232:13233   */\n      0x00\n        /* \"#utility.yul\":13225:13313   */\n      mstore\n        /* \"#utility.yul\":13332:13336   */\n      0x11\n        /* \"#utility.yul\":13329:13330   */\n      0x04\n        /* \"#utility.yul\":13322:13337   */\n      mstore\n        /* \"#utility.yul\":13356:13360   */\n      0x24\n        /* \"#utility.yul\":13353:13354   */\n      0x00\n        /* \"#utility.yul\":13346:13361   */\n      revert\n        /* \"#utility.yul\":13373:13606   */\n    tag_105:\n        /* \"#utility.yul\":13412:13415   */\n      0x00\n        /* \"#utility.yul\":13435:13459   */\n      tag_376\n        /* \"#utility.yul\":13453:13458   */\n      dup3\n        /* \"#utility.yul\":13435:13459   */\n      tag_178\n      jump\t// in\n    tag_376:\n        /* \"#utility.yul\":13426:13459   */\n      swap2\n      pop\n        /* \"#utility.yul\":13481:13547   */\n      0xffffffffffffffffffffffffffffffffffffffffffffffffffffffffffffffff\n        /* \"#utility.yul\":13474:13479   */\n      dup3\n        /* \"#utility.yul\":13471:13548   */\n      sub\n        /* \"#utility.yul\":13468:13571   */\n      tag_377\n      jumpi\n        /* \"#utility.yul\":13551:13569   */\n      tag_378\n      tag_215\n      jump\t// in\n    tag_378:\n        /* \"#utility.yul\":13468:13571   */\n    tag_377:\n        /* \"#utility.yul\":13598:13599   */\n      0x01\n        /* \"#utility.yul\":13591:13596   */\n      dup3\n        /* \"#utility.yul\":13587:13600   */\n      add\n        /* \"#utility.yul\":13580:13600   */\n      swap1\n      pop\n        /* \"#utility.yul\":13373:13606   */\n      swap2\n      swap1\n      pop\n      jump\t// out\n        /* \"#utility.yul\":13612:13792   */\n    tag_216:\n        /* \"#utility.yul\":13660:13737   */\n      0x4e487b7100000000000000000000000000000000000000000000000000000000\n        /* \"#utility.yul\":13657:13658   */\n      0x00\n        /* \"#utility.yul\":13650:13738   */\n      mstore\n        /* \"#utility.yul\":13757:13761   */\n      0x22\n        /* \"#utility.yul\":13754:13755   */\n      0x04\n        /* \"#utility.yul\":13747:13762   */\n      mstore\n        /* \"#utility.yul\":13781:13785   */\n      0x24\n        /* \"#utility.yul\":13778:13779   */\n      0x00\n        /* \"#utility.yul\":13771:13786   */\n      revert\n        /* \"#utility.yul\":13798:14118   */\n    tag_116:\n        /* \"#utility.yul\":13842:13848   */\n      0x00\n        /* \"#utility.yul\":13879:13880   */\n      0x02\n        /* \"#utility.yul\":13873:13877   */\n      dup3\n        /* \"#utility.yul\":13869:13881   */\n      div\n        /* \"#utility.yul\":13859:13881   */\n      swap1\n      pop\n        /* \"#utility.yul\":13926:13927   */\n      0x01\n        /* \"#utility.yul\":13920:13924   */\n      dup3\n        /* \"#utility.yul\":13916:13928   */\n      and\n        /* \"#utility.yul\":13947:13965   */\n      dup1\n        /* \"#utility.yul\":13937:14018   */\n      tag_381\n      jumpi\n        /* \"#utility.yul\":14003:14007   */\n      0x7f\n        /* \"#utility.yul\":13995:14001   */\n      dup3\n        /* \"#utility.yul\":13991:14008   */\n      and\n        /* \"#utility.yul\":13981:14008   */\n      swap2\n      pop\n        /* \"#utility.yul\":13937:14018   */\n    tag_381:\n        /* \"#utility.yul\":14065:14067   */\n      0x20\n        /* \"#utility.yul\":14057:14063   */\n      dup3\n        /* \"#utility.yul\":14054:14068   */\n      lt\n        /* \"#utility.yul\":14034:14052   */\n      dup2\n        /* \"#utility.yul\":14031:14069   */\n      sub\n        /* \"#utility.yul\":14028:14112   */\n      tag_382\n      jumpi\n        /* \"#utility.yul\":14084:14102   */\n      tag_383\n      tag_216\n      jump\t// in\n    tag_383:\n        /* \"#utility.yul\":14028:14112   */\n    tag_382:\n        /* \"#utility.yul\":13849:14118   */\n      pop\n        /* \"#utility.yul\":13798:14118   */\n      swap2\n      swap1\n      pop\n      jump\t// out\n        /* \"#utility.yul\":14124:14265   */\n    tag_217:\n        /* \"#utility.yul\":14173:14177   */\n      0x00\n        /* \"#utility.yul\":14196:14199   */\n      dup2\n        /* \"#utility.yul\":14188:14199   */\n      swap1\n      pop\n        /* \"#utility.yul\":14219:14222   */\n      dup2\n        /* \"#utility.yul\":14216:14217   */\n      0x00\n        /* \"#utility.yul\":14209:14223   */\n      mstore\n        /* \"#utility.yul\":14253:14257   */\n      0x20\n        /* \"#utility.yul\":14250:14251   */\n      0x00\n        /* \"#utility.yul\":14240:14258   */\n      keccak256\n        /* \"#utility.yul\":14232:14258   */\n      swap1\n      pop\n        /* \"#utility.yul\":14124:14265   */\n      swap2\n      swap1\n      pop\n      jump\t// out\n        /* \"#utility.yul\":14271:14364   */\n    tag_218:\n        /* \"#utility.yul\":14308:14314   */\n      0x00\n        /* \"#utility.yul\":14355:14357   */\n      0x20\n        /* \"#utility.yul\":14350:14352   */\n      0x1f\n        /* \"#utility.yul\":14343:14348   */\n      dup4\n        /* \"#utility.yul\":14339:14353   */\n      add\n        /* \"#utility.yul\":14335:14358   */\n      div\n        /* \"#utility.yul\":14325:14358   */\n      swap1\n      pop\n        /* \"#utility.yul\":14271:14364   */\n      swap2\n      swap1\n      pop\n      jump\t// out\n        /* \"#utility.yul\":14370:14477   */\n    tag_219:\n        /* \"#utility.yul\":14414:14422   */\n      0x00\n        /* \"#utility.yul\":14464:14469   */\n      dup3\n        /* \"#utility.yul\":14458:14462   */\n      dup3\n        /* \"#utility.yul\":14454:14470   */\n      shl\n        /* \"#utility.yul\":14433:14470   */\n      swap1\n      pop\n        /* \"#utility.yul\":14370:14477   */\n      swap3\n      swap2\n      pop\n      pop\n      jump\t// out\n        /* \"#utility.yul\":14483:14876   */\n    tag_220:\n        /* \"#utility.yul\":14552:14558   */\n      0x00\n        /* \"#utility.yul\":14602:14603   */\n      0x08\n        /* \"#utility.yul\":14590:14600   */\n      dup4\n        /* \"#utility.yul\":14586:14604   */\n      mul\n        /* \"#utility.yul\":14625:14722   */\n      tag_388\n        /* \"#utility.yul\":14655:14721   */\n      0xffffffffffffffffffffffffffffffffffffffffffffffffffffffffffffffff\n        /* \"#utility.yul\":14644:14653   */\n      dup3\n        /* \"#utility.yul\":14625:14722   */\n      tag_219\n      jump\t// in\n    tag_388:\n        /* \"#utility.yul\":14743:14782   */\n      tag_389\n        /* \"#utility.yul\":14773:14781   */\n      dup7\n        /* \"#utility.yul\":14762:14771   */\n      dup4\n        /* \"#utility.yul\":14743:14782   */\n      tag_219\n      jump\t// in\n    tag_389:\n        /* \"#utility.yul\":14731:14782   */\n      swap6\n      pop\n        /* \"#utility.yul\":14815:14819   */\n      dup1\n        /* \"#utility.yul\":14811:14820   */\n      not\n        /* \"#utility.yul\":14804:14809   */\n      dup5\n        /* \"#utility.yul\":14800:14821   */\n      and\n        /* \"#utility.yul\":14791:14821   */\n      swap4\n      pop\n        /* \"#utility.yul\":14864:14868   */\n      dup1\n        /* \"#utility.yul\":14854:14862   */\n      dup7\n        /* \"#utility.yul\":14850:14869   */\n      and\n        /* \"#utility.yul\":14843:14848   */\n      dup5\n        /* \"#utility.yul\":14840:14870   */\n      or\n        /* \"#utility.yul\":14830:14870   */\n      swap3\n      pop\n        /* \"#utility.yul\":14559:14876   */\n      pop\n      pop\n        /* \"#utility.yul\":14483:14876   */\n      swap4\n      swap3\n      pop\n      pop\n      pop\n      jump\t// out\n        /* \"#utility.yul\":14882:14942   */\n    tag_221:\n        /* \"#utility.yul\":14910:14913   */\n      0x00\n        /* \"#utility.yul\":14931:14936   */\n      dup2\n        /* \"#utility.yul\":14924:14936   */\n      swap1\n      pop\n        /* \"#utility.yul\":14882:14942   */\n      swap2\n      swap1\n      pop\n      jump\t// out\n        /* \"#utility.yul\":14948:15090   */\n    tag_222:\n        /* \"#utility.yul\":14998:15007   */\n      0x00\n        /* \"#utility.yul\":15031:15084   */\n      tag_392\n        /* \"#utility.yul\":15049:15083   */\n      tag_393\n        /* \"#utility.yul\":15058:15082   */\n      tag_394\n        /* \"#utility.yul\":15076:15081   */\n      dup5\n        /* \"#utility.yul\":15058:15082   */\n      tag_178\n      jump\t// in\n    tag_394:\n        /* \"#utility.yul\":15049:15083   */\n      tag_221\n      jump\t// in\n    tag_393:\n        /* \"#utility.yul\":15031:15084   */\n      tag_178\n      jump\t// in\n    tag_392:\n        /* \"#utility.yul\":15018:15084   */\n      swap1\n      pop\n        /* \"#utility.yul\":14948:15090   */\n      swap2\n      swap1\n      pop\n      jump\t// out\n        /* \"#utility.yul\":15096:15171   */\n    tag_223:\n        /* \"#utility.yul\":15139:15142   */\n      0x00\n        /* \"#utility.yul\":15160:15165   */\n      dup2\n        /* \"#utility.yul\":15153:15165   */\n      swap1\n      pop\n        /* \"#utility.yul\":15096:15171   */\n      swap2\n      swap1\n      pop\n      jump\t// out\n        /* \"#utility.yul\":15177:15446   */\n    tag_224:\n        /* \"#utility.yul\":15287:15326   */\n      tag_397\n        /* \"#utility.yul\":15318:15325   */\n      dup4\n        /* \"#utility.yul\":15287:15326   */\n      tag_222\n      jump\t// in\n    tag_397:\n        /* \"#utility.yul\":15348:15439   */\n      tag_398\n        /* \"#utility.yul\":15397:15438   */\n      tag_399\n        /* \"#utility.yul\":15421:15437   */\n      dup3\n        /* \"#utility.yul\":15397:15438   */\n      tag_223\n      jump\t// in\n    tag_399:\n        /* \"#utility.yul\":15389:15395   */\n      dup5\n        /* \"#utility.yul\":15382:15386   */\n      dup5\n        /* \"#utility.yul\":15376:15387   */\n      sload\n        /* \"#utility.yul\":15348:15439   */\n      tag_220\n      jump\t// in\n    tag_398:\n        /* \"#utility.yul\":15342:15346   */\n      dup3\n        /* \"#utility.yul\":15335:15440   */\n      sstore\n        /* \"#utility.yul\":15253:15446   */\n      pop\n        /* \"#utility.yul\":15177:15446   */\n      pop\n      pop\n      pop\n      jump\t// out\n        /* \"#utility.yul\":15452:15525   */\n    tag_225:\n        /* \"#utility.yul\":15497:15500   */\n      0x00\n        /* \"#utility.yul\":15452:15525   */\n      swap1\n      jump\t// out\n        /* \"#utility.yul\":15531:15720   */\n    tag_226:\n        /* \"#utility.yul\":15608:15640   */\n      tag_402\n      tag_225\n      jump\t// in\n    tag_402:\n        /* \"#utility.yul\":15649:15714   */\n      tag_403\n        /* \"#utility.yul\":15707:15713   */\n      dup2\n        /* \"#utility.yul\":15699:15705   */\n      dup5\n        /* \"#utility.yul\":15693:15697   */\n      dup5\n        /* \"#utility.yul\":15649:15714   */\n      tag_224\n      jump\t// in\n    tag_403:\n        /* \"#utility.yul\":15584:15720   */\n      pop\n        /* \"#utility.yul\":15531:15720   */\n      pop\n      pop\n      jump\t// out\n        /* \"#utility.yul\":15726:15912   */\n    tag_227:\n        /* \"#utility.yul\":15786:15906   */\n    tag_405:\n        /* \"#utility.yul\":15803:15806   */\n      dup2\n        /* \"#utility.yul\":15796:15801   */\n      dup2\n        /* \"#utility.yul\":15793:15807   */\n      lt\n        /* \"#utility.yul\":15786:15906   */\n      iszero\n      tag_407\n      jumpi\n        /* \"#utility.yul\":15857:15896   */\n      tag_408\n        /* \"#utility.yul\":15894:15895   */\n      0x00\n        /* \"#utility.yul\":15887:15892   */\n      dup3\n        /* \"#utility.yul\":15857:15896   */\n      tag_226\n      jump\t// in\n    tag_408:\n        /* \"#utility.yul\":15830:15831   */\n      0x01\n        /* \"#utility.yul\":15823:15828   */\n      dup2\n        /* \"#utility.yul\":15819:15832   */\n      add\n        /* \"#utility.yul\":15810:15832   */\n      swap1\n      pop\n        /* \"#utility.yul\":15786:15906   */\n      jump(tag_405)\n    tag_407:\n        /* \"#utility.yul\":15726:15912   */\n      pop\n      pop\n      jump\t// out\n        /* \"#utility.yul\":15918:16461   */\n    tag_228:\n        /* \"#utility.yul\":16019:16021   */\n      0x1f\n        /* \"#utility.yul\":16014:16017   */\n      dup3\n        /* \"#utility.yul\":16011:16022   */\n      gt\n        /* \"#utility.yul\":16008:16454   */\n      iszero\n      tag_410\n      jumpi\n        /* \"#utility.yul\":16053:16091   */\n      tag_411\n        /* \"#utility.yul\":16085:16090   */\n      dup2\n        /* \"#utility.yul\":16053:16091   */\n      tag_217\n      jump\t// in\n    tag_411:\n        /* \"#utility.yul\":16137:16166   */\n      tag_412\n        /* \"#utility.yul\":16155:16165   */\n      dup5\n        /* \"#utility.yul\":16137:16166   */\n      tag_218\n      jump\t// in\n    tag_412:\n        /* \"#utility.yul\":16127:16135   */\n      dup2\n        /* \"#utility.yul\":16123:16167   */\n      add\n        /* \"#utility.yul\":16320:16322   */\n      0x20\n        /* \"#utility.yul\":16308:16318   */\n      dup6\n        /* \"#utility.yul\":16305:16323   */\n      lt\n        /* \"#utility.yul\":16302:16351   */\n      iszero\n      tag_413\n      jumpi\n        /* \"#utility.yul\":16341:16349   */\n      dup2\n        /* \"#utility.yul\":16326:16349   */\n      swap1\n      pop\n        /* \"#utility.yul\":16302:16351   */\n    tag_413:\n        /* \"#utility.yul\":16364:16444   */\n      tag_414\n        /* \"#utility.yul\":16420:16442   */\n      tag_415\n        /* \"#utility.yul\":16438:16441   */\n      dup6\n        /* \"#utility.yul\":16420:16442   */\n      tag_218\n      jump\t// in\n    tag_415:\n        /* \"#utility.yul\":16410:16418   */\n      dup4\n        /* \"#utility.yul\":16406:16443   */\n      add\n        /* \"#utility.yul\":16393:16404   */\n      dup3\n        /* \"#utility.yul\":16364:16444   */\n      tag_227\n      jump\t// in\n    tag_414:\n        /* \"#utility.yul\":16023:16454   */\n      pop\n      pop\n        /* \"#utility.yul\":16008:16454   */\n    tag_410:\n        /* \"#utility.yul\":15918:16461   */\n      pop\n      pop\n      pop\n      jump\t// out\n        /* \"#utility.yul\":16467:16584   */\n    tag_229:\n        /* \"#utility.yul\":16521:16529   */\n      0x00\n        /* \"#utility.yul\":16571:16576   */\n      dup3\n        /* \"#utility.yul\":16565:16569   */\n      dup3\n        /* \"#utility.yul\":16561:16577   */\n      shr\n        /* \"#utility.yul\":16540:16577   */\n      swap1\n      pop\n        /* \"#utility.yul\":16467:16584   */\n      swap3\n      swap2\n      pop\n      pop\n      jump\t// out\n        /* \"#utility.yul\":16590:16759   */\n    tag_230:\n        /* \"#utility.yul\":16634:16640   */\n      0x00\n        /* \"#utility.yul\":16667:16718   */\n      tag_418\n        /* \"#utility.yul\":16715:16716   */\n      0x00\n        /* \"#utility.yul\":16711:16717   */\n      not\n        /* \"#utility.yul\":16703:16708   */\n      dup5\n        /* \"#utility.yul\":16700:16701   */\n      0x08\n        /* \"#utility.yul\":16696:16709   */\n      mul\n        /* \"#utility.yul\":16667:16718   */\n      tag_229\n      jump\t// in\n    tag_418:\n        /* \"#utility.yul\":16663:16719   */\n      not\n        /* \"#utility.yul\":16748:16752   */\n      dup1\n        /* \"#utility.yul\":16742:16746   */\n      dup4\n        /* \"#utility.yul\":16738:16753   */\n      and\n        /* \"#utility.yul\":16728:16753   */\n      swap2\n      pop\n        /* \"#utility.yul\":16641:16759   */\n      pop\n        /* \"#utility.yul\":16590:16759   */\n      swap3\n      swap2\n      pop\n      pop\n      jump\t// out\n        /* \"#utility.yul\":16764:17059   */\n    tag_231:\n        /* \"#utility.yul\":16840:16844   */\n      0x00\n        /* \"#utility.yul\":16986:17015   */\n      tag_420\n        /* \"#utility.yul\":17011:17014   */\n      dup4\n        /* \"#utility.yul\":17005:17009   */\n      dup4\n        /* \"#utility.yul\":16986:17015   */\n      tag_230\n      jump\t// in\n    tag_420:\n        /* \"#utility.yul\":16978:17015   */\n      swap2\n      pop\n        /* \"#utility.yul\":17048:17051   */\n      dup3\n        /* \"#utility.yul\":17045:17046   */\n      0x02\n        /* \"#utility.yul\":17041:17052   */\n      mul\n        /* \"#utility.yul\":17035:17039   */\n      dup3\n        /* \"#utility.yul\":17032:17053   */\n      or\n        /* \"#utility.yul\":17024:17053   */\n      swap1\n      pop\n        /* \"#utility.yul\":16764:17059   */\n      swap3\n      swap2\n      pop\n      pop\n      jump\t// out\n        /* \"#utility.yul\":17064:18459   */\n    tag_107:\n        /* \"#utility.yul\":17181:17218   */\n      tag_422\n        /* \"#utility.yul\":17214:17217   */\n      dup3\n        /* \"#utility.yul\":17181:17218   */\n      tag_195\n      jump\t// in\n    tag_422:\n        /* \"#utility.yul\":17283:17301   */\n      0xffffffffffffffff\n        /* \"#utility.yul\":17275:17281   */\n      dup2\n        /* \"#utility.yul\":17272:17302   */\n      gt\n        /* \"#utility.yul\":17269:17325   */\n      iszero\n      tag_423\n      jumpi\n        /* \"#utility.yul\":17305:17323   */\n      tag_424\n      tag_138\n      jump\t// in\n    tag_424:\n        /* \"#utility.yul\":17269:17325   */\n    tag_423:\n        /* \"#utility.yul\":17349:17387   */\n      tag_425\n        /* \"#utility.yul\":17381:17385   */\n      dup3\n        /* \"#utility.yul\":17375:17386   */\n      sload\n        /* \"#utility.yul\":17349:17387   */\n      tag_116\n      jump\t// in\n    tag_425:\n        /* \"#utility.yul\":17434:17501   */\n      tag_426\n        /* \"#utility.yul\":17494:17500   */\n      dup3\n        /* \"#utility.yul\":17486:17492   */\n      dup3\n        /* \"#utility.yul\":17480:17484   */\n      dup6\n        /* \"#utility.yul\":17434:17501   */\n      tag_228\n      jump\t// in\n    tag_426:\n        /* \"#utility.yul\":17528:17529   */\n      0x00\n        /* \"#utility.yul\":17552:17556   */\n      0x20\n        /* \"#utility.yul\":17539:17556   */\n      swap1\n      pop\n        /* \"#utility.yul\":17584:17586   */\n      0x1f\n        /* \"#utility.yul\":17576:17582   */\n      dup4\n        /* \"#utility.yul\":17573:17587   */\n      gt\n        /* \"#utility.yul\":17601:17602   */\n      0x01\n        /* \"#utility.yul\":17596:18214   */\n      dup2\n      eq\n      tag_428\n      jumpi\n        /* \"#utility.yul\":18258:18259   */\n      0x00\n        /* \"#utility.yul\":18275:18281   */\n      dup5\n        /* \"#utility.yul\":18272:18349   */\n      iszero\n      tag_429\n      jumpi\n        /* \"#utility.yul\":18324:18333   */\n      dup3\n        /* \"#utility.yul\":18319:18322   */\n      dup8\n        /* \"#utility.yul\":18315:18334   */\n      add\n        /* \"#utility.yul\":18309:18335   */\n      mload\n        /* \"#utility.yul\":18300:18335   */\n      swap1\n      pop\n        /* \"#utility.yul\":18272:18349   */\n    tag_429:\n        /* \"#utility.yul\":18375:18442   */\n      tag_430\n        /* \"#utility.yul\":18435:18441   */\n      dup6\n        /* \"#utility.yul\":18428:18433   */\n      dup3\n        /* \"#utility.yul\":18375:18442   */\n      tag_231\n      jump\t// in\n    tag_430:\n        /* \"#utility.yul\":18369:18373   */\n      dup7\n        /* \"#utility.yul\":18362:18443   */\n      sstore\n        /* \"#utility.yul\":18231:18453   */\n      pop\n        /* \"#utility.yul\":17566:18453   */\n      jump(tag_427)\n        /* \"#utility.yul\":17596:18214   */\n    tag_428:\n        /* \"#utility.yul\":17648:17652   */\n      0x1f\n        /* \"#utility.yul\":17644:17653   */\n      not\n        /* \"#utility.yul\":17636:17642   */\n      dup5\n        /* \"#utility.yul\":17632:17654   */\n      and\n        /* \"#utility.yul\":17682:17719   */\n      tag_431\n        /* \"#utility.yul\":17714:17718   */\n      dup7\n        /* \"#utility.yul\":17682:17719   */\n      tag_217\n      jump\t// in\n    tag_431:\n        /* \"#utility.yul\":17741:17742   */\n      0x00\n        /* \"#utility.yul\":17755:17963   */\n    tag_432:\n        /* \"#utility.yul\":17769:17776   */\n      dup3\n        /* \"#utility.yul\":17766:17767   */\n      dup2\n        /* \"#utility.yul\":17763:17777   */\n      lt\n        /* \"#utility.yul\":17755:17963   */\n      iszero\n      tag_434\n      jumpi\n        /* \"#utility.yul\":17848:17857   */\n      dup5\n        /* \"#utility.yul\":17843:17846   */\n      dup10\n        /* \"#utility.yul\":17839:17858   */\n      add\n        /* \"#utility.yul\":17833:17859   */\n      mload\n        /* \"#utility.yul\":17825:17831   */\n      dup3\n        /* \"#utility.yul\":17818:17860   */\n      sstore\n        /* \"#utility.yul\":17899:17900   */\n      0x01\n        /* \"#utility.yul\":17891:17897   */\n      dup3\n        /* \"#utility.yul\":17887:17901   */\n      add\n        /* \"#utility.yul\":17877:17901   */\n      swap2\n      pop\n        /* \"#utility.yul\":17946:17948   */\n      0x20\n        /* \"#utility.yul\":17935:17944   */\n      dup6\n        /* \"#utility.yul\":17931:17949   */\n      add\n        /* \"#utility.yul\":17918:17949   */\n      swap5\n      pop\n        /* \"#utility.yul\":17792:17796   */\n      0x20\n        /* \"#utility.yul\":17789:17790   */\n      dup2\n        /* \"#utility.yul\":17785:17797   */\n      add\n        /* \"#utility.yul\":17780:17797   */\n      swap1\n      pop\n        /* \"#utility.yul\":17755:17963   */\n      jump(tag_432)\n    tag_434:\n        /* \"#utility.yul\":17991:17997   */\n      dup7\n        /* \"#utility.yul\":17982:17989   */\n      dup4\n        /* \"#utility.yul\":17979:17998   */\n      lt\n        /* \"#utility.yul\":17976:18155   */\n      iszero\n      tag_435\n      jumpi\n        /* \"#utility.yul\":18049:18058   */\n      dup5\n        /* \"#utility.yul\":18044:18047   */\n      dup10\n        /* \"#utility.yul\":18040:18059   */\n      add\n        /* \"#utility.yul\":18034:18060   */\n      mload\n        /* \"#utility.yul\":18092:18140   */\n      tag_436\n        /* \"#utility.yul\":18134:18138   */\n      0x1f\n        /* \"#utility.yul\":18126:18132   */\n      dup10\n        /* \"#utility.yul\":18122:18139   */\n      and\n        /* \"#utility.yul\":18111:18120   */\n      dup3\n        /* \"#utility.yul\":18092:18140   */\n      tag_230\n      jump\t// in\n    tag_436:\n        /* \"#utility.yul\":18084:18090   */\n      dup4\n        /* \"#utility.yul\":18077:18141   */\n      sstore\n        /* \"#utility.yul\":17999:18155   */\n      pop\n        /* \"#utility.yul\":17976:18155   */\n    tag_435:\n        /* \"#utility.yul\":18201:18202   */\n      0x01\n        /* \"#utility.yul\":18197:18198   */\n      0x02\n        /* \"#utility.yul\":18189:18195   */\n      dup9\n        /* \"#utility.yul\":18185:18199   */\n      mul\n        /* \"#utility.yul\":18181:18203   */\n      add\n        /* \"#utility.yul\":18175:18179   */\n      dup9\n        /* \"#utility.yul\":18168:18204   */\n      sstore\n        /* \"#utility.yul\":17603:18214   */\n      pop\n      pop\n      pop\n        /* \"#utility.yul\":17566:18453   */\n    tag_427:\n      pop\n        /* \"#utility.yul\":17156:18459   */\n      pop\n      pop\n      pop\n        /* \"#utility.yul\":17064:18459   */\n      pop\n      pop\n      jump\t// out\n        /* \"#utility.yul\":18465:18645   */\n    tag_119:\n        /* \"#utility.yul\":18513:18590   */\n      0x4e487b7100000000000000000000000000000000000000000000000000000000\n        /* \"#utility.yul\":18510:18511   */\n      0x00\n        /* \"#utility.yul\":18503:18591   */\n      mstore\n        /* \"#utility.yul\":18610:18614   */\n      0x32\n        /* \"#utility.yul\":18607:18608   */\n      0x04\n        /* \"#utility.yul\":18600:18615   */\n      mstore\n        /* \"#utility.yul\":18634:18638   */\n      0x24\n        /* \"#utility.yul\":18631:18632   */\n      0x00\n        /* \"#utility.yul\":18624:18639   */\n      revert\n\n    auxdata: 0xa264697066735822122031896a6ede473cfa3aaf1e77b5b2a6494e3b42c2a2e2d9e4b8ca52c8b4a311b764736f6c63430008120033\n}\n",
				"bytecode": {
					"linkReferences": {},
					"object": "60806040527f74657374206865726500000000000000000000000000000000000000000000006013556040518060400160405280600981526020017f7465737420686572650000000000000000000000000000000000000000000000815250601490816200006e9190620002fd565b503480156200007c57600080fd5b50620003e4565b600081519050919050565b7f4e487b7100000000000000000000000000000000000000000000000000000000600052604160045260246000fd5b7f4e487b7100000000000000000000000000000000000000000000000000000000600052602260045260246000fd5b600060028204905060018216806200010557607f821691505b6020821081036200011b576200011a620000bd565b5b50919050565b60008190508160005260206000209050919050565b60006020601f8301049050919050565b600082821b905092915050565b600060088302620001857fffffffffffffffffffffffffffffffffffffffffffffffffffffffffffffffff8262000146565b62000191868362000146565b95508019841693508086168417925050509392505050565b6000819050919050565b6000819050919050565b6000620001de620001d8620001d284620001a9565b620001b3565b620001a9565b9050919050565b6000819050919050565b620001fa83620001bd565b620002126200020982620001e5565b84845462000153565b825550505050565b600090565b620002296200021a565b62000236818484620001ef565b505050565b5b818110156200025e57620002526000826200021f565b6001810190506200023c565b5050565b601f821115620002ad57620002778162000121565b620002828462000136565b8101602085101562000292578190505b620002aa620002a18562000136565b8301826200023b565b50505b505050565b600082821c905092915050565b6000620002d260001984600802620002b2565b1980831691505092915050565b6000620002ed8383620002bf565b9150826002028217905092915050565b620003088262000083565b67ffffffffffffffff8111156200032457620003236200008e565b5b620003308254620000ec565b6200033d82828562000262565b600060209050601f83116001811462000375576000841562000360578287015190505b6200036c8582620002df565b865550620003dc565b601f198416620003858662000121565b60005b82811015620003af5784890151825560018201915060208501945060208101905062000388565b86831015620003cf5784890151620003cb601f891682620002bf565b8355505b6001600288020188555050505b505050505050565b6115b880620003f46000396000f3fe6080604052600436106100f35760003560e01c8063736172d31161008a578063bbdfbfba11610059578063bbdfbfba1461030b578063c6b9154014610322578063ef8a92351461034d578063ffb1e21014610378576100f3565b8063736172d314610275578063977a767c1461028c578063a34343c9146102c9578063b6c5594c146102f4576100f3565b806331e838dd116100c657806331e838dd146101a5578063503f8cab146101e257806356d88e271461021f578063654c914f1461024a576100f3565b806327e235e3146100f8578063295b4e171461013557806329e99f071461014c5780632b66d72e14610189575b600080fd5b34801561010457600080fd5b5061011f600480360381019061011a9190610baf565b6103a3565b60405161012c9190610bf5565b60405180910390f35b34801561014157600080fd5b5061014a6103c1565b005b34801561015857600080fd5b50610173600480360381019061016e9190610c3c565b6103ed565b6040516101809190610bf5565b60405180910390f35b6101a3600480360381019061019e9190610daf565b610408565b005b3480156101b157600080fd5b506101cc60048036038101906101c79190610df8565b6105af565b6040516101d99190610bf5565b60405180910390f35b3480156101ee57600080fd5b5061020960048036038101906102049190610c3c565b6105dd565b6040516102169190610bf5565b60405180910390f35b34801561022b57600080fd5b50610234610601565b6040516102419190610bf5565b60405180910390f35b34801561025657600080fd5b5061025f610607565b60405161026c9190610e73565b60405180910390f35b34801561028157600080fd5b5061028a610671565b005b34801561029857600080fd5b506102b360048036038101906102ae9190610e8e565b610701565b6040516102c09190610fce565b60405180910390f35b3480156102d557600080fd5b506102de61086b565b6040516102eb919061109f565b60405180910390f35b34801561030057600080fd5b506103096108e4565b005b34801561031757600080fd5b50610320610942565b005b34801561032e57600080fd5b5061033761096e565b60405161034491906110da565b60405180910390f35b34801561035957600080fd5b50610362610974565b60405161036f919061116c565b60405180910390f35b34801561038457600080fd5b5061038d610985565b60405161039a91906111dc565b60405180910390f35b60156020528060005260406000206000915090508060000154905081565b60008060006101000a81548160ff021916908360028111156103e6576103e56110f5565b5b0217905550565b600181600a81106103fd57600080fd5b016000915090505481565b601560003373ffffffffffffffffffffffffffffffffffffffff1673ffffffffffffffffffffffffffffffffffffffff168152602001908152602001600020600001600081548092919061045b9061122d565b91905055506000601560003373ffffffffffffffffffffffffffffffffffffffff1673ffffffffffffffffffffffffffffffffffffffff168152602001908152602001600020600001549050600060405180608001604052803481526020014281526020013373ffffffffffffffffffffffffffffffffffffffff16815260200184815250905080601560003373ffffffffffffffffffffffffffffffffffffffff1673ffffffffffffffffffffffffffffffffffffffff1681526020019081526020016000206001016000848152602001908152602001600020600082015181600001556020820151816001015560408201518160020160006101000a81548173ffffffffffffffffffffffffffffffffffffffff021916908373ffffffffffffffffffffffffffffffffffffffff16021790555060608201518160030190816105a69190611481565b50905050505050565b600b82600281106105bf57600080fd5b6003020181600381106105d157600080fd5b01600091509150505481565b601181815481106105ed57600080fd5b906000526020600020016000915090505481565b60125481565b6000601460008154610618906112a4565b811061062757610626611553565b5b8154600116156106465790600052602060002090602091828204019190065b9054901a7f010000000000000000000000000000000000000000000000000000000000000002905090565b601860016002600a811061068857610687611553565b5b018190555060405180604001604052806040518060600160405280600360ff168152602001600460ff168152602001600560ff1681525081526020016040518060600160405280600660ff168152602001600760ff168152602001600860ff16815250815250600b9060026106fe929190610a13565b50565b610709610a64565b601560008473ffffffffffffffffffffffffffffffffffffffff1673ffffffffffffffffffffffffffffffffffffffff168152602001908152602001600020600101600083815260200190815260200160002060405180608001604052908160008201548152602001600182015481526020016002820160009054906101000a900473ffffffffffffffffffffffffffffffffffffffff1673ffffffffffffffffffffffffffffffffffffffff1673ffffffffffffffffffffffffffffffffffffffff1681526020016003820180546107e1906112a4565b80601f016020809104026020016040519081016040528092919081815260200182805461080d906112a4565b801561085a5780601f1061082f5761010080835404028352916020019161085a565b820191906000526020600020905b81548152906001019060200180831161083d57829003601f168201915b505050505081525050905092915050565b60606000600a67ffffffffffffffff81111561088a57610889610c84565b5b6040519080825280602002602001820160405280156108b85781602001602082028036833780820191505090505b5090506001816000815181106108d1576108d0611553565b5b6020026020010181815250508091505090565b6011600490806001815401808255809150506001900390600052602060002001600090919091909150556011600590806001815401808255809150506001900390600052602060002001600090919091909150556002601281905550565b60016000806101000a81548160ff02191690836002811115610967576109666110f5565b5b0217905550565b60135481565b60008054906101000a900460ff1681565b60148054610992906112a4565b80601f01602080910402602001604051908101604052809291908181526020018280546109be906112a4565b8015610a0b5780601f106109e057610100808354040283529160200191610a0b565b820191906000526020600020905b8154815290600101906020018083116109ee57829003601f168201915b505050505081565b8260026003028101928215610a53579160200282015b82811115610a5257825182906003610a42929190610aa2565b5091602001919060030190610a29565b5b509050610a609190610ae7565b5090565b60405180608001604052806000815260200160008152602001600073ffffffffffffffffffffffffffffffffffffffff168152602001606081525090565b8260038101928215610ad6579160200282015b82811115610ad5578251829060ff16905591602001919060010190610ab5565b5b509050610ae39190610b0b565b5090565b5b80821115610b075760008181610afe9190610b28565b50600301610ae8565b5090565b5b80821115610b24576000816000905550600101610b0c565b5090565b50600081556001016000815560010160009055565b6000604051905090565b600080fd5b600080fd5b600073ffffffffffffffffffffffffffffffffffffffff82169050919050565b6000610b7c82610b51565b9050919050565b610b8c81610b71565b8114610b9757600080fd5b50565b600081359050610ba981610b83565b92915050565b600060208284031215610bc557610bc4610b47565b5b6000610bd384828501610b9a565b91505092915050565b6000819050919050565b610bef81610bdc565b82525050565b6000602082019050610c0a6000830184610be6565b92915050565b610c1981610bdc565b8114610c2457600080fd5b50565b600081359050610c3681610c10565b92915050565b600060208284031215610c5257610c51610b47565b5b6000610c6084828501610c27565b91505092915050565b600080fd5b600080fd5b6000601f19601f8301169050919050565b7f4e487b7100000000000000000000000000000000000000000000000000000000600052604160045260246000fd5b610cbc82610c73565b810181811067ffffffffffffffff82111715610cdb57610cda610c84565b5b80604052505050565b6000610cee610b3d565b9050610cfa8282610cb3565b919050565b600067ffffffffffffffff821115610d1a57610d19610c84565b5b610d2382610c73565b9050602081019050919050565b82818337600083830152505050565b6000610d52610d4d84610cff565b610ce4565b905082815260208101848484011115610d6e57610d6d610c6e565b5b610d79848285610d30565b509392505050565b600082601f830112610d9657610d95610c69565b5b8135610da6848260208601610d3f565b91505092915050565b600060208284031215610dc557610dc4610b47565b5b600082013567ffffffffffffffff811115610de357610de2610b4c565b5b610def84828501610d81565b91505092915050565b60008060408385031215610e0f57610e0e610b47565b5b6000610e1d85828601610c27565b9250506020610e2e85828601610c27565b9150509250929050565b60007fff0000000000000000000000000000000000000000000000000000000000000082169050919050565b610e6d81610e38565b82525050565b6000602082019050610e886000830184610e64565b92915050565b60008060408385031215610ea557610ea4610b47565b5b6000610eb385828601610b9a565b9250506020610ec485828601610c27565b9150509250929050565b610ed781610bdc565b82525050565b610ee681610b71565b82525050565b600081519050919050565b600082825260208201905092915050565b60005b83811015610f26578082015181840152602081019050610f0b565b60008484015250505050565b6000610f3d82610eec565b610f478185610ef7565b9350610f57818560208601610f08565b610f6081610c73565b840191505092915050565b6000608083016000830151610f836000860182610ece565b506020830151610f966020860182610ece565b506040830151610fa96040860182610edd565b5060608301518482036060860152610fc18282610f32565b9150508091505092915050565b60006020820190508181036000830152610fe88184610f6b565b905092915050565b600081519050919050565b600082825260208201905092915050565b6000819050602082019050919050565b60006110288383610ece565b60208301905092915050565b6000602082019050919050565b600061104c82610ff0565b6110568185610ffb565b93506110618361100c565b8060005b83811015611092578151611079888261101c565b975061108483611034565b925050600181019050611065565b5085935050505092915050565b600060208201905081810360008301526110b98184611041565b905092915050565b6000819050919050565b6110d4816110c1565b82525050565b60006020820190506110ef60008301846110cb565b92915050565b7f4e487b7100000000000000000000000000000000000000000000000000000000600052602160045260246000fd5b60038110611135576111346110f5565b5b50565b600081905061114682611124565b919050565b600061115682611138565b9050919050565b6111668161114b565b82525050565b6000602082019050611181600083018461115d565b92915050565b600081519050919050565b600082825260208201905092915050565b60006111ae82611187565b6111b88185611192565b93506111c8818560208601610f08565b6111d181610c73565b840191505092915050565b600060208201905081810360008301526111f681846111a3565b905092915050565b7f4e487b7100000000000000000000000000000000000000000000000000000000600052601160045260246000fd5b600061123882610bdc565b91507fffffffffffffffffffffffffffffffffffffffffffffffffffffffffffffffff820361126a576112696111fe565b5b600182019050919050565b7f4e487b7100000000000000000000000000000000000000000000000000000000600052602260045260246000fd5b600060028204905060018216806112bc57607f821691505b6020821081036112cf576112ce611275565b5b50919050565b60008190508160005260206000209050919050565b60006020601f8301049050919050565b600082821b905092915050565b6000600883026113377fffffffffffffffffffffffffffffffffffffffffffffffffffffffffffffffff826112fa565b61134186836112fa565b95508019841693508086168417925050509392505050565b6000819050919050565b600061137e61137961137484610bdc565b611359565b610bdc565b9050919050565b6000819050919050565b61139883611363565b6113ac6113a482611385565b848454611307565b825550505050565b600090565b6113c16113b4565b6113cc81848461138f565b505050565b5b818110156113f0576113e56000826113b9565b6001810190506113d2565b5050565b601f82111561143557611406816112d5565b61140f846112ea565b8101602085101561141e578190505b61143261142a856112ea565b8301826113d1565b50505b505050565b600082821c905092915050565b60006114586000198460080261143a565b1980831691505092915050565b60006114718383611447565b9150826002028217905092915050565b61148a82610eec565b67ffffffffffffffff8111156114a3576114a2610c84565b5b6114ad82546112a4565b6114b88282856113f4565b600060209050601f8311600181146114eb57600084156114d9578287015190505b6114e38582611465565b86555061154b565b601f1984166114f9866112d5565b60005b82811015611521578489015182556001820191506020850194506020810190506114fc565b8683101561153e578489015161153a601f891682611447565b8355505b6001600288020188555050505b505050505050565b7f4e487b7100000000000000000000000000000000000000000000000000000000600052603260045260246000fdfea264697066735822122031896a6ede473cfa3aaf1e77b5b2a6494e3b42c2a2e2d9e4b8ca52c8b4a311b764736f6c63430008120033",
					"opcodes": "PUSH1 0x80 PUSH1 0x40 MSTORE PUSH32 0x7465737420686572650000000000000000000000000000000000000000000000 PUSH1 0x13 SSTORE PUSH1 0x40 MLOAD DUP1 PUSH1 0x40 ADD PUSH1 0x40 MSTORE DUP1 PUSH1 0x9 DUP2 MSTORE PUSH1 0x20 ADD PUSH32 0x7465737420686572650000000000000000000000000000000000000000000000 DUP2 MSTORE POP PUSH1 0x14 SWAP1 DUP2 PUSH3 0x6E SWAP2 SWAP1 PUSH3 0x2FD JUMP JUMPDEST POP CALLVALUE DUP1 ISZERO PUSH3 0x7C JUMPI PUSH1 0x0 DUP1 REVERT JUMPDEST POP PUSH3 0x3E4 JUMP JUMPDEST PUSH1 0x0 DUP2 MLOAD SWAP1 POP SWAP2 SWAP1 POP JUMP JUMPDEST PUSH32 0x4E487B7100000000000000000000000000000000000000000000000000000000 PUSH1 0x0 MSTORE PUSH1 0x41 PUSH1 0x4 MSTORE PUSH1 0x24 PUSH1 0x0 REVERT JUMPDEST PUSH32 0x4E487B7100000000000000000000000000000000000000000000000000000000 PUSH1 0x0 MSTORE PUSH1 0x22 PUSH1 0x4 MSTORE PUSH1 0x24 PUSH1 0x0 REVERT JUMPDEST PUSH1 0x0 PUSH1 0x2 DUP3 DIV SWAP1 POP PUSH1 0x1 DUP3 AND DUP1 PUSH3 0x105 JUMPI PUSH1 0x7F DUP3 AND SWAP2 POP JUMPDEST PUSH1 0x20 DUP3 LT DUP2 SUB PUSH3 0x11B JUMPI PUSH3 0x11A PUSH3 0xBD JUMP JUMPDEST JUMPDEST POP SWAP2 SWAP1 POP JUMP JUMPDEST PUSH1 0x0 DUP2 SWAP1 POP DUP2 PUSH1 0x0 MSTORE PUSH1 0x20 PUSH1 0x0 KECCAK256 SWAP1 POP SWAP2 SWAP1 POP JUMP JUMPDEST PUSH1 0x0 PUSH1 0x20 PUSH1 0x1F DUP4 ADD DIV SWAP1 POP SWAP2 SWAP1 POP JUMP JUMPDEST PUSH1 0x0 DUP3 DUP3 SHL SWAP1 POP SWAP3 SWAP2 POP POP JUMP JUMPDEST PUSH1 0x0 PUSH1 0x8 DUP4 MUL PUSH3 0x185 PUSH32 0xFFFFFFFFFFFFFFFFFFFFFFFFFFFFFFFFFFFFFFFFFFFFFFFFFFFFFFFFFFFFFFFF DUP3 PUSH3 0x146 JUMP JUMPDEST PUSH3 0x191 DUP7 DUP4 PUSH3 0x146 JUMP JUMPDEST SWAP6 POP DUP1 NOT DUP5 AND SWAP4 POP DUP1 DUP7 AND DUP5 OR SWAP3 POP POP POP SWAP4 SWAP3 POP POP POP JUMP JUMPDEST PUSH1 0x0 DUP2 SWAP1 POP SWAP2 SWAP1 POP JUMP JUMPDEST PUSH1 0x0 DUP2 SWAP1 POP SWAP2 SWAP1 POP JUMP JUMPDEST PUSH1 0x0 PUSH3 0x1DE PUSH3 0x1D8 PUSH3 0x1D2 DUP5 PUSH3 0x1A9 JUMP JUMPDEST PUSH3 0x1B3 JUMP JUMPDEST PUSH3 0x1A9 JUMP JUMPDEST SWAP1 POP SWAP2 SWAP1 POP JUMP JUMPDEST PUSH1 0x0 DUP2 SWAP1 POP SWAP2 SWAP1 POP JUMP JUMPDEST PUSH3 0x1FA DUP4 PUSH3 0x1BD JUMP JUMPDEST PUSH3 0x212 PUSH3 0x209 DUP3 PUSH3 0x1E5 JUMP JUMPDEST DUP5 DUP5 SLOAD PUSH3 0x153 JUMP JUMPDEST DUP3 SSTORE POP POP POP POP JUMP JUMPDEST PUSH1 0x0 SWAP1 JUMP JUMPDEST PUSH3 0x229 PUSH3 0x21A JUMP JUMPDEST PUSH3 0x236 DUP2 DUP5 DUP5 PUSH3 0x1EF JUMP JUMPDEST POP POP POP JUMP JUMPDEST JUMPDEST DUP2 DUP2 LT ISZERO PUSH3 0x25E JUMPI PUSH3 0x252 PUSH1 0x0 DUP3 PUSH3 0x21F JUMP JUMPDEST PUSH1 0x1 DUP2 ADD SWAP1 POP PUSH3 0x23C JUMP JUMPDEST POP POP JUMP JUMPDEST PUSH1 0x1F DUP3 GT ISZERO PUSH3 0x2AD JUMPI PUSH3 0x277 DUP2 PUSH3 0x121 JUMP JUMPDEST PUSH3 0x282 DUP5 PUSH3 0x136 JUMP JUMPDEST DUP2 ADD PUSH1 0x20 DUP6 LT ISZERO PUSH3 0x292 JUMPI DUP2 SWAP1 POP JUMPDEST PUSH3 0x2AA PUSH3 0x2A1 DUP6 PUSH3 0x136 JUMP JUMPDEST DUP4 ADD DUP3 PUSH3 0x23B JUMP JUMPDEST POP POP JUMPDEST POP POP POP JUMP JUMPDEST PUSH1 0x0 DUP3 DUP3 SHR SWAP1 POP SWAP3 SWAP2 POP POP JUMP JUMPDEST PUSH1 0x0 PUSH3 0x2D2 PUSH1 0x0 NOT DUP5 PUSH1 0x8 MUL PUSH3 0x2B2 JUMP JUMPDEST NOT DUP1 DUP4 AND SWAP2 POP POP SWAP3 SWAP2 POP POP JUMP JUMPDEST PUSH1 0x0 PUSH3 0x2ED DUP4 DUP4 PUSH3 0x2BF JUMP JUMPDEST SWAP2 POP DUP3 PUSH1 0x2 MUL DUP3 OR SWAP1 POP SWAP3 SWAP2 POP POP JUMP JUMPDEST PUSH3 0x308 DUP3 PUSH3 0x83 JUMP JUMPDEST PUSH8 0xFFFFFFFFFFFFFFFF DUP2 GT ISZERO PUSH3 0x324 JUMPI PUSH3 0x323 PUSH3 0x8E JUMP JUMPDEST JUMPDEST PUSH3 0x330 DUP3 SLOAD PUSH3 0xEC JUMP JUMPDEST PUSH3 0x33D DUP3 DUP3 DUP6 PUSH3 0x262 JUMP JUMPDEST PUSH1 0x0 PUSH1 0x20 SWAP1 POP PUSH1 0x1F DUP4 GT PUSH1 0x1 DUP2 EQ PUSH3 0x375 JUMPI PUSH1 0x0 DUP5 ISZERO PUSH3 0x360 JUMPI DUP3 DUP8 ADD MLOAD SWAP1 POP JUMPDEST PUSH3 0x36C DUP6 DUP3 PUSH3 0x2DF JUMP JUMPDEST DUP7 SSTORE POP PUSH3 0x3DC JUMP JUMPDEST PUSH1 0x1F NOT DUP5 AND PUSH3 0x385 DUP7 PUSH3 0x121 JUMP JUMPDEST PUSH1 0x0 JUMPDEST DUP3 DUP2 LT ISZERO PUSH3 0x3AF JUMPI DUP5 DUP10 ADD MLOAD DUP3 SSTORE PUSH1 0x1 DUP3 ADD SWAP2 POP PUSH1 0x20 DUP6 ADD SWAP5 POP PUSH1 0x20 DUP2 ADD SWAP1 POP PUSH3 0x388 JUMP JUMPDEST DUP7 DUP4 LT ISZERO PUSH3 0x3CF JUMPI DUP5 DUP10 ADD MLOAD PUSH3 0x3CB PUSH1 0x1F DUP10 AND DUP3 PUSH3 0x2BF JUMP JUMPDEST DUP4 SSTORE POP JUMPDEST PUSH1 0x1 PUSH1 0x2 DUP9 MUL ADD DUP9 SSTORE POP POP POP JUMPDEST POP POP POP POP POP POP JUMP JUMPDEST PUSH2 0x15B8 DUP1 PUSH3 0x3F4 PUSH1 0x0 CODECOPY PUSH1 0x0 RETURN INVALID PUSH1 0x80 PUSH1 0x40 MSTORE PUSH1 0x4 CALLDATASIZE LT PUSH2 0xF3 JUMPI PUSH1 0x0 CALLDATALOAD PUSH1 0xE0 SHR DUP1 PUSH4 0x736172D3 GT PUSH2 0x8A JUMPI DUP1 PUSH4 0xBBDFBFBA GT PUSH2 0x59 JUMPI DUP1 PUSH4 0xBBDFBFBA EQ PUSH2 0x30B JUMPI DUP1 PUSH4 0xC6B91540 EQ PUSH2 0x322 JUMPI DUP1 PUSH4 0xEF8A9235 EQ PUSH2 0x34D JUMPI DUP1 PUSH4 0xFFB1E210 EQ PUSH2 0x378 JUMPI PUSH2 0xF3 JUMP JUMPDEST DUP1 PUSH4 0x736172D3 EQ PUSH2 0x275 JUMPI DUP1 PUSH4 0x977A767C EQ PUSH2 0x28C JUMPI DUP1 PUSH4 0xA34343C9 EQ PUSH2 0x2C9 JUMPI DUP1 PUSH4 0xB6C5594C EQ PUSH2 0x2F4 JUMPI PUSH2 0xF3 JUMP JUMPDEST DUP1 PUSH4 0x31E838DD GT PUSH2 0xC6 JUMPI DUP1 PUSH4 0x31E838DD EQ PUSH2 0x1A5 JUMPI DUP1 PUSH4 0x503F8CAB EQ PUSH2 0x1E2 JUMPI DUP1 PUSH4 0x56D88E27 EQ PUSH2 0x21F JUMPI DUP1 PUSH4 0x654C914F EQ PUSH2 0x24A JUMPI PUSH2 0xF3 JUMP JUMPDEST DUP1 PUSH4 0x27E235E3 EQ PUSH2 0xF8 JUMPI DUP1 PUSH4 0x295B4E17 EQ PUSH2 0x135 JUMPI DUP1 PUSH4 0x29E99F07 EQ PUSH2 0x14C JUMPI DUP1 PUSH4 0x2B66D72E EQ PUSH2 0x189 JUMPI JUMPDEST PUSH1 0x0 DUP1 REVERT JUMPDEST CALLVALUE DUP1 ISZERO PUSH2 0x104 JUMPI PUSH1 0x0 DUP1 REVERT JUMPDEST POP PUSH2 0x11F PUSH1 0x4 DUP1 CALLDATASIZE SUB DUP2 ADD SWAP1 PUSH2 0x11A SWAP2 SWAP1 PUSH2 0xBAF JUMP JUMPDEST PUSH2 0x3A3 JUMP JUMPDEST PUSH1 0x40 MLOAD PUSH2 0x12C SWAP2 SWAP1 PUSH2 0xBF5 JUMP JUMPDEST PUSH1 0x40 MLOAD DUP1 SWAP2 SUB SWAP1 RETURN JUMPDEST CALLVALUE DUP1 ISZERO PUSH2 0x141 JUMPI PUSH1 0x0 DUP1 REVERT JUMPDEST POP PUSH2 0x14A PUSH2 0x3C1 JUMP JUMPDEST STOP JUMPDEST CALLVALUE DUP1 ISZERO PUSH2 0x158 JUMPI PUSH1 0x0 DUP1 REVERT JUMPDEST POP PUSH2 0x173 PUSH1 0x4 DUP1 CALLDATASIZE SUB DUP2 ADD SWAP1 PUSH2 0x16E SWAP2 SWAP1 PUSH2 0xC3C JUMP JUMPDEST PUSH2 0x3ED JUMP JUMPDEST PUSH1 0x40 MLOAD PUSH2 0x180 SWAP2 SWAP1 PUSH2 0xBF5 JUMP JUMPDEST PUSH1 0x40 MLOAD DUP1 SWAP2 SUB SWAP1 RETURN JUMPDEST PUSH2 0x1A3 PUSH1 0x4 DUP1 CALLDATASIZE SUB DUP2 ADD SWAP1 PUSH2 0x19E SWAP2 SWAP1 PUSH2 0xDAF JUMP JUMPDEST PUSH2 0x408 JUMP JUMPDEST STOP JUMPDEST CALLVALUE DUP1 ISZERO PUSH2 0x1B1 JUMPI PUSH1 0x0 DUP1 REVERT JUMPDEST POP PUSH2 0x1CC PUSH1 0x4 DUP1 CALLDATASIZE SUB DUP2 ADD SWAP1 PUSH2 0x1C7 SWAP2 SWAP1 PUSH2 0xDF8 JUMP JUMPDEST PUSH2 0x5AF JUMP JUMPDEST PUSH1 0x40 MLOAD PUSH2 0x1D9 SWAP2 SWAP1 PUSH2 0xBF5 JUMP JUMPDEST PUSH1 0x40 MLOAD DUP1 SWAP2 SUB SWAP1 RETURN JUMPDEST CALLVALUE DUP1 ISZERO PUSH2 0x1EE JUMPI PUSH1 0x0 DUP1 REVERT JUMPDEST POP PUSH2 0x209 PUSH1 0x4 DUP1 CALLDATASIZE SUB DUP2 ADD SWAP1 PUSH2 0x204 SWAP2 SWAP1 PUSH2 0xC3C JUMP JUMPDEST PUSH2 0x5DD JUMP JUMPDEST PUSH1 0x40 MLOAD PUSH2 0x216 SWAP2 SWAP1 PUSH2 0xBF5 JUMP JUMPDEST PUSH1 0x40 MLOAD DUP1 SWAP2 SUB SWAP1 RETURN JUMPDEST CALLVALUE DUP1 ISZERO PUSH2 0x22B JUMPI PUSH1 0x0 DUP1 REVERT JUMPDEST POP PUSH2 0x234 PUSH2 0x601 JUMP JUMPDEST PUSH1 0x40 MLOAD PUSH2 0x241 SWAP2 SWAP1 PUSH2 0xBF5 JUMP JUMPDEST PUSH1 0x40 MLOAD DUP1 SWAP2 SUB SWAP1 RETURN JUMPDEST CALLVALUE DUP1 ISZERO PUSH2 0x256 JUMPI PUSH1 0x0 DUP1 REVERT JUMPDEST POP PUSH2 0x25F PUSH2 0x607 JUMP JUMPDEST PUSH1 0x40 MLOAD PUSH2 0x26C SWAP2 SWAP1 PUSH2 0xE73 JUMP JUMPDEST PUSH1 0x40 MLOAD DUP1 SWAP2 SUB SWAP1 RETURN JUMPDEST CALLVALUE DUP1 ISZERO PUSH2 0x281 JUMPI PUSH1 0x0 DUP1 REVERT JUMPDEST POP PUSH2 0x28A PUSH2 0x671 JUMP JUMPDEST STOP JUMPDEST CALLVALUE DUP1 ISZERO PUSH2 0x298 JUMPI PUSH1 0x0 DUP1 REVERT JUMPDEST POP PUSH2 0x2B3 PUSH1 0x4 DUP1 CALLDATASIZE SUB DUP2 ADD SWAP1 PUSH2 0x2AE SWAP2 SWAP1 PUSH2 0xE8E JUMP JUMPDEST PUSH2 0x701 JUMP JUMPDEST PUSH1 0x40 MLOAD PUSH2 0x2C0 SWAP2 SWAP1 PUSH2 0xFCE JUMP JUMPDEST PUSH1 0x40 MLOAD DUP1 SWAP2 SUB SWAP1 RETURN JUMPDEST CALLVALUE DUP1 ISZERO PUSH2 0x2D5 JUMPI PUSH1 0x0 DUP1 REVERT JUMPDEST POP PUSH2 0x2DE PUSH2 0x86B JUMP JUMPDEST PUSH1 0x40 MLOAD PUSH2 0x2EB SWAP2 SWAP1 PUSH2 0x109F JUMP JUMPDEST PUSH1 0x40 MLOAD DUP1 SWAP2 SUB SWAP1 RETURN JUMPDEST CALLVALUE DUP1 ISZERO PUSH2 0x300 JUMPI PUSH1 0x0 DUP1 REVERT JUMPDEST POP PUSH2 0x309 PUSH2 0x8E4 JUMP JUMPDEST STOP JUMPDEST CALLVALUE DUP1 ISZERO PUSH2 0x317 JUMPI PUSH1 0x0 DUP1 REVERT JUMPDEST POP PUSH2 0x320 PUSH2 0x942 JUMP JUMPDEST STOP JUMPDEST CALLVALUE DUP1 ISZERO PUSH2 0x32E JUMPI PUSH1 0x0 DUP1 REVERT JUMPDEST POP PUSH2 0x337 PUSH2 0x96E JUMP JUMPDEST PUSH1 0x40 MLOAD PUSH2 0x344 SWAP2 SWAP1 PUSH2 0x10DA JUMP JUMPDEST PUSH1 0x40 MLOAD DUP1 SWAP2 SUB SWAP1 RETURN JUMPDEST CALLVALUE DUP1 ISZERO PUSH2 0x359 JUMPI PUSH1 0x0 DUP1 REVERT JUMPDEST POP PUSH2 0x362 PUSH2 0x974 JUMP JUMPDEST PUSH1 0x40 MLOAD PUSH2 0x36F SWAP2 SWAP1 PUSH2 0x116C JUMP JUMPDEST PUSH1 0x40 MLOAD DUP1 SWAP2 SUB SWAP1 RETURN JUMPDEST CALLVALUE DUP1 ISZERO PUSH2 0x384 JUMPI PUSH1 0x0 DUP1 REVERT JUMPDEST POP PUSH2 0x38D PUSH2 0x985 JUMP JUMPDEST PUSH1 0x40 MLOAD PUSH2 0x39A SWAP2 SWAP1 PUSH2 0x11DC JUMP JUMPDEST PUSH1 0x40 MLOAD DUP1 SWAP2 SUB SWAP1 RETURN JUMPDEST PUSH1 0x15 PUSH1 0x20 MSTORE DUP1 PUSH1 0x0 MSTORE PUSH1 0x40 PUSH1 0x0 KECCAK256 PUSH1 0x0 SWAP2 POP SWAP1 POP DUP1 PUSH1 0x0 ADD SLOAD SWAP1 POP DUP2 JUMP JUMPDEST PUSH1 0x0 DUP1 PUSH1 0x0 PUSH2 0x100 EXP DUP2 SLOAD DUP2 PUSH1 0xFF MUL NOT AND SWAP1 DUP4 PUSH1 0x2 DUP2 GT ISZERO PUSH2 0x3E6 JUMPI PUSH2 0x3E5 PUSH2 0x10F5 JUMP JUMPDEST JUMPDEST MUL OR SWAP1 SSTORE POP JUMP JUMPDEST PUSH1 0x1 DUP2 PUSH1 0xA DUP2 LT PUSH2 0x3FD JUMPI PUSH1 0x0 DUP1 REVERT JUMPDEST ADD PUSH1 0x0 SWAP2 POP SWAP1 POP SLOAD DUP2 JUMP JUMPDEST PUSH1 0x15 PUSH1 0x0 CALLER PUSH20 0xFFFFFFFFFFFFFFFFFFFFFFFFFFFFFFFFFFFFFFFF AND PUSH20 0xFFFFFFFFFFFFFFFFFFFFFFFFFFFFFFFFFFFFFFFF AND DUP2 MSTORE PUSH1 0x20 ADD SWAP1 DUP2 MSTORE PUSH1 0x20 ADD PUSH1 0x0 KECCAK256 PUSH1 0x0 ADD PUSH1 0x0 DUP2 SLOAD DUP1 SWAP3 SWAP2 SWAP1 PUSH2 0x45B SWAP1 PUSH2 0x122D JUMP JUMPDEST SWAP2 SWAP1 POP SSTORE POP PUSH1 0x0 PUSH1 0x15 PUSH1 0x0 CALLER PUSH20 0xFFFFFFFFFFFFFFFFFFFFFFFFFFFFFFFFFFFFFFFF AND PUSH20 0xFFFFFFFFFFFFFFFFFFFFFFFFFFFFFFFFFFFFFFFF AND DUP2 MSTORE PUSH1 0x20 ADD SWAP1 DUP2 MSTORE PUSH1 0x20 ADD PUSH1 0x0 KECCAK256 PUSH1 0x0 ADD SLOAD SWAP1 POP PUSH1 0x0 PUSH1 0x40 MLOAD DUP1 PUSH1 0x80 ADD PUSH1 0x40 MSTORE DUP1 CALLVALUE DUP2 MSTORE PUSH1 0x20 ADD TIMESTAMP DUP2 MSTORE PUSH1 0x20 ADD CALLER PUSH20 0xFFFFFFFFFFFFFFFFFFFFFFFFFFFFFFFFFFFFFFFF AND DUP2 MSTORE PUSH1 0x20 ADD DUP5 DUP2 MSTORE POP SWAP1 POP DUP1 PUSH1 0x15 PUSH1 0x0 CALLER PUSH20 0xFFFFFFFFFFFFFFFFFFFFFFFFFFFFFFFFFFFFFFFF AND PUSH20 0xFFFFFFFFFFFFFFFFFFFFFFFFFFFFFFFFFFFFFFFF AND DUP2 MSTORE PUSH1 0x20 ADD SWAP1 DUP2 MSTORE PUSH1 0x20 ADD PUSH1 0x0 KECCAK256 PUSH1 0x1 ADD PUSH1 0x0 DUP5 DUP2 MSTORE PUSH1 0x20 ADD SWAP1 DUP2 MSTORE PUSH1 0x20 ADD PUSH1 0x0 KECCAK256 PUSH1 0x0 DUP3 ADD MLOAD DUP2 PUSH1 0x0 ADD SSTORE PUSH1 0x20 DUP3 ADD MLOAD DUP2 PUSH1 0x1 ADD SSTORE PUSH1 0x40 DUP3 ADD MLOAD DUP2 PUSH1 0x2 ADD PUSH1 0x0 PUSH2 0x100 EXP DUP2 SLOAD DUP2 PUSH20 0xFFFFFFFFFFFFFFFFFFFFFFFFFFFFFFFFFFFFFFFF MUL NOT AND SWAP1 DUP4 PUSH20 0xFFFFFFFFFFFFFFFFFFFFFFFFFFFFFFFFFFFFFFFF AND MUL OR SWAP1 SSTORE POP PUSH1 0x60 DUP3 ADD MLOAD DUP2 PUSH1 0x3 ADD SWAP1 DUP2 PUSH2 0x5A6 SWAP2 SWAP1 PUSH2 0x1481 JUMP JUMPDEST POP SWAP1 POP POP POP POP POP JUMP JUMPDEST PUSH1 0xB DUP3 PUSH1 0x2 DUP2 LT PUSH2 0x5BF JUMPI PUSH1 0x0 DUP1 REVERT JUMPDEST PUSH1 0x3 MUL ADD DUP2 PUSH1 0x3 DUP2 LT PUSH2 0x5D1 JUMPI PUSH1 0x0 DUP1 REVERT JUMPDEST ADD PUSH1 0x0 SWAP2 POP SWAP2 POP POP SLOAD DUP2 JUMP JUMPDEST PUSH1 0x11 DUP2 DUP2 SLOAD DUP2 LT PUSH2 0x5ED JUMPI PUSH1 0x0 DUP1 REVERT JUMPDEST SWAP1 PUSH1 0x0 MSTORE PUSH1 0x20 PUSH1 0x0 KECCAK256 ADD PUSH1 0x0 SWAP2 POP SWAP1 POP SLOAD DUP2 JUMP JUMPDEST PUSH1 0x12 SLOAD DUP2 JUMP JUMPDEST PUSH1 0x0 PUSH1 0x14 PUSH1 0x0 DUP2 SLOAD PUSH2 0x618 SWAP1 PUSH2 0x12A4 JUMP JUMPDEST DUP2 LT PUSH2 0x627 JUMPI PUSH2 0x626 PUSH2 0x1553 JUMP JUMPDEST JUMPDEST DUP2 SLOAD PUSH1 0x1 AND ISZERO PUSH2 0x646 JUMPI SWAP1 PUSH1 0x0 MSTORE PUSH1 0x20 PUSH1 0x0 KECCAK256 SWAP1 PUSH1 0x20 SWAP2 DUP3 DUP3 DIV ADD SWAP2 SWAP1 MOD JUMPDEST SWAP1 SLOAD SWAP1 BYTE PUSH32 0x100000000000000000000000000000000000000000000000000000000000000 MUL SWAP1 POP SWAP1 JUMP JUMPDEST PUSH1 0x18 PUSH1 0x1 PUSH1 0x2 PUSH1 0xA DUP2 LT PUSH2 0x688 JUMPI PUSH2 0x687 PUSH2 0x1553 JUMP JUMPDEST JUMPDEST ADD DUP2 SWAP1 SSTORE POP PUSH1 0x40 MLOAD DUP1 PUSH1 0x40 ADD PUSH1 0x40 MSTORE DUP1 PUSH1 0x40 MLOAD DUP1 PUSH1 0x60 ADD PUSH1 0x40 MSTORE DUP1 PUSH1 0x3 PUSH1 0xFF AND DUP2 MSTORE PUSH1 0x20 ADD PUSH1 0x4 PUSH1 0xFF AND DUP2 MSTORE PUSH1 0x20 ADD PUSH1 0x5 PUSH1 0xFF AND DUP2 MSTORE POP DUP2 MSTORE PUSH1 0x20 ADD PUSH1 0x40 MLOAD DUP1 PUSH1 0x60 ADD PUSH1 0x40 MSTORE DUP1 PUSH1 0x6 PUSH1 0xFF AND DUP2 MSTORE PUSH1 0x20 ADD PUSH1 0x7 PUSH1 0xFF AND DUP2 MSTORE PUSH1 0x20 ADD PUSH1 0x8 PUSH1 0xFF AND DUP2 MSTORE POP DUP2 MSTORE POP PUSH1 0xB SWAP1 PUSH1 0x2 PUSH2 0x6FE SWAP3 SWAP2 SWAP1 PUSH2 0xA13 JUMP JUMPDEST POP JUMP JUMPDEST PUSH2 0x709 PUSH2 0xA64 JUMP JUMPDEST PUSH1 0x15 PUSH1 0x0 DUP5 PUSH20 0xFFFFFFFFFFFFFFFFFFFFFFFFFFFFFFFFFFFFFFFF AND PUSH20 0xFFFFFFFFFFFFFFFFFFFFFFFFFFFFFFFFFFFFFFFF AND DUP2 MSTORE PUSH1 0x20 ADD SWAP1 DUP2 MSTORE PUSH1 0x20 ADD PUSH1 0x0 KECCAK256 PUSH1 0x1 ADD PUSH1 0x0 DUP4 DUP2 MSTORE PUSH1 0x20 ADD SWAP1 DUP2 MSTORE PUSH1 0x20 ADD PUSH1 0x0 KECCAK256 PUSH1 0x40 MLOAD DUP1 PUSH1 0x80 ADD PUSH1 0x40 MSTORE SWAP1 DUP2 PUSH1 0x0 DUP3 ADD SLOAD DUP2 MSTORE PUSH1 0x20 ADD PUSH1 0x1 DUP3 ADD SLOAD DUP2 MSTORE PUSH1 0x20 ADD PUSH1 0x2 DUP3 ADD PUSH1 0x0 SWAP1 SLOAD SWAP1 PUSH2 0x100 EXP SWAP1 DIV PUSH20 0xFFFFFFFFFFFFFFFFFFFFFFFFFFFFFFFFFFFFFFFF AND PUSH20 0xFFFFFFFFFFFFFFFFFFFFFFFFFFFFFFFFFFFFFFFF AND PUSH20 0xFFFFFFFFFFFFFFFFFFFFFFFFFFFFFFFFFFFFFFFF AND DUP2 MSTORE PUSH1 0x20 ADD PUSH1 0x3 DUP3 ADD DUP1 SLOAD PUSH2 0x7E1 SWAP1 PUSH2 0x12A4 JUMP JUMPDEST DUP1 PUSH1 0x1F ADD PUSH1 0x20 DUP1 SWAP2 DIV MUL PUSH1 0x20 ADD PUSH1 0x40 MLOAD SWAP1 DUP2 ADD PUSH1 0x40 MSTORE DUP1 SWAP3 SWAP2 SWAP1 DUP2 DUP2 MSTORE PUSH1 0x20 ADD DUP3 DUP1 SLOAD PUSH2 0x80D SWAP1 PUSH2 0x12A4 JUMP JUMPDEST DUP1 ISZERO PUSH2 0x85A JUMPI DUP1 PUSH1 0x1F LT PUSH2 0x82F JUMPI PUSH2 0x100 DUP1 DUP4 SLOAD DIV MUL DUP4 MSTORE SWAP2 PUSH1 0x20 ADD SWAP2 PUSH2 0x85A JUMP JUMPDEST DUP3 ADD SWAP2 SWAP1 PUSH1 0x0 MSTORE PUSH1 0x20 PUSH1 0x0 KECCAK256 SWAP1 JUMPDEST DUP2 SLOAD DUP2 MSTORE SWAP1 PUSH1 0x1 ADD SWAP1 PUSH1 0x20 ADD DUP1 DUP4 GT PUSH2 0x83D JUMPI DUP3 SWAP1 SUB PUSH1 0x1F AND DUP3 ADD SWAP2 JUMPDEST POP POP POP POP POP DUP2 MSTORE POP POP SWAP1 POP SWAP3 SWAP2 POP POP JUMP JUMPDEST PUSH1 0x60 PUSH1 0x0 PUSH1 0xA PUSH8 0xFFFFFFFFFFFFFFFF DUP2 GT ISZERO PUSH2 0x88A JUMPI PUSH2 0x889 PUSH2 0xC84 JUMP JUMPDEST JUMPDEST PUSH1 0x40 MLOAD SWAP1 DUP1 DUP3 MSTORE DUP1 PUSH1 0x20 MUL PUSH1 0x20 ADD DUP3 ADD PUSH1 0x40 MSTORE DUP1 ISZERO PUSH2 0x8B8 JUMPI DUP2 PUSH1 0x20 ADD PUSH1 0x20 DUP3 MUL DUP1 CALLDATASIZE DUP4 CALLDATACOPY DUP1 DUP3 ADD SWAP2 POP POP SWAP1 POP JUMPDEST POP SWAP1 POP PUSH1 0x1 DUP2 PUSH1 0x0 DUP2 MLOAD DUP2 LT PUSH2 0x8D1 JUMPI PUSH2 0x8D0 PUSH2 0x1553 JUMP JUMPDEST JUMPDEST PUSH1 0x20 MUL PUSH1 0x20 ADD ADD DUP2 DUP2 MSTORE POP POP DUP1 SWAP2 POP POP SWAP1 JUMP JUMPDEST PUSH1 0x11 PUSH1 0x4 SWAP1 DUP1 PUSH1 0x1 DUP2 SLOAD ADD DUP1 DUP3 SSTORE DUP1 SWAP2 POP POP PUSH1 0x1 SWAP1 SUB SWAP1 PUSH1 0x0 MSTORE PUSH1 0x20 PUSH1 0x0 KECCAK256 ADD PUSH1 0x0 SWAP1 SWAP2 SWAP1 SWAP2 SWAP1 SWAP2 POP SSTORE PUSH1 0x11 PUSH1 0x5 SWAP1 DUP1 PUSH1 0x1 DUP2 SLOAD ADD DUP1 DUP3 SSTORE DUP1 SWAP2 POP POP PUSH1 0x1 SWAP1 SUB SWAP1 PUSH1 0x0 MSTORE PUSH1 0x20 PUSH1 0x0 KECCAK256 ADD PUSH1 0x0 SWAP1 SWAP2 SWAP1 SWAP2 SWAP1 SWAP2 POP SSTORE PUSH1 0x2 PUSH1 0x12 DUP2 SWAP1 SSTORE POP JUMP JUMPDEST PUSH1 0x1 PUSH1 0x0 DUP1 PUSH2 0x100 EXP DUP2 SLOAD DUP2 PUSH1 0xFF MUL NOT AND SWAP1 DUP4 PUSH1 0x2 DUP2 GT ISZERO PUSH2 0x967 JUMPI PUSH2 0x966 PUSH2 0x10F5 JUMP JUMPDEST JUMPDEST MUL OR SWAP1 SSTORE POP JUMP JUMPDEST PUSH1 0x13 SLOAD DUP2 JUMP JUMPDEST PUSH1 0x0 DUP1 SLOAD SWAP1 PUSH2 0x100 EXP SWAP1 DIV PUSH1 0xFF AND DUP2 JUMP JUMPDEST PUSH1 0x14 DUP1 SLOAD PUSH2 0x992 SWAP1 PUSH2 0x12A4 JUMP JUMPDEST DUP1 PUSH1 0x1F ADD PUSH1 0x20 DUP1 SWAP2 DIV MUL PUSH1 0x20 ADD PUSH1 0x40 MLOAD SWAP1 DUP2 ADD PUSH1 0x40 MSTORE DUP1 SWAP3 SWAP2 SWAP1 DUP2 DUP2 MSTORE PUSH1 0x20 ADD DUP3 DUP1 SLOAD PUSH2 0x9BE SWAP1 PUSH2 0x12A4 JUMP JUMPDEST DUP1 ISZERO PUSH2 0xA0B JUMPI DUP1 PUSH1 0x1F LT PUSH2 0x9E0 JUMPI PUSH2 0x100 DUP1 DUP4 SLOAD DIV MUL DUP4 MSTORE SWAP2 PUSH1 0x20 ADD SWAP2 PUSH2 0xA0B JUMP JUMPDEST DUP3 ADD SWAP2 SWAP1 PUSH1 0x0 MSTORE PUSH1 0x20 PUSH1 0x0 KECCAK256 SWAP1 JUMPDEST DUP2 SLOAD DUP2 MSTORE SWAP1 PUSH1 0x1 ADD SWAP1 PUSH1 0x20 ADD DUP1 DUP4 GT PUSH2 0x9EE JUMPI DUP3 SWAP1 SUB PUSH1 0x1F AND DUP3 ADD SWAP2 JUMPDEST POP POP POP POP POP DUP2 JUMP JUMPDEST DUP3 PUSH1 0x2 PUSH1 0x3 MUL DUP2 ADD SWAP3 DUP3 ISZERO PUSH2 0xA53 JUMPI SWAP2 PUSH1 0x20 MUL DUP3 ADD JUMPDEST DUP3 DUP2 GT ISZERO PUSH2 0xA52 JUMPI DUP3 MLOAD DUP3 SWAP1 PUSH1 0x3 PUSH2 0xA42 SWAP3 SWAP2 SWAP1 PUSH2 0xAA2 JUMP JUMPDEST POP SWAP2 PUSH1 0x20 ADD SWAP2 SWAP1 PUSH1 0x3 ADD SWAP1 PUSH2 0xA29 JUMP JUMPDEST JUMPDEST POP SWAP1 POP PUSH2 0xA60 SWAP2 SWAP1 PUSH2 0xAE7 JUMP JUMPDEST POP SWAP1 JUMP JUMPDEST PUSH1 0x40 MLOAD DUP1 PUSH1 0x80 ADD PUSH1 0x40 MSTORE DUP1 PUSH1 0x0 DUP2 MSTORE PUSH1 0x20 ADD PUSH1 0x0 DUP2 MSTORE PUSH1 0x20 ADD PUSH1 0x0 PUSH20 0xFFFFFFFFFFFFFFFFFFFFFFFFFFFFFFFFFFFFFFFF AND DUP2 MSTORE PUSH1 0x20 ADD PUSH1 0x60 DUP2 MSTORE POP SWAP1 JUMP JUMPDEST DUP3 PUSH1 0x3 DUP2 ADD SWAP3 DUP3 ISZERO PUSH2 0xAD6 JUMPI SWAP2 PUSH1 0x20 MUL DUP3 ADD JUMPDEST DUP3 DUP2 GT ISZERO PUSH2 0xAD5 JUMPI DUP3 MLOAD DUP3 SWAP1 PUSH1 0xFF AND SWAP1 SSTORE SWAP2 PUSH1 0x20 ADD SWAP2 SWAP1 PUSH1 0x1 ADD SWAP1 PUSH2 0xAB5 JUMP JUMPDEST JUMPDEST POP SWAP1 POP PUSH2 0xAE3 SWAP2 SWAP1 PUSH2 0xB0B JUMP JUMPDEST POP SWAP1 JUMP JUMPDEST JUMPDEST DUP1 DUP3 GT ISZERO PUSH2 0xB07 JUMPI PUSH1 0x0 DUP2 DUP2 PUSH2 0xAFE SWAP2 SWAP1 PUSH2 0xB28 JUMP JUMPDEST POP PUSH1 0x3 ADD PUSH2 0xAE8 JUMP JUMPDEST POP SWAP1 JUMP JUMPDEST JUMPDEST DUP1 DUP3 GT ISZERO PUSH2 0xB24 JUMPI PUSH1 0x0 DUP2 PUSH1 0x0 SWAP1 SSTORE POP PUSH1 0x1 ADD PUSH2 0xB0C JUMP JUMPDEST POP SWAP1 JUMP JUMPDEST POP PUSH1 0x0 DUP2 SSTORE PUSH1 0x1 ADD PUSH1 0x0 DUP2 SSTORE PUSH1 0x1 ADD PUSH1 0x0 SWAP1 SSTORE JUMP JUMPDEST PUSH1 0x0 PUSH1 0x40 MLOAD SWAP1 POP SWAP1 JUMP JUMPDEST PUSH1 0x0 DUP1 REVERT JUMPDEST PUSH1 0x0 DUP1 REVERT JUMPDEST PUSH1 0x0 PUSH20 0xFFFFFFFFFFFFFFFFFFFFFFFFFFFFFFFFFFFFFFFF DUP3 AND SWAP1 POP SWAP2 SWAP1 POP JUMP JUMPDEST PUSH1 0x0 PUSH2 0xB7C DUP3 PUSH2 0xB51 JUMP JUMPDEST SWAP1 POP SWAP2 SWAP1 POP JUMP JUMPDEST PUSH2 0xB8C DUP2 PUSH2 0xB71 JUMP JUMPDEST DUP2 EQ PUSH2 0xB97 JUMPI PUSH1 0x0 DUP1 REVERT JUMPDEST POP JUMP JUMPDEST PUSH1 0x0 DUP2 CALLDATALOAD SWAP1 POP PUSH2 0xBA9 DUP2 PUSH2 0xB83 JUMP JUMPDEST SWAP3 SWAP2 POP POP JUMP JUMPDEST PUSH1 0x0 PUSH1 0x20 DUP3 DUP5 SUB SLT ISZERO PUSH2 0xBC5 JUMPI PUSH2 0xBC4 PUSH2 0xB47 JUMP JUMPDEST JUMPDEST PUSH1 0x0 PUSH2 0xBD3 DUP5 DUP3 DUP6 ADD PUSH2 0xB9A JUMP JUMPDEST SWAP2 POP POP SWAP3 SWAP2 POP POP JUMP JUMPDEST PUSH1 0x0 DUP2 SWAP1 POP SWAP2 SWAP1 POP JUMP JUMPDEST PUSH2 0xBEF DUP2 PUSH2 0xBDC JUMP JUMPDEST DUP3 MSTORE POP POP JUMP JUMPDEST PUSH1 0x0 PUSH1 0x20 DUP3 ADD SWAP1 POP PUSH2 0xC0A PUSH1 0x0 DUP4 ADD DUP5 PUSH2 0xBE6 JUMP JUMPDEST SWAP3 SWAP2 POP POP JUMP JUMPDEST PUSH2 0xC19 DUP2 PUSH2 0xBDC JUMP JUMPDEST DUP2 EQ PUSH2 0xC24 JUMPI PUSH1 0x0 DUP1 REVERT JUMPDEST POP JUMP JUMPDEST PUSH1 0x0 DUP2 CALLDATALOAD SWAP1 POP PUSH2 0xC36 DUP2 PUSH2 0xC10 JUMP JUMPDEST SWAP3 SWAP2 POP POP JUMP JUMPDEST PUSH1 0x0 PUSH1 0x20 DUP3 DUP5 SUB SLT ISZERO PUSH2 0xC52 JUMPI PUSH2 0xC51 PUSH2 0xB47 JUMP JUMPDEST JUMPDEST PUSH1 0x0 PUSH2 0xC60 DUP5 DUP3 DUP6 ADD PUSH2 0xC27 JUMP JUMPDEST SWAP2 POP POP SWAP3 SWAP2 POP POP JUMP JUMPDEST PUSH1 0x0 DUP1 REVERT JUMPDEST PUSH1 0x0 DUP1 REVERT JUMPDEST PUSH1 0x0 PUSH1 0x1F NOT PUSH1 0x1F DUP4 ADD AND SWAP1 POP SWAP2 SWAP1 POP JUMP JUMPDEST PUSH32 0x4E487B7100000000000000000000000000000000000000000000000000000000 PUSH1 0x0 MSTORE PUSH1 0x41 PUSH1 0x4 MSTORE PUSH1 0x24 PUSH1 0x0 REVERT JUMPDEST PUSH2 0xCBC DUP3 PUSH2 0xC73 JUMP JUMPDEST DUP2 ADD DUP2 DUP2 LT PUSH8 0xFFFFFFFFFFFFFFFF DUP3 GT OR ISZERO PUSH2 0xCDB JUMPI PUSH2 0xCDA PUSH2 0xC84 JUMP JUMPDEST JUMPDEST DUP1 PUSH1 0x40 MSTORE POP POP POP JUMP JUMPDEST PUSH1 0x0 PUSH2 0xCEE PUSH2 0xB3D JUMP JUMPDEST SWAP1 POP PUSH2 0xCFA DUP3 DUP3 PUSH2 0xCB3 JUMP JUMPDEST SWAP2 SWAP1 POP JUMP JUMPDEST PUSH1 0x0 PUSH8 0xFFFFFFFFFFFFFFFF DUP3 GT ISZERO PUSH2 0xD1A JUMPI PUSH2 0xD19 PUSH2 0xC84 JUMP JUMPDEST JUMPDEST PUSH2 0xD23 DUP3 PUSH2 0xC73 JUMP JUMPDEST SWAP1 POP PUSH1 0x20 DUP2 ADD SWAP1 POP SWAP2 SWAP1 POP JUMP JUMPDEST DUP3 DUP2 DUP4 CALLDATACOPY PUSH1 0x0 DUP4 DUP4 ADD MSTORE POP POP POP JUMP JUMPDEST PUSH1 0x0 PUSH2 0xD52 PUSH2 0xD4D DUP5 PUSH2 0xCFF JUMP JUMPDEST PUSH2 0xCE4 JUMP JUMPDEST SWAP1 POP DUP3 DUP2 MSTORE PUSH1 0x20 DUP2 ADD DUP5 DUP5 DUP5 ADD GT ISZERO PUSH2 0xD6E JUMPI PUSH2 0xD6D PUSH2 0xC6E JUMP JUMPDEST JUMPDEST PUSH2 0xD79 DUP5 DUP3 DUP6 PUSH2 0xD30 JUMP JUMPDEST POP SWAP4 SWAP3 POP POP POP JUMP JUMPDEST PUSH1 0x0 DUP3 PUSH1 0x1F DUP4 ADD SLT PUSH2 0xD96 JUMPI PUSH2 0xD95 PUSH2 0xC69 JUMP JUMPDEST JUMPDEST DUP2 CALLDATALOAD PUSH2 0xDA6 DUP5 DUP3 PUSH1 0x20 DUP7 ADD PUSH2 0xD3F JUMP JUMPDEST SWAP2 POP POP SWAP3 SWAP2 POP POP JUMP JUMPDEST PUSH1 0x0 PUSH1 0x20 DUP3 DUP5 SUB SLT ISZERO PUSH2 0xDC5 JUMPI PUSH2 0xDC4 PUSH2 0xB47 JUMP JUMPDEST JUMPDEST PUSH1 0x0 DUP3 ADD CALLDATALOAD PUSH8 0xFFFFFFFFFFFFFFFF DUP2 GT ISZERO PUSH2 0xDE3 JUMPI PUSH2 0xDE2 PUSH2 0xB4C JUMP JUMPDEST JUMPDEST PUSH2 0xDEF DUP5 DUP3 DUP6 ADD PUSH2 0xD81 JUMP JUMPDEST SWAP2 POP POP SWAP3 SWAP2 POP POP JUMP JUMPDEST PUSH1 0x0 DUP1 PUSH1 0x40 DUP4 DUP6 SUB SLT ISZERO PUSH2 0xE0F JUMPI PUSH2 0xE0E PUSH2 0xB47 JUMP JUMPDEST JUMPDEST PUSH1 0x0 PUSH2 0xE1D DUP6 DUP3 DUP7 ADD PUSH2 0xC27 JUMP JUMPDEST SWAP3 POP POP PUSH1 0x20 PUSH2 0xE2E DUP6 DUP3 DUP7 ADD PUSH2 0xC27 JUMP JUMPDEST SWAP2 POP POP SWAP3 POP SWAP3 SWAP1 POP JUMP JUMPDEST PUSH1 0x0 PUSH32 0xFF00000000000000000000000000000000000000000000000000000000000000 DUP3 AND SWAP1 POP SWAP2 SWAP1 POP JUMP JUMPDEST PUSH2 0xE6D DUP2 PUSH2 0xE38 JUMP JUMPDEST DUP3 MSTORE POP POP JUMP JUMPDEST PUSH1 0x0 PUSH1 0x20 DUP3 ADD SWAP1 POP PUSH2 0xE88 PUSH1 0x0 DUP4 ADD DUP5 PUSH2 0xE64 JUMP JUMPDEST SWAP3 SWAP2 POP POP JUMP JUMPDEST PUSH1 0x0 DUP1 PUSH1 0x40 DUP4 DUP6 SUB SLT ISZERO PUSH2 0xEA5 JUMPI PUSH2 0xEA4 PUSH2 0xB47 JUMP JUMPDEST JUMPDEST PUSH1 0x0 PUSH2 0xEB3 DUP6 DUP3 DUP7 ADD PUSH2 0xB9A JUMP JUMPDEST SWAP3 POP POP PUSH1 0x20 PUSH2 0xEC4 DUP6 DUP3 DUP7 ADD PUSH2 0xC27 JUMP JUMPDEST SWAP2 POP POP SWAP3 POP SWAP3 SWAP1 POP JUMP JUMPDEST PUSH2 0xED7 DUP2 PUSH2 0xBDC JUMP JUMPDEST DUP3 MSTORE POP POP JUMP JUMPDEST PUSH2 0xEE6 DUP2 PUSH2 0xB71 JUMP JUMPDEST DUP3 MSTORE POP POP JUMP JUMPDEST PUSH1 0x0 DUP2 MLOAD SWAP1 POP SWAP2 SWAP1 POP JUMP JUMPDEST PUSH1 0x0 DUP3 DUP3 MSTORE PUSH1 0x20 DUP3 ADD SWAP1 POP SWAP3 SWAP2 POP POP JUMP JUMPDEST PUSH1 0x0 JUMPDEST DUP4 DUP2 LT ISZERO PUSH2 0xF26 JUMPI DUP1 DUP3 ADD MLOAD DUP2 DUP5 ADD MSTORE PUSH1 0x20 DUP2 ADD SWAP1 POP PUSH2 0xF0B JUMP JUMPDEST PUSH1 0x0 DUP5 DUP5 ADD MSTORE POP POP POP POP JUMP JUMPDEST PUSH1 0x0 PUSH2 0xF3D DUP3 PUSH2 0xEEC JUMP JUMPDEST PUSH2 0xF47 DUP2 DUP6 PUSH2 0xEF7 JUMP JUMPDEST SWAP4 POP PUSH2 0xF57 DUP2 DUP6 PUSH1 0x20 DUP7 ADD PUSH2 0xF08 JUMP JUMPDEST PUSH2 0xF60 DUP2 PUSH2 0xC73 JUMP JUMPDEST DUP5 ADD SWAP2 POP POP SWAP3 SWAP2 POP POP JUMP JUMPDEST PUSH1 0x0 PUSH1 0x80 DUP4 ADD PUSH1 0x0 DUP4 ADD MLOAD PUSH2 0xF83 PUSH1 0x0 DUP7 ADD DUP3 PUSH2 0xECE JUMP JUMPDEST POP PUSH1 0x20 DUP4 ADD MLOAD PUSH2 0xF96 PUSH1 0x20 DUP7 ADD DUP3 PUSH2 0xECE JUMP JUMPDEST POP PUSH1 0x40 DUP4 ADD MLOAD PUSH2 0xFA9 PUSH1 0x40 DUP7 ADD DUP3 PUSH2 0xEDD JUMP JUMPDEST POP PUSH1 0x60 DUP4 ADD MLOAD DUP5 DUP3 SUB PUSH1 0x60 DUP7 ADD MSTORE PUSH2 0xFC1 DUP3 DUP3 PUSH2 0xF32 JUMP JUMPDEST SWAP2 POP POP DUP1 SWAP2 POP POP SWAP3 SWAP2 POP POP JUMP JUMPDEST PUSH1 0x0 PUSH1 0x20 DUP3 ADD SWAP1 POP DUP2 DUP2 SUB PUSH1 0x0 DUP4 ADD MSTORE PUSH2 0xFE8 DUP2 DUP5 PUSH2 0xF6B JUMP JUMPDEST SWAP1 POP SWAP3 SWAP2 POP POP JUMP JUMPDEST PUSH1 0x0 DUP2 MLOAD SWAP1 POP SWAP2 SWAP1 POP JUMP JUMPDEST PUSH1 0x0 DUP3 DUP3 MSTORE PUSH1 0x20 DUP3 ADD SWAP1 POP SWAP3 SWAP2 POP POP JUMP JUMPDEST PUSH1 0x0 DUP2 SWAP1 POP PUSH1 0x20 DUP3 ADD SWAP1 POP SWAP2 SWAP1 POP JUMP JUMPDEST PUSH1 0x0 PUSH2 0x1028 DUP4 DUP4 PUSH2 0xECE JUMP JUMPDEST PUSH1 0x20 DUP4 ADD SWAP1 POP SWAP3 SWAP2 POP POP JUMP JUMPDEST PUSH1 0x0 PUSH1 0x20 DUP3 ADD SWAP1 POP SWAP2 SWAP1 POP JUMP JUMPDEST PUSH1 0x0 PUSH2 0x104C DUP3 PUSH2 0xFF0 JUMP JUMPDEST PUSH2 0x1056 DUP2 DUP6 PUSH2 0xFFB JUMP JUMPDEST SWAP4 POP PUSH2 0x1061 DUP4 PUSH2 0x100C JUMP JUMPDEST DUP1 PUSH1 0x0 JUMPDEST DUP4 DUP2 LT ISZERO PUSH2 0x1092 JUMPI DUP2 MLOAD PUSH2 0x1079 DUP9 DUP3 PUSH2 0x101C JUMP JUMPDEST SWAP8 POP PUSH2 0x1084 DUP4 PUSH2 0x1034 JUMP JUMPDEST SWAP3 POP POP PUSH1 0x1 DUP2 ADD SWAP1 POP PUSH2 0x1065 JUMP JUMPDEST POP DUP6 SWAP4 POP POP POP POP SWAP3 SWAP2 POP POP JUMP JUMPDEST PUSH1 0x0 PUSH1 0x20 DUP3 ADD SWAP1 POP DUP2 DUP2 SUB PUSH1 0x0 DUP4 ADD MSTORE PUSH2 0x10B9 DUP2 DUP5 PUSH2 0x1041 JUMP JUMPDEST SWAP1 POP SWAP3 SWAP2 POP POP JUMP JUMPDEST PUSH1 0x0 DUP2 SWAP1 POP SWAP2 SWAP1 POP JUMP JUMPDEST PUSH2 0x10D4 DUP2 PUSH2 0x10C1 JUMP JUMPDEST DUP3 MSTORE POP POP JUMP JUMPDEST PUSH1 0x0 PUSH1 0x20 DUP3 ADD SWAP1 POP PUSH2 0x10EF PUSH1 0x0 DUP4 ADD DUP5 PUSH2 0x10CB JUMP JUMPDEST SWAP3 SWAP2 POP POP JUMP JUMPDEST PUSH32 0x4E487B7100000000000000000000000000000000000000000000000000000000 PUSH1 0x0 MSTORE PUSH1 0x21 PUSH1 0x4 MSTORE PUSH1 0x24 PUSH1 0x0 REVERT JUMPDEST PUSH1 0x3 DUP2 LT PUSH2 0x1135 JUMPI PUSH2 0x1134 PUSH2 0x10F5 JUMP JUMPDEST JUMPDEST POP JUMP JUMPDEST PUSH1 0x0 DUP2 SWAP1 POP PUSH2 0x1146 DUP3 PUSH2 0x1124 JUMP JUMPDEST SWAP2 SWAP1 POP JUMP JUMPDEST PUSH1 0x0 PUSH2 0x1156 DUP3 PUSH2 0x1138 JUMP JUMPDEST SWAP1 POP SWAP2 SWAP1 POP JUMP JUMPDEST PUSH2 0x1166 DUP2 PUSH2 0x114B JUMP JUMPDEST DUP3 MSTORE POP POP JUMP JUMPDEST PUSH1 0x0 PUSH1 0x20 DUP3 ADD SWAP1 POP PUSH2 0x1181 PUSH1 0x0 DUP4 ADD DUP5 PUSH2 0x115D JUMP JUMPDEST SWAP3 SWAP2 POP POP JUMP JUMPDEST PUSH1 0x0 DUP2 MLOAD SWAP1 POP SWAP2 SWAP1 POP JUMP JUMPDEST PUSH1 0x0 DUP3 DUP3 MSTORE PUSH1 0x20 DUP3 ADD SWAP1 POP SWAP3 SWAP2 POP POP JUMP JUMPDEST PUSH1 0x0 PUSH2 0x11AE DUP3 PUSH2 0x1187 JUMP JUMPDEST PUSH2 0x11B8 DUP2 DUP6 PUSH2 0x1192 JUMP JUMPDEST SWAP4 POP PUSH2 0x11C8 DUP2 DUP6 PUSH1 0x20 DUP7 ADD PUSH2 0xF08 JUMP JUMPDEST PUSH2 0x11D1 DUP2 PUSH2 0xC73 JUMP JUMPDEST DUP5 ADD SWAP2 POP POP SWAP3 SWAP2 POP POP JUMP JUMPDEST PUSH1 0x0 PUSH1 0x20 DUP3 ADD SWAP1 POP DUP2 DUP2 SUB PUSH1 0x0 DUP4 ADD MSTORE PUSH2 0x11F6 DUP2 DUP5 PUSH2 0x11A3 JUMP JUMPDEST SWAP1 POP SWAP3 SWAP2 POP POP JUMP JUMPDEST PUSH32 0x4E487B7100000000000000000000000000000000000000000000000000000000 PUSH1 0x0 MSTORE PUSH1 0x11 PUSH1 0x4 MSTORE PUSH1 0x24 PUSH1 0x0 REVERT JUMPDEST PUSH1 0x0 PUSH2 0x1238 DUP3 PUSH2 0xBDC JUMP JUMPDEST SWAP2 POP PUSH32 0xFFFFFFFFFFFFFFFFFFFFFFFFFFFFFFFFFFFFFFFFFFFFFFFFFFFFFFFFFFFFFFFF DUP3 SUB PUSH2 0x126A JUMPI PUSH2 0x1269 PUSH2 0x11FE JUMP JUMPDEST JUMPDEST PUSH1 0x1 DUP3 ADD SWAP1 POP SWAP2 SWAP1 POP JUMP JUMPDEST PUSH32 0x4E487B7100000000000000000000000000000000000000000000000000000000 PUSH1 0x0 MSTORE PUSH1 0x22 PUSH1 0x4 MSTORE PUSH1 0x24 PUSH1 0x0 REVERT JUMPDEST PUSH1 0x0 PUSH1 0x2 DUP3 DIV SWAP1 POP PUSH1 0x1 DUP3 AND DUP1 PUSH2 0x12BC JUMPI PUSH1 0x7F DUP3 AND SWAP2 POP JUMPDEST PUSH1 0x20 DUP3 LT DUP2 SUB PUSH2 0x12CF JUMPI PUSH2 0x12CE PUSH2 0x1275 JUMP JUMPDEST JUMPDEST POP SWAP2 SWAP1 POP JUMP JUMPDEST PUSH1 0x0 DUP2 SWAP1 POP DUP2 PUSH1 0x0 MSTORE PUSH1 0x20 PUSH1 0x0 KECCAK256 SWAP1 POP SWAP2 SWAP1 POP JUMP JUMPDEST PUSH1 0x0 PUSH1 0x20 PUSH1 0x1F DUP4 ADD DIV SWAP1 POP SWAP2 SWAP1 POP JUMP JUMPDEST PUSH1 0x0 DUP3 DUP3 SHL SWAP1 POP SWAP3 SWAP2 POP POP JUMP JUMPDEST PUSH1 0x0 PUSH1 0x8 DUP4 MUL PUSH2 0x1337 PUSH32 0xFFFFFFFFFFFFFFFFFFFFFFFFFFFFFFFFFFFFFFFFFFFFFFFFFFFFFFFFFFFFFFFF DUP3 PUSH2 0x12FA JUMP JUMPDEST PUSH2 0x1341 DUP7 DUP4 PUSH2 0x12FA JUMP JUMPDEST SWAP6 POP DUP1 NOT DUP5 AND SWAP4 POP DUP1 DUP7 AND DUP5 OR SWAP3 POP POP POP SWAP4 SWAP3 POP POP POP JUMP JUMPDEST PUSH1 0x0 DUP2 SWAP1 POP SWAP2 SWAP1 POP JUMP JUMPDEST PUSH1 0x0 PUSH2 0x137E PUSH2 0x1379 PUSH2 0x1374 DUP5 PUSH2 0xBDC JUMP JUMPDEST PUSH2 0x1359 JUMP JUMPDEST PUSH2 0xBDC JUMP JUMPDEST SWAP1 POP SWAP2 SWAP1 POP JUMP JUMPDEST PUSH1 0x0 DUP2 SWAP1 POP SWAP2 SWAP1 POP JUMP JUMPDEST PUSH2 0x1398 DUP4 PUSH2 0x1363 JUMP JUMPDEST PUSH2 0x13AC PUSH2 0x13A4 DUP3 PUSH2 0x1385 JUMP JUMPDEST DUP5 DUP5 SLOAD PUSH2 0x1307 JUMP JUMPDEST DUP3 SSTORE POP POP POP POP JUMP JUMPDEST PUSH1 0x0 SWAP1 JUMP JUMPDEST PUSH2 0x13C1 PUSH2 0x13B4 JUMP JUMPDEST PUSH2 0x13CC DUP2 DUP5 DUP5 PUSH2 0x138F JUMP JUMPDEST POP POP POP JUMP JUMPDEST JUMPDEST DUP2 DUP2 LT ISZERO PUSH2 0x13F0 JUMPI PUSH2 0x13E5 PUSH1 0x0 DUP3 PUSH2 0x13B9 JUMP JUMPDEST PUSH1 0x1 DUP2 ADD SWAP1 POP PUSH2 0x13D2 JUMP JUMPDEST POP POP JUMP JUMPDEST PUSH1 0x1F DUP3 GT ISZERO PUSH2 0x1435 JUMPI PUSH2 0x1406 DUP2 PUSH2 0x12D5 JUMP JUMPDEST PUSH2 0x140F DUP5 PUSH2 0x12EA JUMP JUMPDEST DUP2 ADD PUSH1 0x20 DUP6 LT ISZERO PUSH2 0x141E JUMPI DUP2 SWAP1 POP JUMPDEST PUSH2 0x1432 PUSH2 0x142A DUP6 PUSH2 0x12EA JUMP JUMPDEST DUP4 ADD DUP3 PUSH2 0x13D1 JUMP JUMPDEST POP POP JUMPDEST POP POP POP JUMP JUMPDEST PUSH1 0x0 DUP3 DUP3 SHR SWAP1 POP SWAP3 SWAP2 POP POP JUMP JUMPDEST PUSH1 0x0 PUSH2 0x1458 PUSH1 0x0 NOT DUP5 PUSH1 0x8 MUL PUSH2 0x143A JUMP JUMPDEST NOT DUP1 DUP4 AND SWAP2 POP POP SWAP3 SWAP2 POP POP JUMP JUMPDEST PUSH1 0x0 PUSH2 0x1471 DUP4 DUP4 PUSH2 0x1447 JUMP JUMPDEST SWAP2 POP DUP3 PUSH1 0x2 MUL DUP3 OR SWAP1 POP SWAP3 SWAP2 POP POP JUMP JUMPDEST PUSH2 0x148A DUP3 PUSH2 0xEEC JUMP JUMPDEST PUSH8 0xFFFFFFFFFFFFFFFF DUP2 GT ISZERO PUSH2 0x14A3 JUMPI PUSH2 0x14A2 PUSH2 0xC84 JUMP JUMPDEST JUMPDEST PUSH2 0x14AD DUP3 SLOAD PUSH2 0x12A4 JUMP JUMPDEST PUSH2 0x14B8 DUP3 DUP3 DUP6 PUSH2 0x13F4 JUMP JUMPDEST PUSH1 0x0 PUSH1 0x20 SWAP1 POP PUSH1 0x1F DUP4 GT PUSH1 0x1 DUP2 EQ PUSH2 0x14EB JUMPI PUSH1 0x0 DUP5 ISZERO PUSH2 0x14D9 JUMPI DUP3 DUP8 ADD MLOAD SWAP1 POP JUMPDEST PUSH2 0x14E3 DUP6 DUP3 PUSH2 0x1465 JUMP JUMPDEST DUP7 SSTORE POP PUSH2 0x154B JUMP JUMPDEST PUSH1 0x1F NOT DUP5 AND PUSH2 0x14F9 DUP7 PUSH2 0x12D5 JUMP JUMPDEST PUSH1 0x0 JUMPDEST DUP3 DUP2 LT ISZERO PUSH2 0x1521 JUMPI DUP5 DUP10 ADD MLOAD DUP3 SSTORE PUSH1 0x1 DUP3 ADD SWAP2 POP PUSH1 0x20 DUP6 ADD SWAP5 POP PUSH1 0x20 DUP2 ADD SWAP1 POP PUSH2 0x14FC JUMP JUMPDEST DUP7 DUP4 LT ISZERO PUSH2 0x153E JUMPI DUP5 DUP10 ADD MLOAD PUSH2 0x153A PUSH1 0x1F DUP10 AND DUP3 PUSH2 0x1447 JUMP JUMPDEST DUP4 SSTORE POP JUMPDEST PUSH1 0x1 PUSH1 0x2 DUP9 MUL ADD DUP9 SSTORE POP POP POP JUMPDEST POP POP POP POP POP POP JUMP JUMPDEST PUSH32 0x4E487B7100000000000000000000000000000000000000000000000000000000 PUSH1 0x0 MSTORE PUSH1 0x32 PUSH1 0x4 MSTORE PUSH1 0x24 PUSH1 0x0 REVERT INVALID LOG2 PUSH5 0x6970667358 0x22 SLT KECCAK256 BALANCE DUP10 PUSH11 0x6EDE473CFA3AAF1E77B5B2 0xA6 0x49 0x4E EXTCODESIZE TIMESTAMP 0xC2 LOG2 0xE2 0xD9 0xE4 0xB8 0xCA MSTORE 0xC8 0xB4 LOG3 GT 0xB7 PUSH5 0x736F6C6343 STOP ADDMOD SLT STOP CALLER "
				},
				"gasEstimates": {
					"creation": {
						"codeDepositCost": "1112000",
						"executionCost": "infinite",
						"totalCost": "infinite"
					},
					"external": {
						"balances(address)": "2852",
						"currentStatus()": "2623",
						"delivered()": "24453",
						"dynArr()": "115193",
						"firstByte()": "7011",
						"fixedSize()": "infinite",
						"getPayment(address,uint256)": "infinite",
						"items(uint256,uint256)": "infinite",
						"items2(uint256)": "infinite",
						"len()": "2496",
						"myDynVar()": "infinite",
						"myVar()": "2473",
						"paid()": "24477",
						"pay(string)": "infinite",
						"sampleMemory()": "infinite",
						"test(uint256)": "infinite"
					}
				},
				"methodIdentifiers": {
					"balances(address)": "27e235e3",
					"currentStatus()": "ef8a9235",
					"delivered()": "bbdfbfba",
					"dynArr()": "b6c5594c",
					"firstByte()": "654c914f",
					"fixedSize()": "736172d3",
					"getPayment(address,uint256)": "977a767c",
					"items(uint256,uint256)": "31e838dd",
					"items2(uint256)": "503f8cab",
					"len()": "56d88e27",
					"myDynVar()": "ffb1e210",
					"myVar()": "c6b91540",
					"paid()": "295b4e17",
					"pay(string)": "2b66d72e",
					"sampleMemory()": "a34343c9",
					"test(uint256)": "29e99f07"
				}
			},
			"storageLayout": {
				"storage": [
					{
						"astId": 8,
						"contract": "contracts/Demo4.sol:Demo4",
						"label": "currentStatus",
						"offset": 0,
						"slot": "0",
						"type": "t_enum(Status)5"
					},
					{
						"astId": 30,
						"contract": "contracts/Demo4.sol:Demo4",
						"label": "test",
						"offset": 0,
						"slot": "1",
						"type": "t_array(t_uint256)10_storage"
					},
					{
						"astId": 36,
						"contract": "contracts/Demo4.sol:Demo4",
						"label": "items",
						"offset": 0,
						"slot": "11",
						"type": "t_array(t_array(t_uint256)3_storage)2_storage"
					},
					{
						"astId": 61,
						"contract": "contracts/Demo4.sol:Demo4",
						"label": "items2",
						"offset": 0,
						"slot": "17",
						"type": "t_array(t_uint256)dyn_storage"
					},
					{
						"astId": 63,
						"contract": "contracts/Demo4.sol:Demo4",
						"label": "len",
						"offset": 0,
						"slot": "18",
						"type": "t_uint256"
					},
					{
						"astId": 113,
						"contract": "contracts/Demo4.sol:Demo4",
						"label": "myVar",
						"offset": 0,
						"slot": "19",
						"type": "t_bytes32"
					},
					{
						"astId": 116,
						"contract": "contracts/Demo4.sol:Demo4",
						"label": "myDynVar",
						"offset": 0,
						"slot": "20",
						"type": "t_bytes_storage"
					},
					{
						"astId": 148,
						"contract": "contracts/Demo4.sol:Demo4",
						"label": "balances",
						"offset": 0,
						"slot": "21",
						"type": "t_mapping(t_address,t_struct(Balance)143_storage)"
					}
				],
				"types": {
					"t_address": {
						"encoding": "inplace",
						"label": "address",
						"numberOfBytes": "20"
					},
					"t_array(t_array(t_uint256)3_storage)2_storage": {
						"base": "t_array(t_uint256)3_storage",
						"encoding": "inplace",
						"label": "uint256[3][2]",
						"numberOfBytes": "192"
					},
					"t_array(t_uint256)10_storage": {
						"base": "t_uint256",
						"encoding": "inplace",
						"label": "uint256[10]",
						"numberOfBytes": "320"
					},
					"t_array(t_uint256)3_storage": {
						"base": "t_uint256",
						"encoding": "inplace",
						"label": "uint256[3]",
						"numberOfBytes": "96"
					},
					"t_array(t_uint256)dyn_storage": {
						"base": "t_uint256",
						"encoding": "dynamic_array",
						"label": "uint256[]",
						"numberOfBytes": "32"
					},
					"t_bytes32": {
						"encoding": "inplace",
						"label": "bytes32",
						"numberOfBytes": "32"
					},
					"t_bytes_storage": {
						"encoding": "bytes",
						"label": "bytes",
						"numberOfBytes": "32"
					},
					"t_enum(Status)5": {
						"encoding": "inplace",
						"label": "enum Demo4.Status",
						"numberOfBytes": "1"
					},
					"t_mapping(t_address,t_struct(Balance)143_storage)": {
						"encoding": "mapping",
						"key": "t_address",
						"label": "mapping(address => struct Demo4.Balance)",
						"numberOfBytes": "32",
						"value": "t_struct(Balance)143_storage"
					},
					"t_mapping(t_uint256,t_struct(Payment)135_storage)": {
						"encoding": "mapping",
						"key": "t_uint256",
						"label": "mapping(uint256 => struct Demo4.Payment)",
						"numberOfBytes": "32",
						"value": "t_struct(Payment)135_storage"
					},
					"t_string_storage": {
						"encoding": "bytes",
						"label": "string",
						"numberOfBytes": "32"
					},
					"t_struct(Balance)143_storage": {
						"encoding": "inplace",
						"label": "struct Demo4.Balance",
						"members": [
							{
								"astId": 137,
								"contract": "contracts/Demo4.sol:Demo4",
								"label": "totalPayments",
								"offset": 0,
								"slot": "0",
								"type": "t_uint256"
							},
							{
								"astId": 142,
								"contract": "contracts/Demo4.sol:Demo4",
								"label": "payments",
								"offset": 0,
								"slot": "1",
								"type": "t_mapping(t_uint256,t_struct(Payment)135_storage)"
							}
						],
						"numberOfBytes": "64"
					},
					"t_struct(Payment)135_storage": {
						"encoding": "inplace",
						"label": "struct Demo4.Payment",
						"members": [
							{
								"astId": 128,
								"contract": "contracts/Demo4.sol:Demo4",
								"label": "amount",
								"offset": 0,
								"slot": "0",
								"type": "t_uint256"
							},
							{
								"astId": 130,
								"contract": "contracts/Demo4.sol:Demo4",
								"label": "timestamp",
								"offset": 0,
								"slot": "1",
								"type": "t_uint256"
							},
							{
								"astId": 132,
								"contract": "contracts/Demo4.sol:Demo4",
								"label": "from",
								"offset": 0,
								"slot": "2",
								"type": "t_address"
							},
							{
								"astId": 134,
								"contract": "contracts/Demo4.sol:Demo4",
								"label": "message",
								"offset": 0,
								"slot": "3",
								"type": "t_string_storage"
							}
						],
						"numberOfBytes": "128"
					},
					"t_uint256": {
						"encoding": "inplace",
						"label": "uint256",
						"numberOfBytes": "32"
					}
				}
			},
			"userdoc": {
				"kind": "user",
				"methods": {},
				"version": 1
			}
		}
	}
}