{
	"data": {
		"bytecode": {
			"linkReferences": {},
			"object": "60806040526040518060400160405280600481526020017f7465737400000000000000000000000000000000000000000000000000000000815250600090816200004a91906200032e565b50735b38da6a701c568545dcfcb03fcb875f56beddc4600160006101000a81548173ffffffffffffffffffffffffffffffffffffffff021916908373ffffffffffffffffffffffffffffffffffffffff160217905550348015620000ad57600080fd5b5062000415565b600081519050919050565b7f4e487b7100000000000000000000000000000000000000000000000000000000600052604160045260246000fd5b7f4e487b7100000000000000000000000000000000000000000000000000000000600052602260045260246000fd5b600060028204905060018216806200013657607f821691505b6020821081036200014c576200014b620000ee565b5b50919050565b60008190508160005260206000209050919050565b60006020601f8301049050919050565b600082821b905092915050565b600060088302620001b67fffffffffffffffffffffffffffffffffffffffffffffffffffffffffffffffff8262000177565b620001c2868362000177565b95508019841693508086168417925050509392505050565b6000819050919050565b6000819050919050565b60006200020f620002096200020384620001da565b620001e4565b620001da565b9050919050565b6000819050919050565b6200022b83620001ee565b620002436200023a8262000216565b84845462000184565b825550505050565b600090565b6200025a6200024b565b6200026781848462000220565b505050565b5b818110156200028f576200028360008262000250565b6001810190506200026d565b5050565b601f821115620002de57620002a88162000152565b620002b38462000167565b81016020851015620002c3578190505b620002db620002d28562000167565b8301826200026c565b50505b505050565b600082821c905092915050565b60006200030360001984600802620002e3565b1980831691505092915050565b60006200031e8383620002f0565b9150826002028217905092915050565b6200033982620000b4565b67ffffffffffffffff811115620003555762000354620000bf565b5b6200036182546200011d565b6200036e82828562000293565b600060209050601f831160018114620003a6576000841562000391578287015190505b6200039d858262000310565b8655506200040d565b601f198416620003b68662000152565b60005b82811015620003e057848901518255600182019150602085019450602081019050620003b9565b86831015620004005784890151620003fc601f891682620002f0565b8355505b6001600288020188555050505b505050505050565b610a1f80620004256000396000f3fe60806040526004361061006f5760003560e01c8063939a79ac1161004e578063939a79ac146100d2578063e2982c21146100fb578063e665b26614610138578063f8b2cb4f146101635761006f565b80625c33e1146100745780632ccb1b301461007e5780635a455c1c146100a7575b600080fd5b61007c6101a0565b005b34801561008a57600080fd5b506100a560048036038101906100a0919061041a565b6101e6565b005b3480156100b357600080fd5b506100bc610237565b6040516100c991906104ea565b60405180910390f35b3480156100de57600080fd5b506100f960048036038101906100f49190610641565b6102c5565b005b34801561010757600080fd5b50610122600480360381019061011d919061068a565b610313565b60405161012f91906106c6565b60405180910390f35b34801561014457600080fd5b5061014d61032b565b60405161015a91906106f0565b60405180910390f35b34801561016f57600080fd5b5061018a6004803603810190610185919061068a565b610351565b60405161019791906106c6565b60405180910390f35b34600260003373ffffffffffffffffffffffffffffffffffffffff1673ffffffffffffffffffffffffffffffffffffffff16815260200190815260200160002081905550565b60008290508073ffffffffffffffffffffffffffffffffffffffff166108fc839081150290604051600060405180830381858888f19350505050158015610231573d6000803e3d6000fd5b50505050565b600080546102449061073a565b80601f01602080910402602001604051908101604052809291908181526020018280546102709061073a565b80156102bd5780601f10610292576101008083540402835291602001916102bd565b820191906000526020600020905b8154815290600101906020018083116102a057829003601f168201915b505050505081565b60006040518060400160405280600481526020017f74656d70000000000000000000000000000000000000000000000000000000008152509050816000908161030e9190610917565b505050565b60026020528060005260406000206000915090505481565b600160009054906101000a900473ffffffffffffffffffffffffffffffffffffffff1681565b60008173ffffffffffffffffffffffffffffffffffffffff16319050919050565b6000604051905090565b600080fd5b600080fd5b600073ffffffffffffffffffffffffffffffffffffffff82169050919050565b60006103b182610386565b9050919050565b6103c1816103a6565b81146103cc57600080fd5b50565b6000813590506103de816103b8565b92915050565b6000819050919050565b6103f7816103e4565b811461040257600080fd5b50565b600081359050610414816103ee565b92915050565b600080604083850312156104315761043061037c565b5b600061043f858286016103cf565b925050602061045085828601610405565b9150509250929050565b600081519050919050565b600082825260208201905092915050565b60005b83811015610494578082015181840152602081019050610479565b60008484015250505050565b6000601f19601f8301169050919050565b60006104bc8261045a565b6104c68185610465565b93506104d6818560208601610476565b6104df816104a0565b840191505092915050565b6000602082019050818103600083015261050481846104b1565b905092915050565b600080fd5b600080fd5b7f4e487b7100000000000000000000000000000000000000000000000000000000600052604160045260246000fd5b61054e826104a0565b810181811067ffffffffffffffff8211171561056d5761056c610516565b5b80604052505050565b6000610580610372565b905061058c8282610545565b919050565b600067ffffffffffffffff8211156105ac576105ab610516565b5b6105b5826104a0565b9050602081019050919050565b82818337600083830152505050565b60006105e46105df84610591565b610576565b905082815260208101848484011115610600576105ff610511565b5b61060b8482856105c2565b509392505050565b600082601f8301126106285761062761050c565b5b81356106388482602086016105d1565b91505092915050565b6000602082840312156106575761065661037c565b5b600082013567ffffffffffffffff81111561067557610674610381565b5b61068184828501610613565b91505092915050565b6000602082840312156106a05761069f61037c565b5b60006106ae848285016103cf565b91505092915050565b6106c0816103e4565b82525050565b60006020820190506106db60008301846106b7565b92915050565b6106ea816103a6565b82525050565b600060208201905061070560008301846106e1565b92915050565b7f4e487b7100000000000000000000000000000000000000000000000000000000600052602260045260246000fd5b6000600282049050600182168061075257607f821691505b6020821081036107655761076461070b565b5b50919050565b60008190508160005260206000209050919050565b60006020601f8301049050919050565b600082821b905092915050565b6000600883026107cd7fffffffffffffffffffffffffffffffffffffffffffffffffffffffffffffffff82610790565b6107d78683610790565b95508019841693508086168417925050509392505050565b6000819050919050565b600061081461080f61080a846103e4565b6107ef565b6103e4565b9050919050565b6000819050919050565b61082e836107f9565b61084261083a8261081b565b84845461079d565b825550505050565b600090565b61085761084a565b610862818484610825565b505050565b5b818110156108865761087b60008261084f565b600181019050610868565b5050565b601f8211156108cb5761089c8161076b565b6108a584610780565b810160208510156108b4578190505b6108c86108c085610780565b830182610867565b50505b505050565b600082821c905092915050565b60006108ee600019846008026108d0565b1980831691505092915050565b600061090783836108dd565b9150826002028217905092915050565b6109208261045a565b67ffffffffffffffff81111561093957610938610516565b5b610943825461073a565b61094e82828561088a565b600060209050601f831160018114610981576000841561096f578287015190505b61097985826108fb565b8655506109e1565b601f19841661098f8661076b565b60005b828110156109b757848901518255600182019150602085019450602081019050610992565b868310156109d457848901516109d0601f8916826108dd565b8355505b6001600288020188555050505b50505050505056fea264697066735822122095b36a1ecf66213bcd0341e2ecf28e81e41e80361db083fe600955d5de713fd264736f6c63430008120033",
			"opcodes": "PUSH1 0x80 PUSH1 0x40 MSTORE PUSH1 0x40 MLOAD DUP1 PUSH1 0x40 ADD PUSH1 0x40 MSTORE DUP1 PUSH1 0x4 DUP2 MSTORE PUSH1 0x20 ADD PUSH32 0x7465737400000000000000000000000000000000000000000000000000000000 DUP2 MSTORE POP PUSH1 0x0 SWAP1 DUP2 PUSH3 0x4A SWAP2 SWAP1 PUSH3 0x32E JUMP JUMPDEST POP PUSH20 0x5B38DA6A701C568545DCFCB03FCB875F56BEDDC4 PUSH1 0x1 PUSH1 0x0 PUSH2 0x100 EXP DUP2 SLOAD DUP2 PUSH20 0xFFFFFFFFFFFFFFFFFFFFFFFFFFFFFFFFFFFFFFFF MUL NOT AND SWAP1 DUP4 PUSH20 0xFFFFFFFFFFFFFFFFFFFFFFFFFFFFFFFFFFFFFFFF AND MUL OR SWAP1 SSTORE POP CALLVALUE DUP1 ISZERO PUSH3 0xAD JUMPI PUSH1 0x0 DUP1 REVERT JUMPDEST POP PUSH3 0x415 JUMP JUMPDEST PUSH1 0x0 DUP2 MLOAD SWAP1 POP SWAP2 SWAP1 POP JUMP JUMPDEST PUSH32 0x4E487B7100000000000000000000000000000000000000000000000000000000 PUSH1 0x0 MSTORE PUSH1 0x41 PUSH1 0x4 MSTORE PUSH1 0x24 PUSH1 0x0 REVERT JUMPDEST PUSH32 0x4E487B7100000000000000000000000000000000000000000000000000000000 PUSH1 0x0 MSTORE PUSH1 0x22 PUSH1 0x4 MSTORE PUSH1 0x24 PUSH1 0x0 REVERT JUMPDEST PUSH1 0x0 PUSH1 0x2 DUP3 DIV SWAP1 POP PUSH1 0x1 DUP3 AND DUP1 PUSH3 0x136 JUMPI PUSH1 0x7F DUP3 AND SWAP2 POP JUMPDEST PUSH1 0x20 DUP3 LT DUP2 SUB PUSH3 0x14C JUMPI PUSH3 0x14B PUSH3 0xEE JUMP JUMPDEST JUMPDEST POP SWAP2 SWAP1 POP JUMP JUMPDEST PUSH1 0x0 DUP2 SWAP1 POP DUP2 PUSH1 0x0 MSTORE PUSH1 0x20 PUSH1 0x0 KECCAK256 SWAP1 POP SWAP2 SWAP1 POP JUMP JUMPDEST PUSH1 0x0 PUSH1 0x20 PUSH1 0x1F DUP4 ADD DIV SWAP1 POP SWAP2 SWAP1 POP JUMP JUMPDEST PUSH1 0x0 DUP3 DUP3 SHL SWAP1 POP SWAP3 SWAP2 POP POP JUMP JUMPDEST PUSH1 0x0 PUSH1 0x8 DUP4 MUL PUSH3 0x1B6 PUSH32 0xFFFFFFFFFFFFFFFFFFFFFFFFFFFFFFFFFFFFFFFFFFFFFFFFFFFFFFFFFFFFFFFF DUP3 PUSH3 0x177 JUMP JUMPDEST PUSH3 0x1C2 DUP7 DUP4 PUSH3 0x177 JUMP JUMPDEST SWAP6 POP DUP1 NOT DUP5 AND SWAP4 POP DUP1 DUP7 AND DUP5 OR SWAP3 POP POP POP SWAP4 SWAP3 POP POP POP JUMP JUMPDEST PUSH1 0x0 DUP2 SWAP1 POP SWAP2 SWAP1 POP JUMP JUMPDEST PUSH1 0x0 DUP2 SWAP1 POP SWAP2 SWAP1 POP JUMP JUMPDEST PUSH1 0x0 PUSH3 0x20F PUSH3 0x209 PUSH3 0x203 DUP5 PUSH3 0x1DA JUMP JUMPDEST PUSH3 0x1E4 JUMP JUMPDEST PUSH3 0x1DA JUMP JUMPDEST SWAP1 POP SWAP2 SWAP1 POP JUMP JUMPDEST PUSH1 0x0 DUP2 SWAP1 POP SWAP2 SWAP1 POP JUMP JUMPDEST PUSH3 0x22B DUP4 PUSH3 0x1EE JUMP JUMPDEST PUSH3 0x243 PUSH3 0x23A DUP3 PUSH3 0x216 JUMP JUMPDEST DUP5 DUP5 SLOAD PUSH3 0x184 JUMP JUMPDEST DUP3 SSTORE POP POP POP POP JUMP JUMPDEST PUSH1 0x0 SWAP1 JUMP JUMPDEST PUSH3 0x25A PUSH3 0x24B JUMP JUMPDEST PUSH3 0x267 DUP2 DUP5 DUP5 PUSH3 0x220 JUMP JUMPDEST POP POP POP JUMP JUMPDEST JUMPDEST DUP2 DUP2 LT ISZERO PUSH3 0x28F JUMPI PUSH3 0x283 PUSH1 0x0 DUP3 PUSH3 0x250 JUMP JUMPDEST PUSH1 0x1 DUP2 ADD SWAP1 POP PUSH3 0x26D JUMP JUMPDEST POP POP JUMP JUMPDEST PUSH1 0x1F DUP3 GT ISZERO PUSH3 0x2DE JUMPI PUSH3 0x2A8 DUP2 PUSH3 0x152 JUMP JUMPDEST PUSH3 0x2B3 DUP5 PUSH3 0x167 JUMP JUMPDEST DUP2 ADD PUSH1 0x20 DUP6 LT ISZERO PUSH3 0x2C3 JUMPI DUP2 SWAP1 POP JUMPDEST PUSH3 0x2DB PUSH3 0x2D2 DUP6 PUSH3 0x167 JUMP JUMPDEST DUP4 ADD DUP3 PUSH3 0x26C JUMP JUMPDEST POP POP JUMPDEST POP POP POP JUMP JUMPDEST PUSH1 0x0 DUP3 DUP3 SHR SWAP1 POP SWAP3 SWAP2 POP POP JUMP JUMPDEST PUSH1 0x0 PUSH3 0x303 PUSH1 0x0 NOT DUP5 PUSH1 0x8 MUL PUSH3 0x2E3 JUMP JUMPDEST NOT DUP1 DUP4 AND SWAP2 POP POP SWAP3 SWAP2 POP POP JUMP JUMPDEST PUSH1 0x0 PUSH3 0x31E DUP4 DUP4 PUSH3 0x2F0 JUMP JUMPDEST SWAP2 POP DUP3 PUSH1 0x2 MUL DUP3 OR SWAP1 POP SWAP3 SWAP2 POP POP JUMP JUMPDEST PUSH3 0x339 DUP3 PUSH3 0xB4 JUMP JUMPDEST PUSH8 0xFFFFFFFFFFFFFFFF DUP2 GT ISZERO PUSH3 0x355 JUMPI PUSH3 0x354 PUSH3 0xBF JUMP JUMPDEST JUMPDEST PUSH3 0x361 DUP3 SLOAD PUSH3 0x11D JUMP JUMPDEST PUSH3 0x36E DUP3 DUP3 DUP6 PUSH3 0x293 JUMP JUMPDEST PUSH1 0x0 PUSH1 0x20 SWAP1 POP PUSH1 0x1F DUP4 GT PUSH1 0x1 DUP2 EQ PUSH3 0x3A6 JUMPI PUSH1 0x0 DUP5 ISZERO PUSH3 0x391 JUMPI DUP3 DUP8 ADD MLOAD SWAP1 POP JUMPDEST PUSH3 0x39D DUP6 DUP3 PUSH3 0x310 JUMP JUMPDEST DUP7 SSTORE POP PUSH3 0x40D JUMP JUMPDEST PUSH1 0x1F NOT DUP5 AND PUSH3 0x3B6 DUP7 PUSH3 0x152 JUMP JUMPDEST PUSH1 0x0 JUMPDEST DUP3 DUP2 LT ISZERO PUSH3 0x3E0 JUMPI DUP5 DUP10 ADD MLOAD DUP3 SSTORE PUSH1 0x1 DUP3 ADD SWAP2 POP PUSH1 0x20 DUP6 ADD SWAP5 POP PUSH1 0x20 DUP2 ADD SWAP1 POP PUSH3 0x3B9 JUMP JUMPDEST DUP7 DUP4 LT ISZERO PUSH3 0x400 JUMPI DUP5 DUP10 ADD MLOAD PUSH3 0x3FC PUSH1 0x1F DUP10 AND DUP3 PUSH3 0x2F0 JUMP JUMPDEST DUP4 SSTORE POP JUMPDEST PUSH1 0x1 PUSH1 0x2 DUP9 MUL ADD DUP9 SSTORE POP POP POP JUMPDEST POP POP POP POP POP POP JUMP JUMPDEST PUSH2 0xA1F DUP1 PUSH3 0x425 PUSH1 0x0 CODECOPY PUSH1 0x0 RETURN INVALID PUSH1 0x80 PUSH1 0x40 MSTORE PUSH1 0x4 CALLDATASIZE LT PUSH2 0x6F JUMPI PUSH1 0x0 CALLDATALOAD PUSH1 0xE0 SHR DUP1 PUSH4 0x939A79AC GT PUSH2 0x4E JUMPI DUP1 PUSH4 0x939A79AC EQ PUSH2 0xD2 JUMPI DUP1 PUSH4 0xE2982C21 EQ PUSH2 0xFB JUMPI DUP1 PUSH4 0xE665B266 EQ PUSH2 0x138 JUMPI DUP1 PUSH4 0xF8B2CB4F EQ PUSH2 0x163 JUMPI PUSH2 0x6F JUMP JUMPDEST DUP1 PUSH3 0x5C33E1 EQ PUSH2 0x74 JUMPI DUP1 PUSH4 0x2CCB1B30 EQ PUSH2 0x7E JUMPI DUP1 PUSH4 0x5A455C1C EQ PUSH2 0xA7 JUMPI JUMPDEST PUSH1 0x0 DUP1 REVERT JUMPDEST PUSH2 0x7C PUSH2 0x1A0 JUMP JUMPDEST STOP JUMPDEST CALLVALUE DUP1 ISZERO PUSH2 0x8A JUMPI PUSH1 0x0 DUP1 REVERT JUMPDEST POP PUSH2 0xA5 PUSH1 0x4 DUP1 CALLDATASIZE SUB DUP2 ADD SWAP1 PUSH2 0xA0 SWAP2 SWAP1 PUSH2 0x41A JUMP JUMPDEST PUSH2 0x1E6 JUMP JUMPDEST STOP JUMPDEST CALLVALUE DUP1 ISZERO PUSH2 0xB3 JUMPI PUSH1 0x0 DUP1 REVERT JUMPDEST POP PUSH2 0xBC PUSH2 0x237 JUMP JUMPDEST PUSH1 0x40 MLOAD PUSH2 0xC9 SWAP2 SWAP1 PUSH2 0x4EA JUMP JUMPDEST PUSH1 0x40 MLOAD DUP1 SWAP2 SUB SWAP1 RETURN JUMPDEST CALLVALUE DUP1 ISZERO PUSH2 0xDE JUMPI PUSH1 0x0 DUP1 REVERT JUMPDEST POP PUSH2 0xF9 PUSH1 0x4 DUP1 CALLDATASIZE SUB DUP2 ADD SWAP1 PUSH2 0xF4 SWAP2 SWAP1 PUSH2 0x641 JUMP JUMPDEST PUSH2 0x2C5 JUMP JUMPDEST STOP JUMPDEST CALLVALUE DUP1 ISZERO PUSH2 0x107 JUMPI PUSH1 0x0 DUP1 REVERT JUMPDEST POP PUSH2 0x122 PUSH1 0x4 DUP1 CALLDATASIZE SUB DUP2 ADD SWAP1 PUSH2 0x11D SWAP2 SWAP1 PUSH2 0x68A JUMP JUMPDEST PUSH2 0x313 JUMP JUMPDEST PUSH1 0x40 MLOAD PUSH2 0x12F SWAP2 SWAP1 PUSH2 0x6C6 JUMP JUMPDEST PUSH1 0x40 MLOAD DUP1 SWAP2 SUB SWAP1 RETURN JUMPDEST CALLVALUE DUP1 ISZERO PUSH2 0x144 JUMPI PUSH1 0x0 DUP1 REVERT JUMPDEST POP PUSH2 0x14D PUSH2 0x32B JUMP JUMPDEST PUSH1 0x40 MLOAD PUSH2 0x15A SWAP2 SWAP1 PUSH2 0x6F0 JUMP JUMPDEST PUSH1 0x40 MLOAD DUP1 SWAP2 SUB SWAP1 RETURN JUMPDEST CALLVALUE DUP1 ISZERO PUSH2 0x16F JUMPI PUSH1 0x0 DUP1 REVERT JUMPDEST POP PUSH2 0x18A PUSH1 0x4 DUP1 CALLDATASIZE SUB DUP2 ADD SWAP1 PUSH2 0x185 SWAP2 SWAP1 PUSH2 0x68A JUMP JUMPDEST PUSH2 0x351 JUMP JUMPDEST PUSH1 0x40 MLOAD PUSH2 0x197 SWAP2 SWAP1 PUSH2 0x6C6 JUMP JUMPDEST PUSH1 0x40 MLOAD DUP1 SWAP2 SUB SWAP1 RETURN JUMPDEST CALLVALUE PUSH1 0x2 PUSH1 0x0 CALLER PUSH20 0xFFFFFFFFFFFFFFFFFFFFFFFFFFFFFFFFFFFFFFFF AND PUSH20 0xFFFFFFFFFFFFFFFFFFFFFFFFFFFFFFFFFFFFFFFF AND DUP2 MSTORE PUSH1 0x20 ADD SWAP1 DUP2 MSTORE PUSH1 0x20 ADD PUSH1 0x0 KECCAK256 DUP2 SWAP1 SSTORE POP JUMP JUMPDEST PUSH1 0x0 DUP3 SWAP1 POP DUP1 PUSH20 0xFFFFFFFFFFFFFFFFFFFFFFFFFFFFFFFFFFFFFFFF AND PUSH2 0x8FC DUP4 SWAP1 DUP2 ISZERO MUL SWAP1 PUSH1 0x40 MLOAD PUSH1 0x0 PUSH1 0x40 MLOAD DUP1 DUP4 SUB DUP2 DUP6 DUP9 DUP9 CALL SWAP4 POP POP POP POP ISZERO DUP1 ISZERO PUSH2 0x231 JUMPI RETURNDATASIZE PUSH1 0x0 DUP1 RETURNDATACOPY RETURNDATASIZE PUSH1 0x0 REVERT JUMPDEST POP POP POP POP JUMP JUMPDEST PUSH1 0x0 DUP1 SLOAD PUSH2 0x244 SWAP1 PUSH2 0x73A JUMP JUMPDEST DUP1 PUSH1 0x1F ADD PUSH1 0x20 DUP1 SWAP2 DIV MUL PUSH1 0x20 ADD PUSH1 0x40 MLOAD SWAP1 DUP2 ADD PUSH1 0x40 MSTORE DUP1 SWAP3 SWAP2 SWAP1 DUP2 DUP2 MSTORE PUSH1 0x20 ADD DUP3 DUP1 SLOAD PUSH2 0x270 SWAP1 PUSH2 0x73A JUMP JUMPDEST DUP1 ISZERO PUSH2 0x2BD JUMPI DUP1 PUSH1 0x1F LT PUSH2 0x292 JUMPI PUSH2 0x100 DUP1 DUP4 SLOAD DIV MUL DUP4 MSTORE SWAP2 PUSH1 0x20 ADD SWAP2 PUSH2 0x2BD JUMP JUMPDEST DUP3 ADD SWAP2 SWAP1 PUSH1 0x0 MSTORE PUSH1 0x20 PUSH1 0x0 KECCAK256 SWAP1 JUMPDEST DUP2 SLOAD DUP2 MSTORE SWAP1 PUSH1 0x1 ADD SWAP1 PUSH1 0x20 ADD DUP1 DUP4 GT PUSH2 0x2A0 JUMPI DUP3 SWAP1 SUB PUSH1 0x1F AND DUP3 ADD SWAP2 JUMPDEST POP POP POP POP POP DUP2 JUMP JUMPDEST PUSH1 0x0 PUSH1 0x40 MLOAD DUP1 PUSH1 0x40 ADD PUSH1 0x40 MSTORE DUP1 PUSH1 0x4 DUP2 MSTORE PUSH1 0x20 ADD PUSH32 0x74656D7000000000000000000000000000000000000000000000000000000000 DUP2 MSTORE POP SWAP1 POP DUP2 PUSH1 0x0 SWAP1 DUP2 PUSH2 0x30E SWAP2 SWAP1 PUSH2 0x917 JUMP JUMPDEST POP POP POP JUMP JUMPDEST PUSH1 0x2 PUSH1 0x20 MSTORE DUP1 PUSH1 0x0 MSTORE PUSH1 0x40 PUSH1 0x0 KECCAK256 PUSH1 0x0 SWAP2 POP SWAP1 POP SLOAD DUP2 JUMP JUMPDEST PUSH1 0x1 PUSH1 0x0 SWAP1 SLOAD SWAP1 PUSH2 0x100 EXP SWAP1 DIV PUSH20 0xFFFFFFFFFFFFFFFFFFFFFFFFFFFFFFFFFFFFFFFF AND DUP2 JUMP JUMPDEST PUSH1 0x0 DUP2 PUSH20 0xFFFFFFFFFFFFFFFFFFFFFFFFFFFFFFFFFFFFFFFF AND BALANCE SWAP1 POP SWAP2 SWAP1 POP JUMP JUMPDEST PUSH1 0x0 PUSH1 0x40 MLOAD SWAP1 POP SWAP1 JUMP JUMPDEST PUSH1 0x0 DUP1 REVERT JUMPDEST PUSH1 0x0 DUP1 REVERT JUMPDEST PUSH1 0x0 PUSH20 0xFFFFFFFFFFFFFFFFFFFFFFFFFFFFFFFFFFFFFFFF DUP3 AND SWAP1 POP SWAP2 SWAP1 POP JUMP JUMPDEST PUSH1 0x0 PUSH2 0x3B1 DUP3 PUSH2 0x386 JUMP JUMPDEST SWAP1 POP SWAP2 SWAP1 POP JUMP JUMPDEST PUSH2 0x3C1 DUP2 PUSH2 0x3A6 JUMP JUMPDEST DUP2 EQ PUSH2 0x3CC JUMPI PUSH1 0x0 DUP1 REVERT JUMPDEST POP JUMP JUMPDEST PUSH1 0x0 DUP2 CALLDATALOAD SWAP1 POP PUSH2 0x3DE DUP2 PUSH2 0x3B8 JUMP JUMPDEST SWAP3 SWAP2 POP POP JUMP JUMPDEST PUSH1 0x0 DUP2 SWAP1 POP SWAP2 SWAP1 POP JUMP JUMPDEST PUSH2 0x3F7 DUP2 PUSH2 0x3E4 JUMP JUMPDEST DUP2 EQ PUSH2 0x402 JUMPI PUSH1 0x0 DUP1 REVERT JUMPDEST POP JUMP JUMPDEST PUSH1 0x0 DUP2 CALLDATALOAD SWAP1 POP PUSH2 0x414 DUP2 PUSH2 0x3EE JUMP JUMPDEST SWAP3 SWAP2 POP POP JUMP JUMPDEST PUSH1 0x0 DUP1 PUSH1 0x40 DUP4 DUP6 SUB SLT ISZERO PUSH2 0x431 JUMPI PUSH2 0x430 PUSH2 0x37C JUMP JUMPDEST JUMPDEST PUSH1 0x0 PUSH2 0x43F DUP6 DUP3 DUP7 ADD PUSH2 0x3CF JUMP JUMPDEST SWAP3 POP POP PUSH1 0x20 PUSH2 0x450 DUP6 DUP3 DUP7 ADD PUSH2 0x405 JUMP JUMPDEST SWAP2 POP POP SWAP3 POP SWAP3 SWAP1 POP JUMP JUMPDEST PUSH1 0x0 DUP2 MLOAD SWAP1 POP SWAP2 SWAP1 POP JUMP JUMPDEST PUSH1 0x0 DUP3 DUP3 MSTORE PUSH1 0x20 DUP3 ADD SWAP1 POP SWAP3 SWAP2 POP POP JUMP JUMPDEST PUSH1 0x0 JUMPDEST DUP4 DUP2 LT ISZERO PUSH2 0x494 JUMPI DUP1 DUP3 ADD MLOAD DUP2 DUP5 ADD MSTORE PUSH1 0x20 DUP2 ADD SWAP1 POP PUSH2 0x479 JUMP JUMPDEST PUSH1 0x0 DUP5 DUP5 ADD MSTORE POP POP POP POP JUMP JUMPDEST PUSH1 0x0 PUSH1 0x1F NOT PUSH1 0x1F DUP4 ADD AND SWAP1 POP SWAP2 SWAP1 POP JUMP JUMPDEST PUSH1 0x0 PUSH2 0x4BC DUP3 PUSH2 0x45A JUMP JUMPDEST PUSH2 0x4C6 DUP2 DUP6 PUSH2 0x465 JUMP JUMPDEST SWAP4 POP PUSH2 0x4D6 DUP2 DUP6 PUSH1 0x20 DUP7 ADD PUSH2 0x476 JUMP JUMPDEST PUSH2 0x4DF DUP2 PUSH2 0x4A0 JUMP JUMPDEST DUP5 ADD SWAP2 POP POP SWAP3 SWAP2 POP POP JUMP JUMPDEST PUSH1 0x0 PUSH1 0x20 DUP3 ADD SWAP1 POP DUP2 DUP2 SUB PUSH1 0x0 DUP4 ADD MSTORE PUSH2 0x504 DUP2 DUP5 PUSH2 0x4B1 JUMP JUMPDEST SWAP1 POP SWAP3 SWAP2 POP POP JUMP JUMPDEST PUSH1 0x0 DUP1 REVERT JUMPDEST PUSH1 0x0 DUP1 REVERT JUMPDEST PUSH32 0x4E487B7100000000000000000000000000000000000000000000000000000000 PUSH1 0x0 MSTORE PUSH1 0x41 PUSH1 0x4 MSTORE PUSH1 0x24 PUSH1 0x0 REVERT JUMPDEST PUSH2 0x54E DUP3 PUSH2 0x4A0 JUMP JUMPDEST DUP2 ADD DUP2 DUP2 LT PUSH8 0xFFFFFFFFFFFFFFFF DUP3 GT OR ISZERO PUSH2 0x56D JUMPI PUSH2 0x56C PUSH2 0x516 JUMP JUMPDEST JUMPDEST DUP1 PUSH1 0x40 MSTORE POP POP POP JUMP JUMPDEST PUSH1 0x0 PUSH2 0x580 PUSH2 0x372 JUMP JUMPDEST SWAP1 POP PUSH2 0x58C DUP3 DUP3 PUSH2 0x545 JUMP JUMPDEST SWAP2 SWAP1 POP JUMP JUMPDEST PUSH1 0x0 PUSH8 0xFFFFFFFFFFFFFFFF DUP3 GT ISZERO PUSH2 0x5AC JUMPI PUSH2 0x5AB PUSH2 0x516 JUMP JUMPDEST JUMPDEST PUSH2 0x5B5 DUP3 PUSH2 0x4A0 JUMP JUMPDEST SWAP1 POP PUSH1 0x20 DUP2 ADD SWAP1 POP SWAP2 SWAP1 POP JUMP JUMPDEST DUP3 DUP2 DUP4 CALLDATACOPY PUSH1 0x0 DUP4 DUP4 ADD MSTORE POP POP POP JUMP JUMPDEST PUSH1 0x0 PUSH2 0x5E4 PUSH2 0x5DF DUP5 PUSH2 0x591 JUMP JUMPDEST PUSH2 0x576 JUMP JUMPDEST SWAP1 POP DUP3 DUP2 MSTORE PUSH1 0x20 DUP2 ADD DUP5 DUP5 DUP5 ADD GT ISZERO PUSH2 0x600 JUMPI PUSH2 0x5FF PUSH2 0x511 JUMP JUMPDEST JUMPDEST PUSH2 0x60B DUP5 DUP3 DUP6 PUSH2 0x5C2 JUMP JUMPDEST POP SWAP4 SWAP3 POP POP POP JUMP JUMPDEST PUSH1 0x0 DUP3 PUSH1 0x1F DUP4 ADD SLT PUSH2 0x628 JUMPI PUSH2 0x627 PUSH2 0x50C JUMP JUMPDEST JUMPDEST DUP2 CALLDATALOAD PUSH2 0x638 DUP5 DUP3 PUSH1 0x20 DUP7 ADD PUSH2 0x5D1 JUMP JUMPDEST SWAP2 POP POP SWAP3 SWAP2 POP POP JUMP JUMPDEST PUSH1 0x0 PUSH1 0x20 DUP3 DUP5 SUB SLT ISZERO PUSH2 0x657 JUMPI PUSH2 0x656 PUSH2 0x37C JUMP JUMPDEST JUMPDEST PUSH1 0x0 DUP3 ADD CALLDATALOAD PUSH8 0xFFFFFFFFFFFFFFFF DUP2 GT ISZERO PUSH2 0x675 JUMPI PUSH2 0x674 PUSH2 0x381 JUMP JUMPDEST JUMPDEST PUSH2 0x681 DUP5 DUP3 DUP6 ADD PUSH2 0x613 JUMP JUMPDEST SWAP2 POP POP SWAP3 SWAP2 POP POP JUMP JUMPDEST PUSH1 0x0 PUSH1 0x20 DUP3 DUP5 SUB SLT ISZERO PUSH2 0x6A0 JUMPI PUSH2 0x69F PUSH2 0x37C JUMP JUMPDEST JUMPDEST PUSH1 0x0 PUSH2 0x6AE DUP5 DUP3 DUP6 ADD PUSH2 0x3CF JUMP JUMPDEST SWAP2 POP POP SWAP3 SWAP2 POP POP JUMP JUMPDEST PUSH2 0x6C0 DUP2 PUSH2 0x3E4 JUMP JUMPDEST DUP3 MSTORE POP POP JUMP JUMPDEST PUSH1 0x0 PUSH1 0x20 DUP3 ADD SWAP1 POP PUSH2 0x6DB PUSH1 0x0 DUP4 ADD DUP5 PUSH2 0x6B7 JUMP JUMPDEST SWAP3 SWAP2 POP POP JUMP JUMPDEST PUSH2 0x6EA DUP2 PUSH2 0x3A6 JUMP JUMPDEST DUP3 MSTORE POP POP JUMP JUMPDEST PUSH1 0x0 PUSH1 0x20 DUP3 ADD SWAP1 POP PUSH2 0x705 PUSH1 0x0 DUP4 ADD DUP5 PUSH2 0x6E1 JUMP JUMPDEST SWAP3 SWAP2 POP POP JUMP JUMPDEST PUSH32 0x4E487B7100000000000000000000000000000000000000000000000000000000 PUSH1 0x0 MSTORE PUSH1 0x22 PUSH1 0x4 MSTORE PUSH1 0x24 PUSH1 0x0 REVERT JUMPDEST PUSH1 0x0 PUSH1 0x2 DUP3 DIV SWAP1 POP PUSH1 0x1 DUP3 AND DUP1 PUSH2 0x752 JUMPI PUSH1 0x7F DUP3 AND SWAP2 POP JUMPDEST PUSH1 0x20 DUP3 LT DUP2 SUB PUSH2 0x765 JUMPI PUSH2 0x764 PUSH2 0x70B JUMP JUMPDEST JUMPDEST POP SWAP2 SWAP1 POP JUMP JUMPDEST PUSH1 0x0 DUP2 SWAP1 POP DUP2 PUSH1 0x0 MSTORE PUSH1 0x20 PUSH1 0x0 KECCAK256 SWAP1 POP SWAP2 SWAP1 POP JUMP JUMPDEST PUSH1 0x0 PUSH1 0x20 PUSH1 0x1F DUP4 ADD DIV SWAP1 POP SWAP2 SWAP1 POP JUMP JUMPDEST PUSH1 0x0 DUP3 DUP3 SHL SWAP1 POP SWAP3 SWAP2 POP POP JUMP JUMPDEST PUSH1 0x0 PUSH1 0x8 DUP4 MUL PUSH2 0x7CD PUSH32 0xFFFFFFFFFFFFFFFFFFFFFFFFFFFFFFFFFFFFFFFFFFFFFFFFFFFFFFFFFFFFFFFF DUP3 PUSH2 0x790 JUMP JUMPDEST PUSH2 0x7D7 DUP7 DUP4 PUSH2 0x790 JUMP JUMPDEST SWAP6 POP DUP1 NOT DUP5 AND SWAP4 POP DUP1 DUP7 AND DUP5 OR SWAP3 POP POP POP SWAP4 SWAP3 POP POP POP JUMP JUMPDEST PUSH1 0x0 DUP2 SWAP1 POP SWAP2 SWAP1 POP JUMP JUMPDEST PUSH1 0x0 PUSH2 0x814 PUSH2 0x80F PUSH2 0x80A DUP5 PUSH2 0x3E4 JUMP JUMPDEST PUSH2 0x7EF JUMP JUMPDEST PUSH2 0x3E4 JUMP JUMPDEST SWAP1 POP SWAP2 SWAP1 POP JUMP JUMPDEST PUSH1 0x0 DUP2 SWAP1 POP SWAP2 SWAP1 POP JUMP JUMPDEST PUSH2 0x82E DUP4 PUSH2 0x7F9 JUMP JUMPDEST PUSH2 0x842 PUSH2 0x83A DUP3 PUSH2 0x81B JUMP JUMPDEST DUP5 DUP5 SLOAD PUSH2 0x79D JUMP JUMPDEST DUP3 SSTORE POP POP POP POP JUMP JUMPDEST PUSH1 0x0 SWAP1 JUMP JUMPDEST PUSH2 0x857 PUSH2 0x84A JUMP JUMPDEST PUSH2 0x862 DUP2 DUP5 DUP5 PUSH2 0x825 JUMP JUMPDEST POP POP POP JUMP JUMPDEST JUMPDEST DUP2 DUP2 LT ISZERO PUSH2 0x886 JUMPI PUSH2 0x87B PUSH1 0x0 DUP3 PUSH2 0x84F JUMP JUMPDEST PUSH1 0x1 DUP2 ADD SWAP1 POP PUSH2 0x868 JUMP JUMPDEST POP POP JUMP JUMPDEST PUSH1 0x1F DUP3 GT ISZERO PUSH2 0x8CB JUMPI PUSH2 0x89C DUP2 PUSH2 0x76B JUMP JUMPDEST PUSH2 0x8A5 DUP5 PUSH2 0x780 JUMP JUMPDEST DUP2 ADD PUSH1 0x20 DUP6 LT ISZERO PUSH2 0x8B4 JUMPI DUP2 SWAP1 POP JUMPDEST PUSH2 0x8C8 PUSH2 0x8C0 DUP6 PUSH2 0x780 JUMP JUMPDEST DUP4 ADD DUP3 PUSH2 0x867 JUMP JUMPDEST POP POP JUMPDEST POP POP POP JUMP JUMPDEST PUSH1 0x0 DUP3 DUP3 SHR SWAP1 POP SWAP3 SWAP2 POP POP JUMP JUMPDEST PUSH1 0x0 PUSH2 0x8EE PUSH1 0x0 NOT DUP5 PUSH1 0x8 MUL PUSH2 0x8D0 JUMP JUMPDEST NOT DUP1 DUP4 AND SWAP2 POP POP SWAP3 SWAP2 POP POP JUMP JUMPDEST PUSH1 0x0 PUSH2 0x907 DUP4 DUP4 PUSH2 0x8DD JUMP JUMPDEST SWAP2 POP DUP3 PUSH1 0x2 MUL DUP3 OR SWAP1 POP SWAP3 SWAP2 POP POP JUMP JUMPDEST PUSH2 0x920 DUP3 PUSH2 0x45A JUMP JUMPDEST PUSH8 0xFFFFFFFFFFFFFFFF DUP2 GT ISZERO PUSH2 0x939 JUMPI PUSH2 0x938 PUSH2 0x516 JUMP JUMPDEST JUMPDEST PUSH2 0x943 DUP3 SLOAD PUSH2 0x73A JUMP JUMPDEST PUSH2 0x94E DUP3 DUP3 DUP6 PUSH2 0x88A JUMP JUMPDEST PUSH1 0x0 PUSH1 0x20 SWAP1 POP PUSH1 0x1F DUP4 GT PUSH1 0x1 DUP2 EQ PUSH2 0x981 JUMPI PUSH1 0x0 DUP5 ISZERO PUSH2 0x96F JUMPI DUP3 DUP8 ADD MLOAD SWAP1 POP JUMPDEST PUSH2 0x979 DUP6 DUP3 PUSH2 0x8FB JUMP JUMPDEST DUP7 SSTORE POP PUSH2 0x9E1 JUMP JUMPDEST PUSH1 0x1F NOT DUP5 AND PUSH2 0x98F DUP7 PUSH2 0x76B JUMP JUMPDEST PUSH1 0x0 JUMPDEST DUP3 DUP2 LT ISZERO PUSH2 0x9B7 JUMPI DUP5 DUP10 ADD MLOAD DUP3 SSTORE PUSH1 0x1 DUP3 ADD SWAP2 POP PUSH1 0x20 DUP6 ADD SWAP5 POP PUSH1 0x20 DUP2 ADD SWAP1 POP PUSH2 0x992 JUMP JUMPDEST DUP7 DUP4 LT ISZERO PUSH2 0x9D4 JUMPI DUP5 DUP10 ADD MLOAD PUSH2 0x9D0 PUSH1 0x1F DUP10 AND DUP3 PUSH2 0x8DD JUMP JUMPDEST DUP4 SSTORE POP JUMPDEST PUSH1 0x1 PUSH1 0x2 DUP9 MUL ADD DUP9 SSTORE POP POP POP JUMPDEST POP POP POP POP POP POP JUMP INVALID LOG2 PUSH5 0x6970667358 0x22 SLT KECCAK256 SWAP6 0xB3 PUSH11 0x1ECF66213BCD0341E2ECF2 DUP15 DUP2 0xE4 0x1E DUP1 CALLDATASIZE SAR 0xB0 DUP4 INVALID PUSH1 0x9 SSTORE 0xD5 0xDE PUSH18 0x3FD264736F6C634300081200330000000000 "
		},
		"gasEstimates": {
			"creation": {
				"codeDepositCost": "518200",
				"executionCost": "infinite",
				"totalCost": "infinite"
			},
			"external": {
				"demo(string)": "infinite",
				"getBalance(address)": "3323",
				"myAddr()": "2558",
				"myStr()": "infinite",
				"payments(address)": "2836",
				"receiveFunds()": "22323",
				"transferTo(address,uint256)": "infinite"
			}
		},
		"methodIdentifiers": {
			"demo(string)": "939a79ac",
			"getBalance(address)": "f8b2cb4f",
			"myAddr()": "e665b266",
			"myStr()": "5a455c1c",
			"payments(address)": "e2982c21",
			"receiveFunds()": "005c33e1",
			"transferTo(address,uint256)": "2ccb1b30"
		}
	},
	"abi": [
		{
			"inputs": [
				{
					"internalType": "string",
					"name": "newValueStr",
					"type": "string"
				}
			],
			"name": "demo",
			"outputs": [],
			"stateMutability": "nonpayable",
			"type": "function"
		},
		{
			"inputs": [
				{
					"internalType": "address",
					"name": "targetAddr",
					"type": "address"
				}
			],
			"name": "getBalance",
			"outputs": [
				{
					"internalType": "uint256",
					"name": "",
					"type": "uint256"
				}
			],
			"stateMutability": "view",
			"type": "function"
		},
		{
			"inputs": [],
			"name": "myAddr",
			"outputs": [
				{
					"internalType": "address",
					"name": "",
					"type": "address"
				}
			],
			"stateMutability": "view",
			"type": "function"
		},
		{
			"inputs": [],
			"name": "myStr",
			"outputs": [
				{
					"internalType": "string",
					"name": "",
					"type": "string"
				}
			],
			"stateMutability": "view",
			"type": "function"
		},
		{
			"inputs": [
				{
					"internalType": "address",
					"name": "",
					"type": "address"
				}
			],
			"name": "payments",
			"outputs": [
				{
					"internalType": "uint256",
					"name": "",
					"type": "uint256"
				}
			],
			"stateMutability": "view",
			"type": "function"
		},
		{
			"inputs": [],
			"name": "receiveFunds",
			"outputs": [],
			"stateMutability": "payable",
			"type": "function"
		},
		{
			"inputs": [
				{
					"internalType": "address",
					"name": "targetAddr",
					"type": "address"
				},
				{
					"internalType": "uint256",
					"name": "amount",
					"type": "uint256"
				}
			],
			"name": "transferTo",
			"outputs": [],
			"stateMutability": "nonpayable",
			"type": "function"
		}
	]
}